:020000040800F2
:100000000000022085260008992400089F2400088B
:10001000A5240008AB240008B1240008000000005B
:10002000000000000000000000000000B7240008ED
:10003000C524000800000000D3240008E1240008C3
:10004000D5260008D5260008D5260008D5260008A4
:10005000D5260008D5260008D5260008D526000894
:10006000D5260008D5260008D5260008D526000884
:10007000D5260008D5260008D5260008D526000874
:10008000D5260008D5260008D5260008D526000864
:10009000D5260008D5260008D5260008D526000854
:1000A000D5260008D5260008D5260008D526000844
:1000B000ED240008D5260008D5260008D52600081E
:1000C000D5260008D5260008D5260008D526000824
:1000D000D5260008D5260008D5260008D526000814
:1000E000D5260008D5260008D5260008D526000804
:1000F000D5260008D5260008D5260008D5260008F4
:10010000D5260008D5260008D5260008D5260008E3
:10011000D5260008D5260008D5260008D5260008D3
:10012000D5260008D5260008D5260008D5260008C3
:10013000D5260008D5260008D5260008D5260008B3
:10014000D5260008D5260008D5260008D5260008A3
:10015000D5260008D5260008D5260008D526000893
:10016000D5260008D5260008D5260008D526000883
:10017000D5260008D5260008D52600080000000076
:08018000D5260008D526000871
:1001880010B5054C237833B9044B13B10448AFF3C9
:1001980000800123237010BD14000020000000001F
:1001A8000460000808B5034B1BB103490348AFF3CB
:1001B800008008BD0000000018000020046000084E
:1001C80053B94AB9002908BF00281CBF4FF0FF31B6
:1001D8004FF0FF3000F06EB9ADF1080C6DE904CEB8
:1001E80000F006F8DDF804E0DDE9022304B070470A
:1001F8002DE9F047089D04468C46002B40F083808B
:100208008A42174647D9B2FA82F242B1C2F12000B7
:1002180024FA00F09140974040EA010C94404FEADC
:100228001748230CBCFBF8F61FFA87FE08FB16C11B
:1002380043EA014306FB0EF1994209D9FB1806F17E
:10024800FF3080F01981994240F21681023E3B440A
:100258005B1AA4B2B3FBF8F008FB103344EA03447A
:1002680000FB0EFEA64509D93C1900F1FF3380F0CA
:100278000581A64540F2028102383C4440EA064026
:10028800A4EB0E0400261DB1D4400023C5E90043A9
:100298003146BDE8F08702B9FFDEB2FA82F2002AE1
:1002A80050D1CB1B4FEA174E1FFA87F80126B3FB34
:1002B800FEFC210C0EFB1C3341EA034108FB0CF346
:1002C8008B4207D979180CF1FF3002D28B4200F229
:1002D800E9808446C91AA3B2B1FBFEF00EFB1011E7
:1002E80043EA014408FB00F8A04507D93C1900F18E
:1002F800FF3302D2A04500F2D9801846A4EB0804C7
:1003080040EA0C40BFE78B4209D9002D00F0B180CC
:100318000026C5E9000130463146BDE8F087B3FA4A
:1003280083F6002E4AD18B4202D3824200F2B88073
:10033800841A61EB030101208C46002DA8D0C5E981
:10034800004CA5E7C2F1200320FA03F6974001FA12
:1003580002F04FEA174ED9403043030CB1FBFEF6CA
:100368001FFA87F80EFB161143EA014306FB08F152
:10037800994204FA02F409D9FB1806F1FF3C80F00F
:100388008D80994240F28A80023E3B445B1A81B2DA
:10039800B3FBFEF00EFB103341EA034100FB08F308
:1003A8008B4207D9791800F1FF3C73D28B4271D97F
:1003B80002383944CB1A40EA064678E7C6F1200CE1
:1003C80003FA06F422FA0CF31C4320FA0CF701FA9C
:1003D80006F34FEA144E21FA0CF11F433B0CB1FB14
:1003E800FEF91FFA84F80EFB191143EA014109FBD3
:1003F80008FA8A4502FA06F200FA06F308D96118E3
:1004080009F1FF3048D28A4546D9A9F102092144A9
:10041800A1EB0A01BFB2B1FBFEF00EFB101147EAD7
:10042800014700FB08F8B84507D9E71900F1FF3183
:100438002ED2B8452CD90238274440EA0940A7EB08
:100448000807A0FB02894F45C64649461AD317D06C
:100458005DB1B3EB0E0267EB010707FA0CFCF24043
:100468004CEA0202F740C5E9002700263146BDE8FC
:10047800F0872E4628460BE70646E9E61846FDE6CD
:100488004345E5D2B8EB020E69EB04010138DFE71A
:100498000846D2E760468DE78146B9E7664675E7C4
:1004A80030464AE7ACF1020C394413E702383C44C1
:1004B80024E700BF704700BF80B500AF01220821C4
:1004C800024802F049FC00BF80BD00BF000C02409A
:1004D80080B584B000AF002208212F4802F03CFC10
:1004E800012208212C4802F037FC0A2302222B495A
:1004F8002B4804F0CAFB0023FB604FF400437B81C8
:1005080000237B603FE07B68002B06DB7B68032BC6
:1005180003DC7B680433FB6018E07B68032B07DD92
:100528007B68072B04DC7B68C3F10703FB600DE0E5
:100538007B68072B06DD7B680B2B03DC7B680433A9
:10054800FB6003E07B68C3F11703FB60134B1A8859
:100558007B8913409BB2002B05D0124AFB6800210F
:1005680022F8131009E00F4AFB6832F81330013300
:1005780099B20C4AFB6822F813107B895B087B81CF
:100588007B6801337B607B680F2BBCDD00BF00BF3D
:100598001037BD4680BD00BF000C0240300000206F
:1005A800600100205000002080B500AF1E2002F03E
:1005B80041F803461A461C4B1A70162002F03AF806
:1005C80003461A46184B5A70152002F033F80346B2
:1005D8001A46154B9A70062002F02CF803461A4664
:1005E800114BDA700F2002F025F803461A460E4B1D
:1005F8001A71092002F01EF803461A460A4B5A716E
:10060800172002F017F803461A46074B9A7132234F
:100618000322D021054803F029F80346002B00D017
:10062800FEE700BF80BD00BF78000020D00000209A
:1006380080B588B004AF03460A46FB711346BB7108
:10064800BB79184601F0F6FF0346FB73FB799AB2B3
:100658000A2302930123019307F10F030093012357
:10066800D021034802F0D6FC00BF1037BD4680BD3C
:10067800D000002080B584B004AF0A23029307237A
:100688000193254B009301230022D021234802F037
:10069800BBFD214B1B78184601F0B2FF03461A46F2
:1006A8001F4B1A701C4B5B78184601F0A9FF0346D4
:1006B8001A461C4B1A70184B9B78184601F0A0FF7D
:1006C80003461A46184B1A70134BDB78184601F08C
:1006D80097FF03461A46154B1A700F4B1B7918469D
:1006E80001F08EFF03461A46114B1A700A4B5B79CC
:1006F800184601F085FF03461A460E4B1A70064B42
:100708009B79184601F07CFF03461A460A4B1A707B
:1007180000BFBD4680BD00BF78000020D00000208B
:100728007000002072000020750000207400002076
:1007380073000020760000207100002080B58EB084
:1007480000AF07F11C0300221A605A609A60DA6051
:100758001A615A619A613B4600221A605A609A608F
:10076800DA601A615A619A612F4B4FF020421A6081
:100778002D4B2E4A5A602C4B00229A602A4B00229D
:10078800DA60294B00221A61274B10225A61264B46
:1007980000229A61244B0022DA61234B00221A625C
:1007A800214B00225A62204B4FF480529A621E4B12
:1007B8000022DA621C4B4FF480421A631A4B002263
:1007C8005A63194B00229A63174B00225A640F236D
:1007D800FB610F233B623C237B620023BB62102337
:1007E800FB6211233B6300237B6308233B600F23D9
:1007F8007B600923BB600023FB6010233B6111234E
:100808007B610023BB613A4607F11C031946064881
:1008180004F040FE0346002B01D001F005FD00BFA7
:100828003837BD4680BD00BF80000020040100A00D
:1008380080B586B000AF3B1D00221A605A609A60EE
:10084800DA601A611C4B1B68002B31D11A4B01224C
:100858001A6000233B60194B9B6B184A43F0010355
:100868009363164B9B6B03F001033B603B684FF6A9
:1008780088737B600223BB600023FB6003233B611A
:100888000C237B613B1D19460D4802F0C9F84CF258
:10089800B3737B600223BB600023FB6003233B61CF
:1008A8000C237B613B1D1946064802F0B9F800E0AD
:1008B80000BF1837BD4680BD340000200038024014
:1008C80000100240000C024080B582B000AF786092
:1008D800FFF7AEFF00BF0837BD4680BD80B58CB0BE
:1008E80000AF07F11C0300221A605A609A60DA60B0
:1008F8001A610023BB616F4B1B6B6E4A43F01003F8
:1009080013636C4B1B6B03F01003BB61BB690023C3
:100918007B61684B1B6B674A43F004031363654BA9
:100928001B6B03F004037B617B6900233B61614B14
:100938001B6B604A43F0800313635E4B1B6B03F031
:1009480080033B613B690023FB605A4B1B6B594A90
:1009580043F001031363574B1B6B03F00103FB6068
:10096800FB680023BB60534B1B6B524A43F00803E0
:100978001363504B1B6B03F00803BB60BB68002379
:100988007B604C4B1B6B4B4A43F040031363494B52
:100998001B6B03F040037B607B6800233B60454B87
:1009A8001B6B444A43F002031363424B1B6B03F077
:1009B80002033B603B68002270213F4802F0CCF9FB
:1009C80000224FF400513D4802F0C6F900224021B0
:1009D8003B4802F0C1F900224FF48071394802F017
:1009E800BBF900220821384802F0B6F97023FB61F0
:1009F80001233B6200237B620023BB6207F11C03D7
:100A080019462D4802F00CF84FF40053FB610123FE
:100A18003B6200237B620023BB6207F11C0319467B
:100A2800264801F0FDFFC023FB6100233B62002341
:100A38007B6207F11C031946224801F0F1FF3023BD
:100A4800FB6100233B6200237B6207F11C0319460C
:100A58001A4801F0E5FF4023FB6101233B620023B4
:100A68007B620023BB6207F11C031946144801F09E
:100A7800D7FF4FF48073FB6101233B6200237B6245
:100A88000023BB6207F11C0319460E4801F0C8FF9A
:100A98000823FB6101233B6200237B620023BB62C6
:100AA80007F11C031946084801F0BAFF00BF3037A8
:100AB800BD4680BD003802400010024000080240D8
:100AC8000018024000000240000C024080B500AF50
:100AD800124B134A1A60114B124A5A600F4B0022EC
:100AE8009A600E4B0022DA600C4B4FF480421A6178
:100AF8000A4B00225A61094B00229A61074B0022D7
:100B0800DA61064B00221A62044802F03FF90346F4
:100B1800002B01D001F088FB00BF80BDD000002071
:100B280000540040A086010080B58AB000AF78600C
:100B380007F1140300221A605A609A60DA601A6199
:100B48007B681B68194A93422BD100233B61184BE1
:100B58001B6B174A43F002031363154B1B6B03F01F
:100B680002033B613B69C0237B611223BB61002305
:100B7800FB6103233B6204237B6207F114031946DC
:100B88000C4801F04DFF0023FB60094B1B6C084A21
:100B980043F400131364064B1B6C03F40013FB604F
:100BA800FB6800BF2837BD4680BD00BF0054004029
:100BB800003802400004024080B483B000AF03460E
:100BC800FB80044AFB88138000BF0C37BD465DF8E4
:100BD800047B7047FEFF0F6080B483B000AF03460C
:100BE800FB80044AFB88538000BF0C37BD465DF884
:100BF800047B7047FEFF0F6080B483B000AF064BE4
:100C08005B889BB2FB80FB889BB218460C37BD46BD
:100C18005DF8047B704700BFFEFF0F6090B583B09E
:100C280000AF0446084611461A462346FB80034691
:100C3800BB800B467B8013463B802A20FFF7BCFF16
:100C4800FB881B0A9BB21846FFF7C6FFFB88DBB27E
:100C58009BB21846FFF7C0FF7B881B0A9BB2184659
:100C6800FFF7BAFF7B88DBB29BB21846FFF7B4FFE9
:100C78002B20FFF7A1FFBB881B0A9BB21846FFF782
:100C8800ABFFBB88DBB29BB21846FFF7A5FF3B88DA
:100C98001B0A9BB21846FFF79FFF3B88DBB29BB24B
:100CA8001846FFF799FF2C20FFF786FF00BF0C3787
:100CB800BD4690BD80B584B000AF0346FB80FB887D
:100CC8001B0A9BB2DBB23B72FB88DBB27B72154B13
:100CD8001B88013B9AB2134B5B88013B9BB20021F6
:100CE8000020FFF79BFF0023FB8111E00023BB815D
:100CF80006E0FB881846FFF76FFFBB890133BB810D
:100D0800084B5B88BA899A42F3D3FB890133FB818C
:100D1800044B1B88FA899A42E8D300BF00BF1037FA
:100D2800BD4680BD2401002080B582B000AF0346D7
:100D3800FB800B46BB8013467B80BB88FA88B9884A
:100D4800F888FFF76BFF7B881846FFF745FF00BF61
:100D58000837BD4680BD000090B587B000AF044697
:100D6800084611461A462346FB800346BB800B46BD
:100D7800FB7013463B8000237B75FB883B8297F80A
:100D88002C305B08FB73FB7BDB08DBB21A46FB7B72
:100D980003F00703DBB2002B14BF01230023DBB2EF
:100DA80013449AB297F82C309BB212FB03F3BB8121
:100DB800FB78203BFB70FB7B9AB2FB8813449BB209
:100DC800013B9CB297F82C309AB2BB8813449BB273
:100DD800013B9BB2B988F8882246FFF71FFF002322
:100DE8007B827AE097F82C300C2B28D097F82C309F
:100DF800102B08D1FA787B8A3C4912010A44134423
:100E08001B78FB751BE097F82C30182B0BD1FA7860
:100E1800798A374813465B0013441B0103440B448B
:100E28001B78FB750BE097F82C30202B5AD1FA78F9
:100E38007B8A304992010A4413441B78FB750023CE
:100E4800BB7544E097F83030002B20D1FA7DBB7D8C
:100E580042FA03F303F00103002B04D03B88184641
:100E6800FFF7BAFE03E03B8D1846FFF7B5FE7B7D22
:100E780001337B757B7DFA7BB3FBF2F102FB01F258
:100E88009B1ADBB2002B1FD100237B7522E0FA7D71
:100E9800BB7D42FA03F303F00103002B05D03A8827
:100EA800B988FB881846FFF73FFFFB880133FB80B2
:100EB800FA883B8AD21AFB7B9A4205D13B8AFB808F
:100EC800BB880133BB8005E0BB7D0133BB75BB7DAF
:100ED800072BB7D97B8A01337B827A8ABB899A42EE
:100EE80080D300E000BF1C37BD4690BD28600008D5
:100EF80018660008E877000880B485B000AF03469C
:100F08000A46FB711346BB710123FB6004E0FA79C2
:100F1800FB6802FB03F3FB60BB795A1EBA71002B16
:100F2800F5D1FB6818461437BD465DF8047B704759
:100F380090B589B004AF0446084611461A462346C0
:100F4800FB800346BB800B467B8013467B700023E7
:100F5800BB7397F828305B087B730023FB7359E059
:100F68007C887A78FB7BD31ADBB2013BDBB219466B
:100F78000A20FFF7C1FF0346B4FBF3F12A4BA3FB9A
:100F88000123DA0813469B0013445B00CA1A134670
:100F98003B73BB7B002B21D1FA7B7B78013B9A42C8
:100FA8001CDA3B7B002B17D1FB7B9AB27B7B9BB275
:100FB80012FB03F39AB2FB88134498B23A8CB988AF
:100FC8000023029397F828300193BB8C00931346B3
:100FD8002022FFF7C1FE1AE00123BB73FB7B9AB204
:100FE8007B7B9BB212FB03F39AB2FB88134498B243
:100FF8003B7B3033DAB23C8CB9880023029397F8F4
:1010080028300193BB8C00932346FFF7A5FEFB7B9A
:101018000133FB73FA7B7B789A42A1D300BF00BFF0
:101028001437BD4690BD00BFCDCCCCCC80B483B0C6
:1010380000AF0346FB71FB791B09DBB203F0030326
:10104800DBB2002B07D00A4B4FF4A0721A80084B72
:10105800F0225A8006E0064BF0221A80044B4FF427
:10106800A0725A8000BF0C37BD465DF8047B7047FC
:101078002401002080B500AF00224FF40051AA4897
:1010880001F06AFE4FF4FA7001F094FB01224FF46C
:101098000051A54801F060FE4FF4FA7001F08AFB98
:1010A8000020FFF7C3FFD320FFF786FDFFF7A4FD5D
:1010B80003461A469D4B9A80FFF79EFD03461A4643
:1010C8009A4B9A80FFF798FD03461A46974B9A80E9
:1010D800964B9B881B029AB2944B9A80FFF78CFD23
:1010E80003461A46914B9B8813439AB28F4B9A80BA
:1010F800CF20FFF761FD0020FFF76EFDC120FFF74D
:101108006BFD3020FFF768FDED20FFF755FD6420EB
:10111800FFF762FD0320FFF75FFD1220FFF75CFD7C
:101128008120FFF759FDE820FFF746FD8520FFF7EE
:1011380053FD1020FFF750FD7A20FFF74DFDCB201F
:10114800FFF73AFD3920FFF747FD2C20FFF744FD54
:101158000020FFF741FD3420FFF73EFD0220FFF796
:101168003BFDF720FFF728FD2020FFF735FDEA209B
:10117800FFF722FD0020FFF72FFD0020FFF72CFDD1
:10118800C020FFF719FD1B20FFF726FDC120FFF740
:1011980013FD0120FFF720FDC520FFF70DFD3020CE
:1011A800FFF71AFD3020FFF717FDC720FFF704FDF2
:1011B800B720FFF711FD3620FFF7FEFC0820FFF7E8
:1011C8000BFD3A20FFF7F8FC5520FFF705FDB1208D
:1011D800FFF7F2FC0020FFF7FFFC1A20FFF7FCFCEA
:1011E800B620FFF7E9FC0A20FFF7F6FCA220FFF77C
:1011F800F3FCF220FFF7E0FC0020FFF7EDFC2620CF
:10120800FFF7DAFC0120FFF7E7FCE020FFF7D4FC4A
:101218000F20FFF7E1FC2A20FFF7DEFC2820FFF76C
:10122800DBFC0820FFF7D8FC0E20FFF7D5FC0820D0
:10123800FFF7D2FC5420FFF7CFFCA920FFF7CCFC26
:101248004320FFF7C9FC0A20FFF7C6FC0F20FFF771
:10125800C3FC0020FFF7C0FC0020FFF7BDFC002006
:10126800FFF7BAFC0020FFF7B7FCE120FFF7A4FC6A
:101278000020FFF7B1FC1520FFF7AEFC1720FFF7A1
:10128800ABFC0720FFF7A8FC1120FFF7A5FC062000
:10129800FFF7A2FC2B20FFF79FFC5620FFF79CFCD2
:1012A8003C20FFF799FC0520FFF796FC1020FFF77C
:1012B80093FC0F20FFF790FC3F20FFF78DFC3F20A9
:1012C800FFF78AFC0F20FFF787FC2B20FFF774FC41
:1012D8000020FFF781FC0020FFF77EFC0120FFF7CC
:1012E8007BFC3F20FFF778FC2A20FFF765FC0020F5
:1012F800FFF772FC0020FFF76FFC0020FFF76CFC83
:10130800EF20FFF769FC1120FFF756FC782001F069
:1013180051FA2920FFF750FC01224FF4807104484C
:1013280001F01AFD00BF80BD000802402401002022
:101338000000024090B58BB004AFBA601A4603466D
:10134800FB810B46BB811346FB80FB89BB820023D4
:10135800FB7548E0FB7D002B45D1FA89264B1B889D
:10136800194697F82C305B08DBB2CB1A9A423FDC5F
:10137800BA89214B5B88194697F82C30CB1A9A42C8
:1013880036DCBB681B78802B02D90123FB752AE069
:10139800BB681B780D2B0BD197F82C309AB2BB8900
:1013A8001344BB81BB8AFB81BB680133BB6017E078
:1013B800BB681A78FC88B989F88997F830300293A5
:1013C80097F82C3001933B8D00932346FFF7C4FC1C
:1013D80097F82C305B08DBB29AB2FB891344FB8187
:1013E800BB680133BB60BB681B78002BB2D100E03F
:1013F80000BF1C37BD4690BD2401002080B500AF5A
:1014080001224021024801F0A7FC00BF80BD00BFB7
:101418000018024080B500AF3F4B1B88DBB29AB280
:101428003D4B1A803D4B1B683D4AD35C1B021AB2E8
:10143800394B1B881BB213431BB29AB2364B1A8026
:10144800364B1B68032B47D801A252F823F000BF84
:101458006914000887140008A5140008C3140008BC
:101468002D4B1B8843F0B0039AB22B4B1A802A4BA2
:101478001B8823F040039AB2274B1A802DE0264B95
:101488001B8843F0D0039AB2234B1A80224B1B8847
:1014980023F020039AB2204B1A801EE01E4B1B88B3
:1014A80043F0E0039AB21C4B1A801B4B1B8823F0B5
:1014B80010039AB2184B1A800FE0174B1B8843F0A1
:1014C80070039AB2144B1A80134B1B8823F08003C5
:1014D8009AB2114B1A8000E000BF104B1B68013311
:1014E8005A4203F0030302F0030258BF53420B4A67
:1014F8001360002240210B4801F02EFC0123022238
:101508000549094803F07DFA01224021054801F008
:1015180023FC00BF80BD00BF04000020380000206D
:1015280000000020001802406001002080B584B04F
:1015380004AF01F0CDF800F0ADF9FFF7CFF900F0F6
:10154800EDFF00F0FFFEFFF7F9F8FFF7BFFA00F034
:101558000BFA0020FFF7AEFB00F02CFA00BFA34BFC
:101568001B88002BFBD0A14B00221A80FEF7B0FF8E
:101578009F4B1B88012B0FD10020FFF79BFB9D4B36
:101588001B780133DAB29B4B1A709A4B1B78022BEB
:1015980002D9984B00221A70954B1B8B012B0CD14A
:1015A800954B1B780133DAB2934B1A70924B1B7828
:1015B800062B02D9904B00221A708E4B1B78002BF9
:1015C80024D1FFF757F800F02DFA8C4B1A788C4B82
:1015D8001B789A42C2D18B4B1A788B4B1B789A4254
:1015E800BCD18A4B1A788A4B1B789A42B6D1002311
:1015F8000293182301934FF4784300934FF6FF7337
:10160800844A00211420FFF795FEA7E7794B1B7841
:10161800012B40F0A380764BDB88012B4DD1764B14
:101628001B787D4AD25C0132D1B27B4AD1547A4BC5
:101638001B78184600F0E4FF034619460020FEF721
:10164800F7FF754B5B78184600F0DAFF034619463A
:101658000120FEF7EDFF704B9B78184600F0D0FF95
:10166800034619460220FEF7E3FF6B4BDB7818466A
:1016780000F0C6FF034619460320FEF7D9FF664B64
:101688001B79184600F0BCFF034619460420FEF7F4
:10169800CFFF614B5B79184600F0B2FF034619464D
:1016A8000520FEF7C5FF5C4B9B79184600F0A8FFA4
:1016B800034619460620FEF7BBFF574B1B78184612
:1016C80000F09EFF03461A464C4B1A70524B5B784B
:1016D800184600F095FF03461A464A4B1A704E4BBF
:1016E8009B78184600F08CFF03461A46474B1A7041
:1016F800494BDB78184600F083FF03461A46474BF0
:101708001A70454B1B79184600F07AFF03461A46B3
:10171800434B1A70404B5B79184600F071FF034643
:101728001A46404B1A703C4B9B79184600F068FFEC
:1017380003461A463C4B1A7000F002FA2D4B1B78F0
:101748009AB218230293002301934FF4784300932D
:1017580001231E211E20FFF7EBFBFFE6254B1B781C
:10176800022B7FF4FBAE224B1B8B012B0CD12F4B92
:101778001B780133DAB22D4B1A702C4B1B78022BD5
:1017880002D92A4B00221A70194BDB88012B67D12A
:10179800264B1B78002B12D1194B1B785A1C244B53
:1017A80083FB021313445911D317C91A0B461B01A3
:1017B8005B1A9B00D11ACAB2114B1A7050E01B4B2E
:1017C8001B78012B36D1104B1B785A1C184B83FB06
:1017D800021313445911D317C91A0B461B015B1A7C
:1017E8009B00D11ACAB2084B1A7039E04400002095
:1017F800500000203C0000203D0000207000002028
:1018080041000020720000204300002075000020E5
:10181800420000201C6000087800002074000020AE
:101828007300002076000020710000203F00002097
:1018380089888888134B1B78022B11D1124B1B788F
:101848005A1C124B83FB021313445911D317C91A9C
:101858000B461B015B1A9B00D11ACAB20A4B1A70BD
:1018680000F03AFB0A4B1B789AB218230293002324
:1018780001934FF47843009301231E211E20FFF7A4
:1018880057FB6BE63F0000204200002089888888CB
:101898003C00002080B594B000AF07F1200330224F
:1018A8000021184604F0A2FB07F10C0300221A607D
:1018B8005A609A60DA601A610023BB60284B1B6C7F
:1018C800274A43F080531364254B1B6C03F0805365
:1018D800BB60BB6800237B60224B1B68214A43F432
:1018E800804313601F4B1B6803F480437B607B6855
:1018F80002233B620123FB6210233B630223BB6389
:101908000023FB6308233B64A8237B640223BB6496
:101918000423FB6407F12003184602F089FB034601
:10192800002B01D000F080FC0F23FB6002233B61F9
:1019380000237B614FF4A053BB614FF4A053FB61BC
:1019480007F10C030521184602F0EAFD0346002BB7
:1019580001D000F069FC00BF5037BD4680BD00BF14
:10196800003802400070004080B500AF00222021FE
:101978000F4801F0F1F9002240210D4801F0ECF97F
:10198800002210210A4801F0E7F900F053FCFFF7A4
:1019980035FDFEF791FDFFF76DFBFEF705FE3220E2
:1019A80000F052FCFA2000F06BFC00BF80BD00BFC5
:1019B8000010024080B500AF194B19221A70184B5D
:1019C8000B225A70164B05229A70154B0422DA70B6
:1019D800134B09221A71124B0A225A71104B0B220F
:1019E8009A7119210620FEF723FE0B210520FEF728
:1019F8001FFE05210420FEF71BFE04210320FEF72D
:101A080017FE09210220FEF713FE0A210120FEF726
:101A18000FFE0B210020FEF70BFE00BF80BD00BFAC
:101A28007800002080B584B004AF3D4B1B789AB293
:101A380018230293002301934FF4FC6300930223BD
:101A480064214620FFF774FA364B1B789AB21823A4
:101A58000293002301934FF4FC6300930223642153
:101A68006E20FFF765FA304B1B789AB21823029361
:101A7800002301934FF4FC63009302236421962012
:101A8800FFF756FA294B1B789AB2182302930023C2
:101A980001934FF6E0730093022382211420FFF78D
:101AA80047FA234B1B789AB2182302930023019319
:101AB8004FF6E0730093022382214620FFF738FA9D
:101AC8001C4B1B789AB218230293002301934FF6FC
:101AD800E0730093022382216E20FFF729FA164B48
:101AE8001B789AB218230293002301934FF6E073F0
:101AF8000093022382219620FFF71AFA0F4B1B78D6
:101B08009AB218230293002301934FF47843009369
:101B180001231E211E20FFF70BFA00BFBD4680BD22
:101B28007500002072000020700000207400002062
:101B38007300002076000020710000203C00002087
:101B480080B584B004AFA74B1B88002B00F0B98187
:101B5800A44B00221A80A44B1B78002B28D1A34B3E
:101B68001B78002B12D1A14B01221A70A04B1B78B5
:101B78009AB218230293002301934FF4FC63009355
:101B8800022364219620FFF7D3F920E0974B002227
:101B98001A70974B1B789AB218230293002301936B
:101BA80000230093022364219620FFF7C1F90EE079
:101BB8008F4B1B789AB218230293002301934FF49A
:101BC800FC630093022364219620FFF7B1F9864B4A
:101BD8001B78012B28D1854B1B78002B12D1834B06
:101BE80001221A70834B1B789AB2182302930023A0
:101BF80001934FF4FC630093022364216E20FFF7E6
:101C080097F920E0794B00221A707A4B1B789AB228
:101C180018230293002301930023009302236421D5
:101C28006E20FFF785F90EE0724B1B789AB21823E5
:101C38000293002301934FF4FC6300930223642171
:101C48006E20FFF775F9684B1B78022B28D1674B7C
:101C58001B78002B12D1654B01221A70664B1B783A
:101C68009AB218230293002301934FF4FC63009364
:101C7800022364214620FFF75BF920E05B4B00223A
:101C88001A705D4B1B789AB21823029300230193B4
:101C980000230093022364214620FFF749F90EE050
:101CA800554B1B789AB218230293002301934FF4E3
:101CB800FC630093022364214620FFF739F94A4B5D
:101CC8001B78032B28D1494B1B78002B12D1474B8B
:101CD80001221A70494B1B789AB2182302930023E9
:101CE80001934FF6E0730093022382211420FFF73B
:101CF8001FF920E03D4B00221A70404B1B789AB226
:101D080018230293002301930023009302238221C6
:101D18001420FFF70DF90EE0384B1B789AB2182300
:101D28000293002301934FF6E0730093022382216C
:101D38001420FFF7FDF82C4B1B78042B28D12B4BD4
:101D48001B78002B12D1294B01221A702C4B1B78BF
:101D58009AB218230293002301934FF6E07300937D
:101D6800022382214620FFF7E3F820E01F4B0022E0
:101D78001A70234B1B789AB21823029300230193FD
:101D880000230093022382214620FFF7D1F80EE0BA
:101D98001B4B1B789AB218230293002301934FF62A
:101DA800E0730093022382214620FFF7C1F80E4B0F
:101DB8001B78052B3AD10D4B1B78002B24D10B4BEC
:101DC80001221A700F4B1B789AB218230293002332
:101DD80001934FF6E0730093022382216E20FFF7F0
:101DE800A7F832E04A0000203D0000203E00002015
:101DF8007000002072000020750000207400002090
:101E080073000020760000202F4B00221A702F4B01
:101E18001B789AB21823029300230193002300939E
:101E2800022382216E20FFF783F80EE0274B1B78F0
:101E38009AB218230293002301934FF6E07300939C
:101E4800022382216E20FFF773F8214B1B78062BA3
:101E580028D11D4B1B78002B12D11B4B01221A7065
:101E68001C4B1B789AB218230293002301934FF658
:101E7800E0730093022382219620FFF759F820E0AF
:101E8800114B00221A70134B1B789AB21823029335
:101E98000023019300230093022382219620FFF759
:101EA80047F80EE00B4B1B789AB2182302930023D5
:101EB80001934FF6E0730093022382219620FFF7E7
:101EC80037F800BFBD4680BD3E00002076000020E8
:101ED8003D0000207100002080B584B004AFA94BFC
:101EE8001B88002B00F09681A64B00221A80A64B77
:101EF8001B789AB218230293002301934FF4FC63D2
:101F08000093022364214620FFF712F89F4B1B78A9
:101F18009AB218230293002301934FF4FC630093B1
:101F2800022364216E20FFF703F8994B1B789AB2BD
:101F380018230293002301934FF4FC6300930223B8
:101F480064219620FEF7F4FF924B1B789AB218236F
:101F58000293002301934FF6E0730093022382213A
:101F68001420FEF7E5FF8C4B1B789AB218230293D6
:101F7800002301934FF6E073009302238221462049
:101F8800FEF7D6FF854B1B789AB2182302930023DD
:101F980001934FF6E0730093022382216E20FEF72F
:101FA800C7FF7F4B1B789AB2182302930023019333
:101FB8004FF6E0730093022382219620FEF7B8FFC4
:101FC800784B1B78022B00F09680022B00F3F480EC
:101FD800002B02D0012B47D0EEE0734B1B78002B6F
:101FE80012D1714B01221A70704B1B789AB21823C8
:101FF8000293002301934FF6E07300930223A0217C
:102008009620FEF795FF10E0674B00221A70674B89
:102018001B789AB21823029300230193002300939C
:102028000223A0219620FEF783FF614B1B789AB20A
:1020380018230293002301934FF6E07300930223C1
:10204800A0214620FEF774FF5A4B1B789AB218233A
:102058000293002301934FF6E07300930223A0211B
:102068006E20FEF765FFD6E04F4B1B78002B12D190
:102078004D4B01221A704F4B1B789AB218230293CA
:10208800002301934FF6E07300930223A0216E20F2
:10209800FEF74EFF10E0444B00221A70454B1B78A8
:1020A8009AB218230293002301930023009302237A
:1020B800A0216E20FEF73CFF3D4B1B789AB21823F7
:1020C8000293002301934FF6E07300930223A021AB
:1020D8004620FEF72DFF354B1B789AB21823029342
:1020E800002301934FF6E07300930223A02196206A
:1020F800FEF71EFF8FE02C4B1B78002B12D12A4BCA
:1021080001221A702A4B1B789AB2182302930023D3
:1021180001934FF6E07300930223A0214620FEF7B7
:1021280007FF10E0204B00221A70214B1B789AB24F
:102138001823029300230193002300930223A02174
:102148004620FEF7F5FE1B4B1B789AB21823029324
:10215800002301934FF6E07300930223A0216E2021
:10216800FEF7E6FE114B1B789AB218230293002360
:1021780001934FF6E07300930223A0219620FEF707
:10218800D7FE48E04A0000207500002072000020B9
:1021980070000020740000207300002076000020EA
:1021A800710000203F000020400000204100002076
:1021B8004200002043000020184B1B789AB21823D5
:1021C8000293002301934FF6E07300930223A021AA
:1021D8004620FEF7ADFE124B1B789AB218230293E5
:1021E800002301934FF6E07300930223A0216E2091
:1021F800FEF79EFE0B4B1B789AB21823029300231E
:1022080001934FF6E07300930223A0219620FEF776
:102218008FFE00E000BF00BFBD4680BD4200002029
:10222800430000204100002080B400AF72B600BF18
:10223800FEE7000080B500AF024803F0C3F900BF15
:1022480080BD00BFB801002080B483B000AF034652
:10225800FB80084AFB881380064B1A88064B1A80B5
:10226800064B00221A8000BF0C37BD465DF8047B80
:10227800704700BF480000204600002044000020AE
:1022880080B483B000AF0346FB80084AFB88138004
:10229800064B1A88064B1A80064B00221A8000BF8C
:1022A8000C37BD465DF8047B704700BF4E00002028
:1022B8004C0000204A00002080B582B000AF786052
:1022C8007B681B68B3F1804F2BD1184B1B88002B00
:1022D80010D0164B1B88013B9AB2144B1A80134B33
:1022E8001B88002B06D1124B01221A80114B1A8829
:1022F8000E4B1A80104B1B88002B10D00E4B1B88DE
:10230800013B9AB20C4B1A800B4B1B88002B06D151
:102318000A4B01221A800A4B1A88074B1A80FFF7CA
:1023280079F800BF0837BD4680BD00BF46000020D1
:1023380044000020480000204C0000204A000020F3
:102348004E00002080B500AF174B184A1A60164B94
:102358004FF482725A60144B00229A60124B00228A
:10236800DA60114B00221A610F4B00225A610E4BA2
:102378004FF400729A610C4B0022DA610A4B00227A
:102388001A62094B00225A62074B00229A62064BD6
:102398000A22DA62044802F0ABFA0346002B01D0A5
:1023A800FFF742FF00BF80BD600100200030014000
:1023B80080B58AB000AF786007F1140300221A6074
:1023C8005A609A60DA601A617B681B68194A9342FE
:1023D8002BD100233B61184B5B6C174A43F48053A5
:1023E8005364154B5B6C03F480533B613B690023DA
:1023F800FB60114B1B6B104A43F0020313630E4B37
:102408001B6B03F00203FB60FB6838237B6102232C
:10241800BB610023FB6103233B6205237B6207F159
:1024280014031946054800F0FBFA00BF2837BD46DB
:1024380080BD00BF00300140003802400004024067
:1024480080B483B000AF00237B60104B5B6C0F4AF5
:1024580043F4804353640D4B5B6C03F480437B600F
:102468007B6800233B60094B1B6C084A43F0805390
:102478001364064B1B6C03F080533B603B6800BF42
:102488000C37BD465DF8047B704700BF003802403A
:1024980080B400AFFEE780B400AFFEE780B400AFC1
:1024A800FEE780B400AFFEE780B400AFFEE780B47B
:1024B80000AF00BFBD465DF8047B704780B400AF35
:1024C80000BFBD465DF8047B704780B400AF00BF15
:1024D800BD465DF8047B704780B500AF00F04AF94F
:1024E80000BF80BD80B500AF024803F0DBF800BF35
:1024F80080BD00BFB801002080B400AF064BD3F800
:102508008830054A43F47003C2F8883000BFBD46DE
:102518005DF8047B704700BF00ED00E080B586B031
:1025280000AF07F1080300221A605A609A60DA6067
:102538003B4600221A605A601D4B4FF080421A60D9
:102548001B4B40F247325A60194B00229A60184BD5
:102558006322DA60164B00221A61154B00229A6139
:10256800134802F0DFFF0346002B01D0FFF75CFEA3
:102578004FF48053BB6007F1080319460C4803F079
:1025880081F90346002B01D0FFF74EFE00233B6084
:1025980000237B603B461946054803F0A3FB03462E
:1025A800002B01D0FFF740FE00BF1837BD4680BDA5
:1025B800B801002080B584B000AF78607B681B68E4
:1025C800B3F1804F15D10023FB600C4B1B6C0B4AF9
:1025D80043F001031364094B1B6C03F00103FB6018
:1025E800FB68002200211C2000F0E3F91C2000F009
:1025F800FCF900BF1037BD4680BD00BF003802405F
:1026080080B483B000AF0346FB71FB791B09DBB2D2
:102618001A46920013445B00DAB2FB7903F00F0309
:10262800DBB21344DBB218460C37BD465DF8047BB9
:102638007047000080B483B000AF0346FB71FB799C
:102648000D4AA2FB0323DB08DBB21B0158B2FA795F
:10265800094BA3FB0213D9080B469B000B445B00F4
:10266800D31ADBB25BB203435BB2DBB218460C375A
:10267800BD465DF8047B7047CDCCCCCCDFF834D0B8
:102688000D480E490E4A002302E0D458C4500433C2
:10269800C4188C42F9D30B4A0B4C002301E0136099
:1026A8000432A242FBD3FFF727FF03F07BFCFEF7BF
:1026B8003DFF7047000002200000002014000020A9
:1026C800D08F00081400002004020020FEE700005C
:1026D80080B500AF0E4B1B680D4A43F400731360BE
:1026E8000B4B1B680A4A43F480631360084B1B6852
:1026F800074A43F480731360032000F04FF90F205A
:1027080000F008F8FFF79CFE0023184680BD00BFC4
:10271800003C024080B582B000AF7860124B1A6866
:10272800124B1B7819464FF47A73B3FBF1F3B2FBE3
:10273800F3F3184600F067F90346002B01D0012394
:102748000EE07B680F2B0AD8002279684FF0FF3023
:1027580000F02FF9064A7B681360002300E001238C
:1027680018460837BD4680BD08000020100000202C
:102778000C00002080B400AF064B1B781A46064BAD
:102788001B681344044A136000BFBD465DF8047B10
:10279800704700BF100000200002002080B400AF86
:1027A800034B1B681846BD465DF8047B704700BFA5
:1027B8000002002080B584B000AF7860FFF7EEFF1C
:1027C800B8607B68FB60FB68B3F1FF3F05D00A4B3C
:1027D8001B781A46FB681344FB6000BFFFF7DEFF57
:1027E8000246BB68D31AFA689A42F7D800BF00BFFE
:1027F8001037BD4680BD00BF1000002080B485B0F2
:1028080000AF78607B6803F00703FB600C4BDB6864
:10281800BB60BA684FF6FF031340BB60FB681A023F
:10282800BB68134343F0BF6343F40033BB60044AFF
:10283800BB68D36000BF1437BD465DF8047B7047A2
:1028480000ED00E080B400AF044BDB681B0A03F026
:1028580007031846BD465DF8047B704700ED00E0AD
:1028680080B483B000AF0346FB7197F90730002BA3
:102878000BDBFB7903F01F02074997F907305B0967
:10288800012000FA02F241F8232000BF0C37BD46B0
:102898005DF8047B704700BF00E100E080B483B0BE
:1028A80000AF03463960FB7197F90730002B0ADB4C
:1028B8003B68DAB20C4997F907301201D2B20B44DF
:1028C80083F800230AE03B68DAB20849FB7903F091
:1028D8000F03043B1201D2B20B441A7600BF0C3727
:1028E800BD465DF8047B704700E100E000ED00E0C4
:1028F80080B489B000AFF860B9607A60FB6803F013
:102908000703FB61FB69C3F10703042B28BF0423FA
:10291800BB61FB690433062B02D9FB69033B00E06A
:1029280000237B614FF0FF32BB6902FA03F3DA43FD
:10293800BB681A407B699A404FF0FF317B6901FA06
:1029480003F3D9437B680B40134318462437BD462D
:102958005DF8047B7047000080B582B000AF7860F6
:102968007B68013BB3F1807F01D301230FE00A4A62
:102978007B68013B53600F214FF0FF30FFF78EFF5C
:10298800054B00229A60044B07221A600023184660
:102998000837BD4680BD00BF10E000E080B582B0BA
:1029A80000AF78607868FFF729FF00BF0837BD4699
:1029B80080BD80B586B000AF0346B9607A60FB730E
:1029C80000237B61FFF73EFF78617A68B968786910
:1029D800FFF78EFF024697F90F3011461846FFF7AA
:1029E8005DFF00BF1837BD4680BD80B582B000AF1F
:1029F8000346FB7197F907301846FFF731FF00BF10
:102A08000837BD4680BD80B582B000AF7860786871
:102A1800FFF7A2FF034618460837BD4680BD0000F1
:102A280080B489B000AF7860396000237B610023EF
:102A38003B610023BB610023FB616BE10122FB6961
:102A480002FA03F37B613B681B687A6913403B61B8
:102A58003A697B699A4240F05A813B685B6803F0A7
:102A68000303012B05D03B685B6803F00303022BCB
:102A780030D17B689B68BB61FB695B00032202FA6B
:102A880003F3DB43BA691340BB613B68DA68FB694F
:102A98005B0002FA03F3BA691343BB617B68BA6946
:102AA8009A607B685B68BB610122FB6902FA03F3E9
:102AB800DB43BA691340BB613B685B681B0903F0E1
:102AC8000102FB6902FA03F3BA691343BB617B682D
:102AD800BA695A603B685B6803F00303032B17D09D
:102AE8007B68DB68BB61FB695B00032202FA03F3C6
:102AF800DB43BA691340BB613B689A68FB695B00BA
:102B080002FA03F3BA691343BB617B68BA69DA60F6
:102B18003B685B6803F00303022B23D1FB69DA08E7
:102B28007B68083253F82230BB61FB6903F0070366
:102B38009B000F2202FA03F3DB43BA691340BB611F
:102B48003B681A69FB6903F007039B0002FA03F369
:102B5800BA691343BB61FB69DA087B680832B96953
:102B680043F822107B681B68BB61FB695B0003228A
:102B780002FA03F3DB43BA691340BB613B685B6845
:102B880003F00302FB695B0002FA03F3BA6913431B
:102B9800BB617B68BA691A603B685B6803F44033C1
:102BA800002B00F0B4800023FB60604B5B6C5F4A35
:102BB80043F4804353645D4B5B6C03F48043FB60D8
:102BC800FB685B4AFB699B08023352F82330BB6100
:102BD800FB6903F003039B000F2202FA03F3DB43B4
:102BE800BA691340BB617B68524A93422BD07B6819
:102BF800514A934225D07B68504A93421FD07B6844
:102C08004F4A934219D07B684E4A934213D07B684F
:102C18004D4A93420DD07B684C4A934207D07B685B
:102C28004B4A934201D107230EE008230CE0062308
:102C38000AE0052308E0042306E0032304E0022356
:102C480002E0012300E00023FA6902F00302920087
:102C58009340BA691343BB613549FB699B0802334A
:102C6800BA6941F823203B4B9B68BB613B69DB4356
:102C7800BA691340BB613B685B6803F48013002B9F
:102C880003D0BA693B691343BB61324ABB6993609D
:102C9800304BDB68BB613B69DB43BA691340BB61FE
:102CA8003B685B6803F40013002B03D0BA693B69E7
:102CB8001343BB61274ABB69D360264B5B68BB6182
:102CC8003B69DB43BA691340BB613B685B6803F44B
:102CD8000033002B03D0BA693B691343BB611D4A1B
:102CE800BB6953601B4B1B68BB613B69DB43BA691B
:102CF8001340BB613B685B6803F48033002B03D04F
:102D0800BA693B691343BB61124ABB691360FB692B
:102D18000133FB61FB690F2B7FF690AE00BF00BF4C
:102D28002437BD465DF8047B704700BF0038024079
:102D38000038014000000240000402400008024040
:102D4800000C02400010024000140240001802402B
:102D5800001C0240003C014080B483B000AF7860A2
:102D68000B467B8013467B707B78002B03D07A88D8
:102D78007B689A6103E07B881A047B689A6100BFCC
:102D88000C37BD465DF8047B7047000080B584B001
:102D980000AF78607B68002B01D101232BE17B68B1
:102DA80093F83D30DBB2002B06D17B68002283F814
:102DB8003C207868FDF7B8FE7B68242283F83D2024
:102DC8007B681B681A687B681B6822F001021A601E
:102DD8007B681B681A687B681B6842F400421A60AB
:102DE8007B681B681A687B681B6822F400421A60BB
:102DF80001F06AFDF8607B685B68814A934207D8F6
:102E0800FB68804A934294BF01230023DBB206E0AB
:102E1800FB687D4A934294BF01230023DBB2002B59
:102E280001D00123E7E0FB68784AA2FB03239B0C4F
:102E3800BB607B681B685B6823F03F017B681B688D
:102E4800BA680A435A607B681B681B6A23F03F0113
:102E58007B685B686A4A934202D8BB68013309E021
:102E6800BB684FF4967202FB03F3694AA2FB032383
:102E78009B0901337A6812680B4313627B681B68ED
:102E8800DB6923F44F4222F0FF027B685B685C49F0
:102E98008B4219D8FB68591E7B685B685B00B1FBE5
:102EA800F3F3591C40F6FC730B40002B0AD0FB6867
:102EB800591E7B685B685B00B1FBF3F30133C3F316
:102EC8000B0351E004234FE07B689B68002B11D172
:102ED800FB68581E7B6859680B465B000B44B0FBC7
:102EE800F3F30133C3F30B03002B0CBF01230023BF
:102EF800DBB212E0FB68581E7B6859680B469B00E2
:102F08000B4499000B44B0FBF3F30133C3F30B03F9
:102F1800002B0CBF01230023DBB2002B01D00123BF
:102F280022E07B689B68002B0ED1FB68581E7B68EB
:102F380059680B465B000B44B0FBF3F30133C3F352
:102F48000B0343F400430FE0FB68581E7B68596885
:102F58000B469B000B4499000B44B0FBF3F3013381
:102F6800C3F30B0343F44043796809681343CB6107
:102F78007B681B681B6823F0C0017B68DA697B6883
:102F88001B6A1A437B681B680A431A607B681B68C4
:102F98009B6823F4034323F0FF037A6811697A6876
:102FA800D26811437A6812680B4393607B681B6888
:102FB800DB6823F0FF017B685A697B689B691A43C9
:102FC8007B681B680A43DA607B681B681A687B6841
:102FD8001B6842F001021A607B6800221A647B6851
:102FE800202283F83D207B6800221A637B68002238
:102FF80083F83E20002318461037BD4680BD00BF29
:10300800A08601007F841E00FF083D0083DE1B436D
:10301800D34D621080B588B002AFF86008461146FB
:103028001A4603467B810B463B811346FB80FFF71C
:10303800B5FB7861FB6893F83D30DBB2202B40F09C
:10304800D9807B690093192301226D49F86800F043
:10305800B9FD0346002B01D00223CCE0FB6893F8AE
:103068003C30012B01D10223C5E0FB68012283F823
:103078003C20FB681B681B6803F00103012B07D089
:10308800FB681B681A68FB681B6842F001021A603B
:10309800FB681B681A68FB681B6822F400621A60E8
:1030A800FB68212283F83D20FB68402283F83E20FC
:1030B800FB6800221A64FB683A6A5A62FB68BA8C99
:1030C8005A85FB685B8D9AB2FB681A85FB684D4A86
:1030D800DA62F8883A8979897B690193BB6A009337
:1030E8000346F86800F0F0FB0346002B52D001239A
:1030F80081E07A69B96AF86800F07EFE0346002B21
:103108000DD0FB681B6C042B07D1FB681B681A6881
:10311800FB681B6842F400721A6001236BE0FB68CD
:103128005B6A1A78FB681B681A61FB685B6A5A1C41
:10313800FB685A62FB681B8D013B9AB2FB681A85D3
:10314800FB685B8D9BB2013B9AB2FB685A85FB68B2
:103158001B685B6903F00403042B1BD1FB681B8D00
:10316800002B17D0FB685B6A1A78FB681B681A612A
:10317800FB685B6A5A1CFB685A62FB681B8D013B43
:103188009AB2FB681A85FB685B8D9BB2013B9AB2C9
:10319800FB685A85FB681B8D002BAAD17A69B96A2E
:1031A800F86800F071FE0346002B0DD0FB681B6C1D
:1031B800042B07D1FB681B681A68FB681B6842F47C
:1031C80000721A60012316E0FB681B681A68FB6826
:1031D8001B6842F400721A60FB68202283F83D20C5
:1031E800FB68002283F83E20FB68002283F83C201D
:1031F800002300E0022318461837BD4680BD00BFF3
:10320800020010000000FFFF80B58CB002AFF8602C
:10321800084611461A4603467B810B463B811346F6
:10322800FB80FFF7BBFA7862FB6893F83D30DBB2AE
:10323800202B40F014827B6A0093192301227B49DA
:10324800F86800F0BFFC0346002B01D0022307E218
:10325800FB6893F83C30012B01D1022300E2FB68A4
:10326800012283F83C20FB681B681B6803F00103FC
:10327800012B07D0FB681B681A68FB681B6842F0C3
:1032880001021A60FB681B681A68FB681B6822F455
:1032980000621A60FB68222283F83D20FB68402206
:1032A80083F83E20FB6800221A64FB683A6B5A6276
:1032B800FB68BA8E5A85FB685B8D9AB2FB681A85E3
:1032C800FB685B4ADA62F8883A8979897B6A0193F4
:1032D800BB6B00930346F86800F08CFB0346002B99
:1032E80001D00123BCE1FB681B8D002B13D1002307
:1032F8003B62FB681B685B693B62FB681B689B69F8
:103308003B623B6AFB681B681A68FB681B6842F4EF
:1033180000721A6090E1FB681B8D012B1BD1FB68C2
:103328001B681A68FB681B6822F480621A60002315
:10333800FB61FB681B685B69FB61FB681B689B6939
:10334800FB61FB69FB681B681A68FB681B6842F431
:1033580000721A6070E1FB681B8D022B1BD1FB68A1
:103368001B681A68FB681B6822F480621A60FB6895
:103378001B681A68FB681B6842F400621A60002325
:10338800BB61FB681B685B69BB61FB681B689B6969
:10339800BB61BB6950E100237B61FB681B685B690B
:1033A8007B61FB681B689B697B617B6944E1FB6807
:1033B8001B8D032B00F2F180FB681B8D012B23D1A1
:1033C8007A6AB96BF86800F0A7FD0346002B01D0B4
:1033D800012345E1FB681B681A69FB685B6AD2B286
:1033E8001A70FB685B6A5A1CFB685A62FB681B8D83
:1033F800013B9AB2FB681A85FB685B8D9BB2013B67
:103408009AB2FB685A8517E1FB681B8D022B4ED1D7
:103418007B6A0093BB6B00220649F86800F0D2FB78
:103428000346002B08D001231AE100BF0200100058
:103438000000FFFF04000100FB681B681A68FB68B6
:103448001B6842F400721A60FB681B681A69FB6803
:103458005B6AD2B21A70FB685B6A5A1CFB685A62D4
:10346800FB681B8D013B9AB2FB681A85FB685B8D74
:103478009BB2013B9AB2FB685A85FB681B681A69C4
:10348800FB685B6AD2B21A70FB685B6A5A1CFB68FD
:103498005A62FB681B8D013B9AB2FB681A85FB6870
:1034A8005B8D9BB2013B9AB2FB685A85C4E07B6A8C
:1034B8000093BB6B00226C49F86800F083FB03465D
:1034C800002B01D00123CBE0FB681B681A68FB685E
:1034D8001B6822F480621A60FB681B681A69FB6823
:1034E8005B6AD2B21A70FB685B6A5A1CFB685A6244
:1034F800FB681B8D013B9AB2FB681A85FB685B8DE4
:103508009BB2013B9AB2FB685A857B6A0093BB6BFE
:1035180000225549F86800F055FB0346002B01D0FE
:1035280001239DE0FB681B681A68FB681B6842F46E
:1035380000721A60FB681B681A69FB685B6AD2B282
:103548001A70FB685B6A5A1CFB685A62FB681B8D21
:10355800013B9AB2FB681A85FB685B8D9BB2013B05
:103568009AB2FB685A85FB681B681A69FB685B6A34
:10357800D2B21A70FB685B6A5A1CFB685A62FB6815
:103588001B8D013B9AB2FB681A85FB685B8D9BB269
:10359800013B9AB2FB685A854EE07A6AB96BF868C3
:1035A80000F0BAFC0346002B01D0012358E0FB6869
:1035B8001B681A69FB685B6AD2B21A70FB685B6A9F
:1035C8005A1CFB685A62FB681B8D013B9AB2FB6868
:1035D8001A85FB685B8D9BB2013B9AB2FB685A85E2
:1035E800FB681B685B6903F00403042B24D1FB68A8
:1035F8001B8D032B07D1FB681B681A68FB681B68C7
:1036080022F480621A60FB681B681A69FB685B6AAF
:10361800D2B21A70FB685B6A5A1CFB685A62FB6874
:103628001B8D013B9AB2FB681A85FB685B8D9BB2C8
:10363800013B9AB2FB685A85FB681B8D002B7FF40F
:10364800B6AEFB68202283F83D20FB68002283F891
:103658003E20FB68002283F83C20002300E0022380
:1036680018462837BD4680BD0400010080B58AB0E1
:1036780002AFF8607A603B600B467B81FFF78EF8FB
:10368800F8610023BB61FB6893F83D30DBB2202B67
:1036980040F01181FB690093192301228849F868D9
:1036A80000F090FA0346002B01D0022304E1FB68E6
:1036B80093F83C30012B01D10223FDE0FB68012285
:1036C80083F83C20FB681B681B6803F00103012B8F
:1036D80007D0FB681B681A68FB681B6842F0010288
:1036E8001A60FB681B681A68FB681B6822F4006292
:1036F8001A60FB68242283F83D20FB6800221A64C4
:10370800FB68704ADA62FB681B681A68FB681B680A
:1037180042F480721A60FB6900933B6800224FF004
:103728000111F86800F04EFA0346002B0DD0FB6833
:103738001B681B6803F48073B3F5807F03D1FB68B3
:103748004FF400721A640323B6E07B89DBB21A4691
:10375800FB681B6802F0FE021A61FFF71FF8F861A8
:10376800FB681B685B6903F00203022B0CBF012393
:103778000023DBB2FB75FB681B685B6903F480639D
:10378800B3F5806F0CBF01230023DBB2BB7525E0C6
:10379800FFF704F80246FB69D31A3A689A4202D343
:1037A8003B68002B03D1FB68A02283F83D20FB680F
:1037B8001B685B6903F00203022B0CBF0123002383
:1037C800DBB2FB75FB681B685B6903F48063B3F5C8
:1037D800806F0CBF01230023DBB2BB75FB6893F835
:1037E8003D30DBB2A02B05D0FB7D002B02D1BB7D89
:1037F800002BCDD0FB68202283F83D20FB681B6896
:103808005B6903F00203022B29D1FB681B681A6865
:10381800FB681B6842F400721A6000233B61FB6876
:103828001B685B693B61FB681B689B693B613B6983
:10383800FB690093192301222149F86800F0C2F9B5
:103848000346002B01D0012336E0FB68202283F8D1
:103858003D20FB68002283F83C2000232CE0FB6815
:103868001B681A68FB681B6842F400721A60FB68E0
:103878001B686FF480625A61FB6900931923012267
:103888000F49F86800F09EF90346002B01D0012388
:1038980012E0BB690133BB61BA697B689A42FFF4E5
:1038A80032AFFB68202283F83D20FB68002283F8B2
:1038B8003C20012300E0022318462037BD4680BD86
:1038C800020010000000FFFF80B588B002AFF8606A
:1038D800084611461A4603467B810B463B81134630
:1038E800FB80FB681B681A68FB681B6842F48072DF
:1038F8001A607B6A00933B6A00224FF00111F86856
:1039080000F060F90346002B0DD0FB681B681B68AC
:1039180003F48073B3F5807F03D1FB684FF4007222
:103928001A6403235FE07B89DBB21A46FB681B68D5
:1039380002F0FE021A617B6A3A6A2D49F86800F0C3
:10394800BBF90346002B01D001234CE000237B6127
:10395800FB681B685B697B61FB681B689B697B6113
:103968007B697A6A396AF86800F046FA0346002BE0
:103978000DD0FB681B6C042B07D1FB681B681A6809
:10398800FB681B6842F400721A6001232BE0FB8875
:10399800012B05D13B89DAB2FB681B681A6121E06B
:1039A8003B891B0A9BB2DAB2FB681B681A617A6A08
:1039B800396AF86800F020FA0346002B0DD0FB683E
:1039C8001B6C042B07D1FB681B681A68FB681B6813
:1039D80042F400721A60012305E03B89DAB2FB6801
:1039E8001B681A61002318461837BD4680BD00BF02
:1039F8000200010080B588B002AFF86008461146A1
:103A08001A4603467B810B463B811346FB80FB68C5
:103A18001B681A68FB681B6842F480621A60FB68BE
:103A28001B681A68FB681B6842F480721A607B6A1C
:103A380000933B6A00224FF00111F86800F0C2F8C9
:103A48000346002B0DD0FB681B681B6803F48073CA
:103A5800B3F5807F03D1FB684FF400721A64032327
:103A6800AAE07B89DBB21A46FB681B6802F0FE02FB
:103A78001A617B6A3A6A5249F86800F01DF90346F0
:103A8800002B01D0012397E000237B61FB681B68B2
:103A98005B697B61FB681B689B697B617B697A6AF0
:103AA800396AF86800F0A8F90346002B0DD0FB68C6
:103AB8001B6C042B07D1FB681B681A68FB681B6822
:103AC80042F400721A60012376E0FB88012B05D1CD
:103AD8003B89DAB2FB681B681A6121E03B891B0A43
:103AE8009BB2DAB2FB681B681A617A6A396AF868AD
:103AF80000F082F90346002B0DD0FB681B6C042BE9
:103B080007D1FB681B681A68FB681B6842F40072DF
:103B18001A60012350E03B89DAB2FB681B681A611E
:103B28007A6A396AF86800F067F90346002B0DD005
:103B3800FB681B6C042B07D1FB681B681A68FB68C1
:103B48001B6842F400721A60012335E0FB681B68A9
:103B58001A68FB681B6842F480721A607B6A0093DB
:103B68003B6A00224FF00111F86800F02BF8034679
:103B7800002B0DD0FB681B681B6803F48073B3F53A
:103B8800807F03D1FB684FF400721A64032313E0AB
:103B98007B89DBB243F00103DAB2FB681B681A6168
:103BA8007B6A3A6A0649F86800F086F80346002BF3
:103BB80001D0012300E0002318461837BD4680BD18
:103BC8000200010080B584B000AFF860B9603B60C6
:103BD8001346FB7148E03B68B3F1FF3F44D0FEF762
:103BE800DDFD0246BB69D31A3A689A4202D33B68A4
:103BF800002B39D1BB681B0CDBB2012B0DD1FB6844
:103C08001B685B69DA43BB6813409BB2002B0CBF8F
:103C180001230023DBB21A460CE0FB681B689B6992
:103C2800DA43BB6813409BB2002B0CBF012300236F
:103C3800DBB21A46FB799A4216D1FB6800221A6356
:103C4800FB68202283F83D20FB68002283F83E2091
:103C5800FB681B6C43F02002FB681A64FB680022B7
:103C680083F83C20012323E0BB681B0CDBB2012B4B
:103C78000DD1FB681B685B69DA43BB6813409BB2D4
:103C8800002B0CBF01230023DBB21A460CE0FB68B3
:103C98001B689B69DA43BB6813409BB2002B0CBFBF
:103CA80001230023DBB21A46FB799A4293D0002302
:103CB80018461037BD4680BD80B584B000AFF860A7
:103CC800B9607A603B6071E0FB681B685B6903F46C
:103CD8008063B3F5806F23D1FB681B681A68FB68A3
:103CE8001B6842F400721A60FB681B686FF48062FC
:103CF8005A61FB6800221A63FB68202283F83D2082
:103D0800FB68002283F83E20FB681B6C43F004022A
:103D1800FB681A64FB68002283F83C20012367E0F3
:103D28007B68B3F1FF3F41D0FEF738FD02463B68A0
:103D3800D31A7A689A4202D37B68002B36D1BB68C3
:103D48001B0CDBB2012B0CD1FB681B685B69DA43E7
:103D5800BB6813409BB2002B14BF01230023DBB2C6
:103D68000BE0FB681B689B69DA43BB6813409BB296
:103D7800002B14BF01230023DBB2002B16D0FB68F5
:103D880000221A63FB68202283F83D20FB6800228A
:103D980083F83E20FB681B6C43F02002FB681A6422
:103DA800FB68002283F83C20012321E0BB681B0C40
:103DB800DBB2012B0CD1FB681B685B69DA43BB687B
:103DC80013409BB2002B14BF01230023DBB20BE08E
:103DD800FB681B689B69DA43BB6813409BB2002BE6
:103DE80014BF01230023DBB2002B7FF46DAF002347
:103DF80018461037BD4680BD80B584B000AFF86066
:103E0800B9607A6034E0F86800F0E3F80346002B04
:103E180001D0012334E0BB68B3F1FF3F28D0FEF79F
:103E2800BDFC02467B68D31ABA689A4202D3BB68C3
:103E3800002B1DD1FB681B685B6903F08003802B96
:103E480016D0FB6800221A63FB68202283F83D2005
:103E5800FB68002283F83E20FB681B6C43F02002BD
:103E6800FB681A64FB68002283F83C20012307E002
:103E7800FB681B685B6903F08003802BC3D10023B8
:103E880018461037BD4680BD80B584B000AFF860D5
:103E9800B9607A6034E0F86800F09BF80346002BBC
:103EA80001D0012334E0BB68B3F1FF3F28D0FEF70F
:103EB80075FC02467B68D31ABA689A4202D3BB687B
:103EC800002B1DD1FB681B685B6903F00403042BFE
:103ED80016D0FB6800221A63FB68202283F83D2075
:103EE800FB68002283F83E20FB681B6C43F020022D
:103EF800FB681A64FB68002283F83C20012307E072
:103F0800FB681B685B6903F00403042BC3D100231F
:103F180018461037BD4680BD80B584B000AFF86044
:103F2800B9607A6049E0FB681B685B6903F01003BD
:103F3800102B19D1FB681B686FF010025A61FB68DF
:103F480000221A63FB68202283F83D20FB680022C8
:103F580083F83E20FB681A6CFB681A64FB68002231
:103F680083F83C20012330E0FEF718FC02467B680A
:103F7800D31ABA689A4202D3BB68002B1DD1FB68DA
:103F88001B685B6903F04003402B16D0FB680022D6
:103F98001A63FB68202283F83D20FB68002283F81F
:103FA8003E20FB681B6C43F02002FB681A64FB6828
:103FB800002283F83C20012307E0FB681B685B694B
:103FC80003F04003402BAED1002318461037BD46FE
:103FD80080BD80B483B000AF78607B681B685B6984
:103FE80003F48063B3F5806F1BD17B681B686FF4A3
:103FF80080625A617B6800221A637B68202283F8FA
:104008003D207B68002283F83E207B681B6C43F0D0
:1040180004027B681A647B68002283F83C20012331
:1040280000E0002318460C37BD465DF8047B704756
:1040380080B586B000AF78607B68002B01D1012382
:1040480064E27B681B6803F00103002B75D0A34B67
:104058009B6803F00C03042B0CD0A04B9B6803F067
:104068000C03082B12D19D4B5B6803F48003B3F556
:10407800800F0BD1994B1B6803F40033002B5BD0E6
:104088007B685B68002B57D101233FE27B685B6844
:10409800B3F5803F06D1914B1B68904A43F48033B7
:1040A80013601DE07B685B68B3F5A02F0CD18B4BC8
:1040B8001B688A4A43F480231360884B1B68874A2D
:1040C80043F4803313600BE0844B1B68834A23F46A
:1040D80080331360814B1B68804A23F4802313606C
:1040E8007B685B68002B13D0FEF758FB386108E04B
:1040F800FEF754FB02463B69D31A642B01D903230C
:1041080004E2764B1B6803F40033002BF0D014E074
:10411800FEF744FB386108E0FEF740FB02463B69C6
:10412800D31A642B01D90323F0E16C4B1B6803F409
:104138000033002BF0D100E000BF7B681B6803F060
:104148000203002B63D0654B9B6803F00C03002B24
:104158000BD0624B9B6803F00C03082B1CD15F4B00
:104168005B6803F48003002B16D15C4B1B6803F0DB
:104178000203002B05D07B68DB68012B01D00123EB
:10418800C4E1564B1B6823F0F8027B681B69DB000F
:10419800524913430B603AE07B68DB68002B20D060
:1041A8004F4B01221A60FEF7F9FA386108E0FEF772
:1041B800F5FA02463B69D31A022B01D90323A5E17C
:1041C800464B1B6803F00203002BF0D0434B1B68DF
:1041D80023F0F8027B681B69DB00404913430B603E
:1041E80015E03F4B00221A60FEF7D8FA386108E064
:1041F800FEF7D4FA02463B69D31A022B01D90323EE
:1042080084E1364B1B6803F00203002BF0D17B6876
:104218001B6803F00803002B30D07B685B69002B18
:1042280016D0304B01221A60FEF7B8FA386108E060
:10423800FEF7B4FA02463B69D31A022B01D90323CD
:1042480064E1264B5B6F03F00203002BF0D015E00E
:10425800244B00221A60FEF7A1FA386108E0FEF745
:104268009DFA02463B69D31A022B01D903234DE17B
:104278001A4B5B6F03F00203002BF0D17B681B68BD
:1042880003F00403002B00F0A0800023FB75134B00
:104298001B6C03F08053002B0FD10023BB600F4B26
:1042A8001B6C0E4A43F0805313640C4B1B6C03F0D9
:1042B8008053BB60BB680123FB750B4B1B6803F481
:1042C8008073002B21D1084B1B68074A43F4807385
:1042D8001360FEF763FA386111E000BF003802404E
:1042E80000004742800E474200700040FEF756FA31
:1042F80002463B69D31A022B01D9032306E1854BF9
:104308001B6803F48073002BF0D07B689B68012B3B
:1043180006D1814B1B6F804A43F0010313671CE0F1
:104328007B689B68052B0CD17B4B1B6F7A4A43F04B
:1043380004031367784B1B6F774A43F00103136735
:104348000BE0754B1B6F744A23F001031367724B24
:104358001B6F714A23F0040313677B689B68002B6B
:1043680015D0FEF71BFA38610AE0FEF717FA024685
:104378003B69D31A41F28832934201D90323C5E03D
:10438800654B1B6F03F00203002BEED014E0FEF721
:1043980005FA38610AE0FEF701FA02463B69D31ACA
:1043A80041F28832934201D90323AFE05A4B1B6F85
:1043B80003F00203002BEED1FB7D012B05D1564BF8
:1043C8001B6C554A23F0805313647B689B69002B50
:1043D80000F09B80504B9B6803F00C03082B5CD0CB
:1043E8007B689B69022B41D14C4B00221A60FEF777
:1043F800D5F9386108E0FEF7D1F902463B69D31ACE
:10440800022B01D9032381E0434B1B6803F000739F
:10441800002BF0D17B68DA697B681B6A1A437B68DA
:104428005B6A9B011A437B689B6A5B08013B1B0420
:104438001A437B68DB6A1B06374913434B60374BCB
:1044480001221A60FEF7AAF9386108E0FEF7A6F91A
:1044580002463B69D31A022B01D9032356E02E4B9F
:104468001B6803F00073002BF0D04EE02B4B0022AA
:104478001A60FEF793F9386108E0FEF78FF90246F3
:104488003B69D31A022B01D903233FE0224B1B6857
:1044980003F00073002BF0D137E07B689B69012B98
:1044A80001D1012332E01C4B5B68FB607B689B6990
:1044B800012B28D0FB6803F480027B68DB699A42F1
:1044C80021D1FB6803F03F027B681B6A9A421AD12C
:1044D800FA6847F6C07313407A68526A92019342A9
:1044E80011D1FB6803F440327B689B6A5B08013B8F
:1044F8001B049A4207D1FB6803F070627B68DB6A91
:104508001B069A4201D0012300E000231846183701
:10451800BD4680BD00700040003802406000474240
:1045280080B584B000AF786039607B68002B01D11A
:104538000123CCE0684B1B6803F007033A689A42F2
:104548000CD9654B3A68D2B21A70634B1B6803F0FA
:1045580007033A689A4201D00123B8E07B681B68D8
:1045680003F00203002B20D07B681B6803F00403D0
:10457800002B05D0594B9B68584A43F4E05393608D
:104588007B681B6803F00803002B05D0534B9B681E
:10459800524A43F460439360504B9B6823F0F00207
:1045A8007B689B684D4913438B607B681B6803F0ED
:1045B8000103002B44D07B685B68012B07D1474B74
:1045C8001B6803F40033002B19D101237FE07B68BB
:1045D8005B68022B03D07B685B68032B07D13F4BDA
:1045E8001B6803F00073002B09D101236FE03B4BDC
:1045F8001B6803F00203002B01D1012367E0374B4E
:104608009B6823F003027B685B68344913438B6023
:10461800FEF7C4F8F8600AE0FEF7C0F80246FB6847
:10462800D31A41F28832934201D903234FE02B4B2E
:104638009B6803F00C027B685B689B009A42EBD195
:10464800254B1B6803F007033A689A420CD2224BA9
:104658003A68D2B21A70204B1B6803F007033A6815
:104668009A4201D0012332E07B681B6803F00403FF
:10467800002B08D0194B9B6823F4E0527B68DB6859
:10468800164913438B607B681B6803F00803002BF3
:1046980009D0124B9B6823F460427B681B69DB00DE
:1046A8000E4913438B6000F021F802460B4B9B68C0
:1046B8001B0903F00F030A49CB5C22FA03F3094AEA
:1046C8001360094B1B681846FEF724F800231846A8
:1046D8001037BD4680BD00BF003C02400038024094
:1046E800A88F0008080000200C0000202DE9B04326
:1046F80084B000AF00237B600023FB6000233B6095
:104708000023BB60674B9B6803F00C03082B0DD09C
:10471800082B00F2BD80002B02D0042B03D0B7E099
:10472800614BBB60B7E0614BBB60B4E05D4B5B685D
:1047380003F03F037B605B4B5B6803F48003002B53
:104748004DD0584B5B689B091A464FF0000340F266
:10475800FF104FF0000102EA000803EA0109404691
:1047680049464FF000024FF000034B0143EAD06383
:10477800420110461946B0EB080061EB09014FF001
:1047880000024FF000038B0143EA90638201121A82
:1047980063EB01034FF000004FF00001D90041EA3C
:1047A8005271D00002460B4612EB080243EB090394
:1047B8004FF000004FF00001590241EAD251500277
:1047C80002460B46104619467B681A464FF000030E
:1047D800FBF7F6FC02460B461346FB604AE0314BFA
:1047E8005B689B091A464FF0000340F2FF104FF038
:1047F800000102EA000403EA0105204629464FF0B9
:1048080000024FF000034B0143EAD0634201104617
:104818001946001B61EB05014FF000024FF0000341
:104828008B0143EA90638201121A63EB01034FF094
:1048380000004FF00001D90041EA5271D000024651
:104848000B46121945EB03034FF000004FF000012F
:10485800990241EA9251900202460B4610461946C7
:104868007B681A464FF00003FBF7AAFC02460B468A
:104878001346FB600B4B5B681B0C03F0030301330F
:104888005B003B60FA683B68B2FBF3F3BB6002E095
:10489800054BBB6000BFBB6818461037BD46BDE876
:1048A800B08300BF003802400024F40000127A00F0
:1048B80080B400AF034B1B681846BD465DF8047B07
:1048C800704700BF0800002080B500AFFFF7F0FF79
:1048D8000246054B9B689B0A03F007030349CB5C20
:1048E80022FA03F3184680BD00380240B88F00084A
:1048F80080B582B000AF78607B68002B01D10123BE
:104908007BE07B685B6A002B08D17B685B68B3F54A
:10491800827F09D07B680022DA6105E07B6800228B
:104928001A617B6800225A617B6800229A627B6860
:1049380093F85130DBB2002B06D17B68002283F854
:1049480050207868FDF734FD7B68022283F85120F7
:104958007B681B681A687B681B6822F040021A6033
:104968007B685B6803F482727B689B6803F404438A
:104978001A437B68DB6803F400631A437B681B698E
:1049880003F002031A437B685B6903F001031A43CF
:104998007B689B6903F400731A437B68DB6903F047
:1049A80038031A437B681B6A03F0800342EA030159
:1049B8007B689B6A03F400527B681B680A431A6091
:1049C8007B689B691B0C03F004017B685B6A03F03E
:1049D80010027B681B680A435A607B681B68DA69A7
:1049E8007B681B6822F40062DA617B6800225A65E2
:1049F8007B68012283F85120002318460837BD46FA
:104A080080BD80B588B000AFF860B9603B601346E0
:104A1800FB80FDF7C3FEF861FB887B83FB6893F896
:104A28005130DBB2012B01D002232AE1BB68002BF5
:104A380002D0FB88002B01D1012322E1FB6893F807
:104A48005030012B01D102231BE1FB68012283F8BE
:104A58005020FB68032283F85120FB6800225A6526
:104A6800FB68BA681A63FB68FA889A86FB68FA8852
:104A7800DA86FB6800229A63FB6800229A87FB6843
:104A88000022DA87FB6800225A64FB6800221A6455
:104A9800FB689B68B3F5004F0FD1FB681B681A6869
:104AA800FB681B6822F040021A60FB681B681A68E2
:104AB800FB681B6842F480421A60FB681B681B682D
:104AC80003F04003402B07D0FB681B681A68FB689B
:104AD8001B6842F040021A60FB68DB68B3F5006FA0
:104AE80052D1FB685B68002B02D07B8B012B45D130
:104AF800FB681B6B1A88FB681B68DA60FB681B6B1A
:104B08009A1CFB681A63FB68DB8E9BB2013B9AB266
:104B1800FB68DA8632E0FB681B689B6803F00203D7
:104B2800022B12D1FB681B6B1A88FB681B68DA60C2
:104B3800FB681B6B9A1CFB681A63FB68DB8E9BB2D5
:104B4800013B9AB2FB68DA8618E0FDF727FE0246B9
:104B5800FB69D31A3A689A4203D83B68B3F1FF3F1E
:104B680002D13B68002B09D1FB68012283F8512050
:104B7800FB68002283F85020032382E0FB68DB8E69
:104B88009BB2002BC7D153E0FB685B68002B02D0B7
:104B98007B8B012B47D1FB681A6BFB681B680C33B6
:104BA80012781A70FB681B6B5A1CFB681A63FB6847
:104BB800DB8E9BB2013B9AB2FB68DA8633E0FB6876
:104BC8001B689B6803F00203022B13D1FB681A6B66
:104BD800FB681B680C3312781A70FB681B6B5A1C35
:104BE800FB681A63FB68DB8E9BB2013B9AB2FB68D9
:104BF800DA8618E0FDF7D2FD0246FB69D31A3A6857
:104C08009A4203D83B68B3F1FF3F02D13B68002BBF
:104C180009D1FB68012283F85120FB68002283F840
:104C2800502003232DE0FB68DB8E9BB2002BC6D1FE
:104C3800FA693968F86800F0D9FB0346002B02D0FE
:104C4800FB6820225A65FB689B68002B0AD1002369
:104C58007B61FB681B68DB687B61FB681B689B6882
:104C68007B617B69FB68012283F85120FB68002285
:104C780083F85020FB685B6D002B01D0012300E016
:104C8800002318462037BD4680BD80B588B002AFE6
:104C9800F860B9603B601346FB80FB6893F85130BD
:104CA800DBB2012B01D0022304E1BB68002B02D048
:104CB800FB88002B01D10123FCE0FB685B68B3F59E
:104CC800827F12D1FB689B68002B0ED1FB680422FF
:104CD80083F85120FA883B6800931346BA68B9688C
:104CE800F86800F0EBF80346E4E0FDF757FD78615B
:104CF800FB6893F85030012B01D10223DAE0FB68FE
:104D0800012283F85020FB68042283F85120FB68B5
:104D180000225A65FB68BA689A63FB68FA889A8722
:104D2800FB68FA88DA87FB6800221A63FB680022AE
:104D38009A86FB680022DA86FB6800221A64FB6800
:104D480000225A64FB689B68B3F5004F0FD1FB68DB
:104D58001B681A68FB681B6822F040021A60FB682F
:104D68001B681A68FB681B6822F480421A60FB689B
:104D78001B681B6803F04003402B07D0FB681B68C7
:104D88001A68FB681B6842F040021A60FB68DB681F
:104D9800002B70D135E0FB681B689B6803F00103AA
:104DA800012B15D1FB681B6803F10C02FB689B6B98
:104DB8001278D2B21A70FB689B6B5A1CFB689A6314
:104DC800FB68DB8F9BB2013B9AB2FB68DA8718E07D
:104DD800FDF7E4FC02467B69D31A3A689A4203D885
:104DE8003B68B3F1FF3F02D13B68002B09D1FB6858
:104DF800012283F85120FB68002283F85020032306
:104E080058E0FB68DB8F9BB2002BC4D138E0FB680D
:104E18001B689B6803F00103012B13D1FB681B6817
:104E2800DA68FB689B6B92B21A80FB689B6B9A1CD2
:104E3800FB689A63FB68DB8F9BB2013B9AB2FB6805
:104E4800DA8718E0FDF7AAFC02467B69D31A3A68AC
:104E58009A4203D83B68B3F1FF3F02D13B68002B6D
:104E680009D1FB68012283F85120FB68002283F8EE
:104E7800502003231EE0FB68DB8F9BB2002BC6D1BA
:104E88007A693968F86800F04BFA0346002B02D0BB
:104E9800FB6820225A65FB68012283F85120FB68D1
:104EA800002283F85020FB685B6D002B01D00123A2
:104EB80000E0002318461837BD4680BD80B58AB08B
:104EC80000AFF860B9607A607B8001237B62FDF7F0
:104ED80065FC3862FB6893F85130FB77FB685B68C8
:104EE800BB617B88FB82FB7F012B0CD0BB69B3F5D0
:104EF800827F06D1FB689B68002B02D1FB7F042BC5
:104F080001D002237FE1BB68002B05D07B68002B12
:104F180002D07B88002B01D1012374E1FB6893F850
:104F28005030012B01D102236DE1FB68012283F887
:104F38005020FB6893F85130DBB2042B03D0FB6898
:104F4800052283F85120FB6800225A65FB687A68BD
:104F58009A63FB687A88DA87FB687A889A87FB689D
:104F6800BA681A63FB687A88DA86FB687A889A8650
:104F7800FB6800221A64FB6800225A64FB681B68FD
:104F88001B6803F04003402B07D0FB681B681A68B6
:104F9800FB681B6842F040021A60FB68DB68B3F5E7
:104FA800006F7ED1FB685B68002B02D0FB8A012B67
:104FB8006CD1FB681B6B1A88FB681B68DA60FB689E
:104FC8001B6B9A1CFB681A63FB68DB8E9BB2013B68
:104FD8009AB2FB68DA8659E0FB681B689B6803F0A5
:104FE8000203022B1BD1FB68DB8E9BB2002B16D071
:104FF8007B6A012B13D1FB681B6B1A88FB681B6843
:10500800DA60FB681B6B9A1CFB681A63FB68DB8E13
:105018009BB2013B9AB2FB68DA8600237B62FB688D
:105028001B689B6803F00103012B19D1FB68DB8F18
:105038009BB2002B14D0FB681B68DA68FB689B6B7B
:1050480092B21A80FB689B6B9A1CFB689A63FB6898
:10505800DB8F9BB2013B9AB2FB68DA8701237B6244
:10506800FDF79CFB02463B6AD31A3A6B9A420DD86D
:105078003B6BB3F1FF3F09D0FB68012283F8512055
:10508800FB68002283F850200323BCE0FB68DB8E1A
:105098009BB2002BA0D1FB68DB8F9BB2002B9BD16E
:1050A80082E0FB685B68002B02D0FB8A012B71D180
:1050B800FB681A6BFB681B680C3312781A70FB6864
:1050C8001B6B5A1CFB681A63FB68DB8E9BB2013BA7
:1050D8009AB2FB68DA865DE0FB681B689B6803F0A0
:1050E8000203022B1CD1FB68DB8E9BB2002B17D06E
:1050F8007B6A012B14D1FB681A6BFB681B680C33A5
:1051080012781A70FB681B6B5A1CFB681A63FB68E1
:10511800DB8E9BB2013B9AB2FB68DA8600237B6286
:10512800FB681B689B6803F00103012B19D1FB681E
:10513800DB8F9BB2002B14D0FB681B68DA68FB6816
:105148009B6BD2B21A70FB689B6B5A1CFB689A6304
:10515800FB68DB8F9BB2013B9AB2FB68DA870123BD
:105168007B62FDF71BFB02463B6AD31A3A6B9A42F5
:1051780003D83B6BB3F1FF3F02D13B6B002B09D146
:10518800FB68012283F85120FB68002283F8502035
:10519800032338E0FB68DB8E9BB2002B9CD1FB68B5
:1051A800DB8F9BB2002B97D13A6A396BF86800F015
:1051B8001DF90346002B08D0FB6820225A65FB68BE
:1051C800002283F8502001231DE0FB689B68002B18
:1051D8000AD100233B61FB681B68DB683B61FB6805
:1051E8001B689B683B613B69FB68012283F851207F
:1051F800FB68002283F85020FB685B6D002B01D010
:10520800012300E0002318462837BD4680BD000072
:1052180080B588B000AFF860B9603B601346FB7199
:10522800FDF7BCFA0246BB6A9B1A3A681344FB6155
:10523800FDF7B4FAB861394B1B685B011B0DFA69BD
:1052480002FB03F37B6155E03B68B3F1FF3F51D0AC
:10525800FDF7A4FA0246BB69D31AFA699A4202D941
:10526800FB69002B3DD1FB681B685A68FB681B680B
:1052780022F0E0025A60FB685B68B3F5827F11D1C7
:10528800FB689B68B3F5004F04D0FB689B68B3F5D7
:10529800806F07D1FB681B681A68FB681B6822F0DF
:1052A80040021A60FB689B6AB3F5005F0FD1FB6888
:1052B8001B681A68FB681B6822F400521A60FB68B6
:1052C8001B681A68FB681B6842F400521A60FB6886
:1052D800012283F85120FB68002283F85020032321
:1052E80018E07B69002B02D10023FB6102E07B6997
:1052F800013B7B61FB681B689A68BB681340BA680E
:105308009A420CBF01230023DBB21A46FB799A426A
:105318009AD1002318462037BD4680BD08000020DA
:1053280080B586B002AFF860B9607A60FB685B68E8
:10533800B3F5827F11D1FB689B68B3F5004F04D0A9
:10534800FB689B68B3F5806F07D1FB681B681A6818
:10535800FB681B6822F040021A60FB685B68B3F5C3
:10536800827F2AD1FB689B68B3F5806F12D07B6877
:105378000093BB6800228021F868FFF749FF0346C5
:10538800002B2DD0FB685B6D43F02002FB685A654B
:10539800032326E07B680093BB6800220121F8689C
:1053A800FFF736FF0346002B1AD0FB685B6D43F00E
:1053B8002002FB685A65032313E07B680093BB68EF
:1053C80000220121F868FFF723FF0346002B07D0CE
:1053D800FB685B6D43F02002FB685A65032300E01D
:1053E800002318461037BD4680BD000080B588B040
:1053F80002AFF860B9607A607B680093BB680122ED
:105408000221F868FFF704FF0346002B07D0FB686A
:105418005B6D43F02002FB685A65032332E01B4BA7
:105428001B681B4AA2FB03235B0D4FF47A7202FB35
:1054380003F37B61FB685B68B3F5827F12D17B68FD
:105448000093BB6800228021F868FFF7E1FE03465D
:10545800002B16D0FB685B6D43F02002FB685A6591
:1054680003230FE07B69002B0AD07B69013B7B613A
:10547800FB681B689B6803F08003802BF2D000E078
:1054880000BF002318461837BD4680BD080000201D
:10549800819F5E1680B584B000AFF860B9607A600D
:1054A800FB68002B01D1012338E0FB6893F84930F1
:1054B800DBB2002B06D1FB68002283F84820F8688D
:1054C800FBF702FAFB681A68FB68083319461046AE
:1054D80000F098FCFB681868FB689B681A46B96876
:1054E80000F0FAFCFB685868FB689A68FB681B6B5D
:1054F800796800F01FFDFB681B68FA68926853F82A
:105508002210FB681B68FA68926841F0010143F8B1
:105518002210FB68012283F849200023184610371F
:10552800BD4680BD80B582B000AF78607B68002B37
:1055380001D1012341E07B6893F83D30DBB2002BB9
:1055480006D17B68002283F83C207868FDF732F8A2
:105558007B68022283F83D207B681A687B680433E5
:105568001946104600F07EFA7B68012283F846202F
:105578007B68012283F83E207B68012283F83F2064
:105588007B68012283F840207B68012283F8412050
:105598007B68012283F842207B68012283F843203C
:1055A8007B68012283F844207B68012283F8452028
:1055B8007B68012283F83D20002318460837BD4642
:1055C80080BD000080B485B000AF78607B6893F838
:1055D8003D30DBB2012B01D001234EE07B68022273
:1055E80083F83D207B681B68DA687B681B6842F09B
:1055F8000102DA607B681B68234A934222D07B68E9
:105608001B68B3F1804F1DD07B681B681F4A93420B
:1056180018D07B681B681E4A934213D07B681B68AE
:105628001C4A93420ED07B681B681B4A934209D0E0
:105638007B681B68194A934204D07B681B68184A28
:10564800934211D17B681B689B6803F00703FB60DA
:10565800FB68062B10D07B681B681A687B681B6880
:1056680042F001021A6007E07B681B681A687B68D1
:105678001B6842F001021A60002318461437BD4621
:105688005DF8047B704700BF000001400004004043
:1056980000080040000C00400004014000400140A8
:1056A8000018004080B584B000AF78607B681B6844
:1056B800DB68FB607B681B681B69BB60BB6803F029
:1056C8000203002B20D0FB6803F00203002B1BD041
:1056D8007B681B686FF002021A617B6801221A77E7
:1056E8007B681B689B6903F00303002B03D0786871
:1056F80000F099F905E0786800F08BF9786800F017
:105708009CF97B6800221A77BB6803F00403002B1E
:1057180020D0FB6803F00403002B1BD07B681B68B8
:105728006FF004021A617B6802221A777B681B6893
:105738009B6903F44073002B03D0786800F073F979
:1057480005E0786800F065F9786800F076F97B681C
:1057580000221A77BB6803F00803002B20D0FB68EF
:1057680003F00803002B1BD07B681B686FF008024E
:105778001A617B6804221A777B681B68DB6903F06F
:105788000303002B03D0786800F04DF905E0786832
:1057980000F03FF9786800F050F97B6800221A772A
:1057A800BB6803F01003002B20D0FB6803F0100344
:1057B800002B1BD07B681B686FF010021A617B6896
:1057C80008221A777B681B68DB6903F44073002B97
:1057D80003D0786800F027F905E0786800F019F937
:1057E800786800F02AF97B6800221A77BB6803F012
:1057F8000103002B0CD0FB6803F00103002B07D03A
:105808007B681B686FF001021A617868FCF754FD29
:10581800BB6803F08003002B0CD0FB6803F0800307
:10582800002B07D07B681B686FF080021A617868CC
:1058380000F0DEFABB6803F04003002B0CD0FB68D5
:1058480003F04003002B07D07B681B686FF0400211
:105858001A61786800F0FBF8BB6803F02003002B9E
:105868000CD0FB6803F02003002B07D07B681B6873
:105878006FF020021A61786800F0B0FA00BF1037A4
:10588800BD4680BD80B584B000AF78603960002324
:10589800FB737B6893F83C30012B01D10223B4E001
:1058A8007B68012283F83C207B68022283F83D2034
:1058B8007B681B689B68BB60BB6823F07703BB6091
:1058C800BB6823F47F43BB607B681B68BA689A6037
:1058D8003B681B68B3F5005F3ED0B3F5005F00F28C
:1058E8008780B3F5805F00F08680B3F5805F7FD84E
:1058F800702B1AD0702B7BD8602B50D0602B77D8A8
:10590800502B3CD0502B73D8402B58D0402B6FD8FD
:10591800302B64D0302B6BD8202B60D0202B67D84D
:10592800002B5CD0102B5AD062E07B6818683B686B
:1059380099683B685A683B68DB6800F0B3F97B6894
:105948001B689B68BB60BB6843F07703BB607B68E0
:105958001B68BA689A604FE07B6818683B6899686A
:105968003B685A683B68DB6800F09CF97B681B68F9
:105978009A687B681B6842F480429A603CE07B68C6
:1059880018683B6859683B68DB681A4600F010F9EC
:105998007B681B685021184600F069F92CE07B6889
:1059A80018683B6859683B68DB681A4600F02FF9AD
:1059B8007B681B686021184600F059F91CE07B6879
:1059C80018683B6859683B68DB681A4600F0F0F8CD
:1059D8007B681B684021184600F049F90CE07B6899
:1059E8001A683B681B681946104600F040F903E046
:1059F8000123FB7300E000BF7B68012283F83D2090
:105A08007B68002283F83C20FB7B18461037BD4694
:105A180080BD80B483B000AF786000BF0C37BD464E
:105A28005DF8047B704780B483B000AF786000BF36
:105A38000C37BD465DF8047B704780B483B000AF77
:105A4800786000BF0C37BD465DF8047B704780B4B2
:105A580083B000AF786000BF0C37BD465DF8047BAB
:105A68007047000080B485B000AF786039607B680B
:105A78001B68FB607B68434A934213D07B68B3F191
:105A8800804F0FD07B68404A93420BD07B683F4AD7
:105A9800934207D07B683E4A934203D07B683D4AD5
:105AA800934208D1FB6823F07003FB603B685B6896
:105AB800FA681343FB607B68324A93422BD07B68B9
:105AC800B3F1804F27D07B682F4A934223D07B685D
