:020000040800F2
:1000000000000220612E0008412A0008472A00084B
:100010004D2A0008532A0008592A00080000000051
:100020000000000000000000000000005F2A00083F
:100030006D2A0008000000007B2A0008892A0008B9
:10004000B12E0008B12E0008B12E0008B12E000814
:10005000B12E0008B12E0008B12E0008B12E000804
:10006000B12E0008B12E0008B12E0008B12E0008F4
:10007000B12E0008B12E0008B12E0008B12E0008E4
:10008000B12E0008B12E0008B12E0008B12E0008D4
:10009000B12E0008B12E0008B12E0008B12E0008C4
:1000A000B12E0008B12E0008B12E0008B12E0008B4
:1000B000952A0008B12E0008B12E0008B12E0008C4
:1000C000B12E0008B12E0008B12E0008B12E000894
:1000D000B12E0008A92A0008B12E0008B12E000890
:1000E000B12E0008B12E0008B12E0008B12E000874
:1000F000B12E0008B12E0008B12E0008B12E000864
:10010000B12E0008B12E0008B12E0008B12E000853
:10011000B12E0008B12E0008B12E0008B12E000843
:10012000B12E0008B12E0008B12E0008B12E000833
:10013000B12E0008B12E0008B12E0008B12E000823
:10014000B12E0008B12E0008B12E0008B12E000813
:10015000B12E0008B12E0008B12E0008B12E000803
:10016000B12E0008B12E0008B12E0008B12E0008F3
:10017000B12E0008B12E0008B12E000800000000CA
:08018000B12E0008B12E0008A9
:1001900010B5054C237833B9044B13B10448AFF3C1
:1001A00000800123237010BD7800002000000000B3
:1001B0005880000808B5034B1BB103490348AFF34F
:1001C000008008BD000000007C000020588000086E
:1001D00001F0FF01102A2BDB10F0070F08D010F8F8
:1001E000013B013A8B422DD010F0070F42B3F6D1FC
:1001F000F0B441EA012141EA014122F007047FF015
:1002000000070023F0E80256083C85EA010586EA6B
:10021000010685FA47F5A3FA87F586FA47F6A5FAA7
:1002200087F68EB9EED1F0BC01F0FF0102F00702B3
:1002300032B110F8013B013A83EA010313B1F8D15E
:100240000020704701387047002D06BF354603383F
:10025000073815F0010F07D1013015F4807F02BF78
:10026000013015F4C03F0130F0BC0138704700BFC9
:1002700053B94AB9002908BF00281CBF4FF0FF310D
:100280004FF0FF3000F06EB9ADF1080C6DE904CE0F
:1002900000F006F8DDF804E0DDE9022304B0704761
:1002A0002DE9F047089D04468C46002B40F08380E2
:1002B0008A42174647D9B2FA82F242B1C2F120000F
:1002C00024FA00F09140974040EA010C94404FEA34
:1002D0001748230CBCFBF8F61FFA87FE08FB16C173
:1002E00043EA014306FB0EF1994209D9FB1806F1D6
:1002F000FF3080F01981994240F21681023E3B4462
:100300005B1AA4B2B3FBF8F008FB103344EA0344D1
:1003100000FB0EFEA64509D93C1900F1FF3380F021
:100320000581A64540F2028102383C4440EA06407D
:10033000A4EB0E0400261DB1D4400023C5E9004300
:100340003146BDE8F08702B9FFDEB2FA82F2002A38
:1003500050D1CB1B4FEA174E1FFA87F80126B3FB8B
:10036000FEFC210C0EFB1C3341EA034108FB0CF39D
:100370008B4207D979180CF1FF3002D28B4200F280
:10038000E9808446C91AA3B2B1FBFEF00EFB10113E
:1003900043EA014408FB00F8A04507D93C1900F1E5
:1003A000FF3302D2A04500F2D9801846A4EB08041E
:1003B00040EA0C40BFE78B4209D9002D00F0B18024
:1003C0000026C5E9000130463146BDE8F087B3FAA2
:1003D00083F6002E4AD18B4202D3824200F2B880CB
:1003E000841A61EB030101208C46002DA8D0C5E9D9
:1003F000004CA5E7C2F1200320FA03F6974001FA6A
:1004000002F04FEA174ED9403043030CB1FBFEF621
:100410001FFA87F80EFB161143EA014306FB08F1A9
:10042000994204FA02F409D9FB1806F1FF3C80F066
:100430008D80994240F28A80023E3B445B1A81B231
:10044000B3FBFEF00EFB103341EA034100FB08F35F
:100450008B4207D9791800F1FF3C73D28B4271D9D6
:1004600002383944CB1A40EA064678E7C6F1200C38
:1004700003FA06F422FA0CF31C4320FA0CF701FAF3
:1004800006F34FEA144E21FA0CF11F433B0CB1FB6B
:10049000FEF91FFA84F80EFB191143EA014109FB2A
:1004A00008FA8A4502FA06F200FA06F308D961183A
:1004B00009F1FF3048D28A4546D9A9F10209214401
:1004C000A1EB0A01BFB2B1FBFEF00EFB101147EA2F
:1004D000014700FB08F8B84507D9E71900F1FF31DB
:1004E0002ED2B8452CD90238274440EA0940A7EB60
:1004F0000807A0FB02894F45C64649461AD317D0C4
:100500005DB1B3EB0E0267EB010707FA0CFCF2409A
:100510004CEA0202F740C5E9002700263146BDE853
:10052000F0872E4628460BE70646E9E61846FDE624
:100530004345E5D2B8EB020E69EB04010138DFE771
:100540000846D2E760468DE78146B9E7664675E71B
:1005500030464AE7ACF1020C394413E702383C4418
:1005600024E700BF704700BF80B500AF012208211B
:10057000024803F075F800BF80BD00BF000C0240C8
:1005800080B584B000AF002208212F4803F068F83E
:10059000012208212C4803F063F80A2302222B4988
:1005A0002B4804F0B8FF0023FB604FF400437B812D
:1005B00000237B603FE07B68002B06DB7B68032B1E
:1005C00003DC7B680433FB6018E07B68032B07DDEA
:1005D0007B68072B04DC7B68C3F10703FB600DE03D
:1005E0007B68072B06DD7B680B2B03DC7B68043301
:1005F000FB6003E07B68C3F11703FB60134B1A88B1
:100600007B8913409BB2002B05D0124AFB68002166
:1006100022F8131009E00F4AFB6832F81330013357
:1006200099B20C4AFB6822F813107B895B087B8126
:100630007B6801337B607B680F2BBCDD00BF00BF94
:100640001037BD4680BD00BF000C02409400002062
:10065000F4010020E400002080B500AF1E2002F06D
:10066000DBFB03461A461C4B1A70162002F0D4FB23
:1006700003461A46184B5A70152002F0CDFB03466C
:100680001A46154B9A70062002F0C6FB03461A461E
:10069000114BDA700F2002F0BFFB03461A460E4BD7
:1006A0001A71092002F0B8FB03461A460A4B5A7128
:1006B000172002F0B1FB03461A46074B9A7132230A
:1006C0000322D021054803F063FC0346002B00D031
:1006D000FEE700BF80BD00BF0C01002064010020C8
:1006E00080B588B004AF03460A46FB711346BB7160
:1006F000BB79184602F090FB0346FB73FB799AB274
:100700000A2302930123019307F10F0300930123AE
:10071000D021034803F01CF900BF1037BD4680BD4F
:100720006401002080B584B004AF0A23029307233C
:100730000193254B009301230022D021234803F08D
:1007400001FA214B1B78184602F04CFB03461A466F
:100750001F4B1A701C4B5B78184602F043FB034694
:100760001A461C4B1A70184B9B78184602F03AFB3D
:1007700003461A46184B1A70134BDB78184602F0E2
:1007800031FB03461A46154B1A700F4B1B7918465E
:1007900002F028FB03461A46114B1A700A4B5B798C
:1007A000184602F01FFB03461A460E4B1A70064B02
:1007B0009B79184602F016FB03461A460A4B1A703C
:1007C00000BFBD4680BD00BF0C01002064010020B9
:1007D000040100200601002009010020080100207A
:1007E000070100200A0100200501002080B58EB01D
:1007F00000AF07F11C0300221A605A609A60DA60A9
:100800001A615A619A613B4600221A605A609A60E6
:10081000DA601A615A619A612F4B4FF020421A60D8
:100820002D4B2E4A5A602C4B00229A602A4B0022F4
:10083000DA60294B00221A61274B10225A61264B9D
:1008400000229A61244B0022DA61234B00221A62B3
:10085000214B00225A62204B4FF480529A621E4B69
:100860000022DA621C4B4FF480421A631A4B0022BA
:100870005A63194B00229A63174B00225A640F23C4
:10088000FB610F233B623C237B620023BB6210238E
:10089000FB6211233B6300237B6308233B600F2330
:1008A0007B600923BB600023FB6010233B611123A5
:1008B0007B610023BB613A4607F11C0319460648D9
:1008C00005F00CFA0346002B01D001F04FFF00BFEA
:1008D0003837BD4680BD00BF14010020040100A0D0
:1008E00080B586B000AF3B1D00221A605A609A6046
:1008F000DA601A611C4B1B68002B31D11A4B0122A4
:100900001A6000233B60194B9B6B184A43F00103AC
:100910009363164B9B6B03F001033B603B684FF600
:1009200088737B600223BB600023FB6003233B6171
:100930000C237B613B1D19460D4802F0F5FC4CF27F
:10094000B3737B600223BB600023FB6003233B6126
:100950000C237B613B1D1946064802F0E5FC00E0D4
:1009600000BF1837BD4680BD980000200038024007
:1009700000100240000C024080B582B000AF7860E9
:10098000FFF7AEFF00BF0837BD4680BD80B58CB015
:1009900000AF07F11C0300221A605A609A60DA6007
:1009A0001A610023BB616F4B1B6B6E4A43F010034F
:1009B00013636C4B1B6B03F01003BB61BB6900231B
:1009C0007B61684B1B6B674A43F004031363654B01
:1009D0001B6B03F004037B617B6900233B61614B6C
:1009E0001B6B604A43F0800313635E4B1B6B03F089
:1009F00080033B613B690023FB605A4B1B6B594AE8
:100A000043F001031363574B1B6B03F00103FB60BF
:100A1000FB680023BB60534B1B6B524A43F0080337
:100A20001363504B1B6B03F00803BB60BB680023D0
:100A30007B604C4B1B6B4B4A43F040031363494BA9
:100A40001B6B03F040037B607B6800233B60454BDE
:100A50001B6B444A43F002031363424B1B6B03F0CE
:100A600002033B603B68002270213F4802F0F8FD22
:100A700000224FF400513D4802F0F2FD00224021D7
:100A80003B4802F0EDFD00224FF48071394802F03E
:100A9000E7FD00220821384802F0E2FD7023FB61E7
:100AA00001233B6200237B620023BB6207F11C032E
:100AB00019462D4802F038FC4FF40053FB61012326
:100AC0003B6200237B620023BB6207F11C031946D3
:100AD000264802F029FCC023FB6100233B6200236F
:100AE0007B6207F11C031946224802F01DFC3023EB
:100AF000FB6100233B6200237B6207F11C03194664
:100B00001A4802F011FC4023FB6101233B620023E1
:100B10007B620023BB6207F11C031946144802F0F4
:100B200003FC4FF48073FB6101233B6200237B6273
:100B30000023BB6207F11C0319460E4802F0F4FBC8
:100B40000823FB6101233B6200237B620023BB621D
:100B500007F11C031946084802F0E6FB00BF3037D6
:100B6000BD4680BD0038024000100240000802402F
:100B70000018024000000240000C024080B500AFA7
:100B8000124B134A1A60114B124A5A600F4B002243
:100B90009A600E4B0022DA600C4B4FF480421A61CF
:100BA0000A4B00225A61094B00229A61074B00222E
:100BB000DA61064B00221A62044802F085FD034602
:100BC000002B01D001F0D2FD00BF80BD64010020E8
:100BD00000540040A086010080B58AB000AF786064
:100BE00007F1140300221A605A609A60DA601A61F1
:100BF0007B681B68194A93422BD100233B61184B39
:100C00001B6B174A43F002031363154B1B6B03F076
:100C100002033B613B69C0237B611223BB6100235C
:100C2000FB6103233B6204237B6207F11403194633
:100C30000C4802F079FB0023FB60094B1B6C084A4F
:100C400043F400131364064B1B6C03F40013FB60A6
:100C5000FB6800BF2837BD4680BD00BF0054004080
:100C6000003802400004024080B483B000AF034665
:100C7000FB80044AFB88138000BF0C37BD465DF83B
:100C8000047B7047FEFF0F6080B483B000AF034663
:100C9000FB80044AFB88538000BF0C37BD465DF8DB
:100CA000047B7047FEFF0F6080B483B000AF064B3B
:100CB0005B889BB2FB80FB889BB218460C37BD4615
:100CC0005DF8047B704700BFFEFF0F6090B583B0F6
:100CD00000AF0446084611461A462346FB800346E9
:100CE000BB800B467B8013463B802A20FFF7BCFF6E
:100CF000FB881B0A9BB21846FFF7C6FFFB88DBB2D6
:100D00009BB21846FFF7C0FF7B881B0A9BB21846B0
:100D1000FFF7BAFF7B88DBB29BB21846FFF7B4FF40
:100D20002B20FFF7A1FFBB881B0A9BB21846FFF7D9
:100D3000ABFFBB88DBB29BB21846FFF7A5FF3B8831
:100D40001B0A9BB21846FFF79FFF3B88DBB29BB2A2
:100D50001846FFF799FF2C20FFF786FF00BF0C37DE
:100D6000BD4690BD80B584B000AF0346FB80FB88D4
:100D70001B0A9BB2DBB23B72FB88DBB27B72154B6A
:100D80001B88013B9AB2134B5B88013B9BB200214D
:100D90000020FFF79BFF0023FB8111E00023BB81B4
:100DA00006E0FB881846FFF76FFFBB890133BB8164
:100DB000084B5B88BA899A42F3D3FB890133FB81E4
:100DC000044B1B88FA899A42E8D300BF00BF103752
:100DD000BD4680BDB801002080B582B000AF03469B
:100DE000FB800B46BB8013467B80BB88FA88B988A2
:100DF000F888FFF76BFF7B881846FFF745FF00BFB9
:100E00000837BD4680BD000090B587B000AF0446EE
:100E1000084611461A462346FB800346BB800B4614
:100E2000FB7013463B8000237B75FB883B8297F861
:100E30002C305B08FB73FB7BDB08DBB21A46FB7BC9
:100E400003F00703DBB2002B14BF01230023DBB246
:100E500013449AB297F82C309BB212FB03F3BB8178
:100E6000FB78203BFB70FB7B9AB2FB8813449BB260
:100E7000013B9CB297F82C309AB2BB8813449BB2CA
:100E8000013B9BB2B988F8882246FFF71FFF002379
:100E90007B827AE097F82C300C2B28D097F82C30F6
:100EA000102B08D1FA787B8A3C4912010A4413447A
:100EB0001B78FB751BE097F82C30182B0BD1FA78B8
:100EC000798A374813465B0013441B0103440B44E3
:100ED0001B78FB750BE097F82C30202B5AD1FA7851
:100EE0007B8A304992010A4413441B78FB75002326
:100EF000BB7544E097F83030002B20D1FA7DBB7DE4
:100F000042FA03F303F00103002B04D03B88184698
:100F1000FFF7BAFE03E03B8D1846FFF7B5FE7B7D79
:100F200001337B757B7DFA7BB3FBF2F102FB01F2AF
:100F30009B1ADBB2002B1FD100237B7522E0FA7DC8
:100F4000BB7D42FA03F303F00103002B05D03A887E
:100F5000B988FB881846FFF73FFFFB880133FB8009
:100F6000FA883B8AD21AFB7B9A4205D13B8AFB80E6
:100F7000BB880133BB8005E0BB7D0133BB75BB7D06
:100F8000072BB7D97B8A01337B827A8ABB899A4245
:100F900080D300E000BF1C37BD4690BDC480000870
:100FA000B48600088498000880B485B000AF03467A
:100FB0000A46FB711346BB710123FB6004E0FA791A
:100FC000FB6802FB03F3FB60BB795A1EBA71002B6E
:100FD000F5D1FB6818461437BD465DF8047B7047B1
:100FE00090B589B004AF0446084611461A46234618
:100FF000FB800346BB800B467B8013467B7000233F
:10100000BB7397F828305B087B730023FB7359E0B0
:101010007C887A78FB7BD31ADBB2013BDBB21946C2
:101020000A20FFF7C1FF0346B4FBF3F12A4BA3FBF1
:101030000123DA0813469B0013445B00CA1A1346C7
:101040003B73BB7B002B21D1FA7B7B78013B9A421F
:101050001CDA3B7B002B17D1FB7B9AB27B7B9BB2CC
:1010600012FB03F39AB2FB88134498B23A8CB98806
:101070000023029397F828300193BB8C009313460A
:101080002022FFF7C1FE1AE00123BB73FB7B9AB25B
:101090007B7B9BB212FB03F39AB2FB88134498B29A
:1010A0003B7B3033DAB23C8CB9880023029397F84B
:1010B00028300193BB8C00932346FFF7A5FEFB7BF2
:1010C0000133FB73FA7B7B789A42A1D300BF00BF48
:1010D0001437BD4690BD00BFCDCCCCCC80B483B01E
:1010E00000AF0346FB71FB791B09DBB203F003037E
:1010F000DBB2002B07D00A4B4FF4A0721A80084BCA
:10110000F0225A8006E0064BF0221A80044B4FF47E
:10111000A0725A8000BF0C37BD465DF8047B704753
:10112000B801002080B500AF00224FF40051AA485A
:1011300002F096FA4FF4FA7001F02EFF01224FF4FC
:101140000051A54802F08CFA4FF4FA7001F024FF28
:101150000020FFF7C3FFD320FFF786FDFFF7A4FDB4
:1011600003461A469D4B9A80FFF79EFD03461A469A
:101170009A4B9A80FFF798FD03461A46974B9A8040
:10118000964B9B881B029AB2944B9A80FFF78CFD7A
:1011900003461A46914B9B8813439AB28F4B9A8011
:1011A000CF20FFF761FD0020FFF76EFDC120FFF7A4
:1011B0006BFD3020FFF768FDED20FFF755FD642043
:1011C000FFF762FD0320FFF75FFD1220FFF75CFDD4
:1011D0008120FFF759FDE820FFF746FD8520FFF746
:1011E00053FD1020FFF750FD7A20FFF74DFDCB2077
:1011F000FFF73AFD3920FFF747FD2C20FFF744FDAC
:101200000020FFF741FD3420FFF73EFD0220FFF7ED
:101210003BFDF720FFF728FD2020FFF735FDEA20F2
:10122000FFF722FD0020FFF72FFD0020FFF72CFD28
:10123000C020FFF719FD1B20FFF726FDC120FFF797
:1012400013FD0120FFF720FDC520FFF70DFD302025
:10125000FFF71AFD3020FFF717FDC720FFF704FD49
:10126000B720FFF711FD3620FFF7FEFC0820FFF73F
:101270000BFD3A20FFF7F8FC5520FFF705FDB120E4
:10128000FFF7F2FC0020FFF7FFFC1A20FFF7FCFC41
:10129000B620FFF7E9FC0A20FFF7F6FCA220FFF7D3
:1012A000F3FCF220FFF7E0FC0020FFF7EDFC262026
:1012B000FFF7DAFC0120FFF7E7FCE020FFF7D4FCA2
:1012C0000F20FFF7E1FC2A20FFF7DEFC2820FFF7C4
:1012D000DBFC0820FFF7D8FC0E20FFF7D5FC082028
:1012E000FFF7D2FC5420FFF7CFFCA920FFF7CCFC7E
:1012F0004320FFF7C9FC0A20FFF7C6FC0F20FFF7C9
:10130000C3FC0020FFF7C0FC0020FFF7BDFC00205D
:10131000FFF7BAFC0020FFF7B7FCE120FFF7A4FCC1
:101320000020FFF7B1FC1520FFF7AEFC1720FFF7F8
:10133000ABFC0720FFF7A8FC1120FFF7A5FC062057
:10134000FFF7A2FC2B20FFF79FFC5620FFF79CFC29
:101350003C20FFF799FC0520FFF796FC1020FFF7D3
:1013600093FC0F20FFF790FC3F20FFF78DFC3F2000
:10137000FFF78AFC0F20FFF787FC2B20FFF774FC98
:101380000020FFF781FC0020FFF77EFC0120FFF723
:101390007BFC3F20FFF778FC2A20FFF765FC00204C
:1013A000FFF772FC0020FFF76FFC0020FFF76CFCDA
:1013B000EF20FFF769FC1120FFF756FC782001F0C1
:1013C000EBFD2920FFF750FC01224FF48071044807
:1013D00002F046F900BF80BD00080240B8010020BD
:1013E0000000024090B58BB004AFBA601A460346C5
:1013F000FB810B46BB811346FB80FB89BB8200232C
:10140000FB7548E0FB7D002B45D1FA89264B1B88F4
:10141000194697F82C305B08DBB2CB1A9A423FDCB6
:10142000BA89214B5B88194697F82C30CB1A9A421F
:1014300036DCBB681B78802B02D90123FB752AE0C0
:10144000BB681B780D2B0BD197F82C309AB2BB8957
:101450001344BB81BB8AFB81BB680133BB6017E0CF
:10146000BB681A78FC88B989F88997F830300293FC
:1014700097F82C3001933B8D00932346FFF7C4FC73
:1014800097F82C305B08DBB29AB2FB891344FB81DE
:10149000BB680133BB60BB681B78002BB2D100E096
:1014A00000BF1C37BD4690BDB801002080B500AF1D
:1014B00001224021024802F0D3F800BF80BD00BFE6
:1014C0000018024080B500AF3F4B1B88DBB29AB2D8
:1014D0003D4B1A803D4B1B683D4AD35C1B021AB240
:1014E000394B1B881BB213431BB29AB2364B1A807E
:1014F000364B1B68032B47D801A252F823F000BFDC
:10150000111500082F1500084D1500086B1500086F
:101510002D4B1B8843F0B0039AB22B4B1A802A4BF9
:101520001B8823F040039AB2274B1A802DE0264BEC
:101530001B8843F0D0039AB2234B1A80224B1B889E
:1015400023F020039AB2204B1A801EE01E4B1B880A
:1015500043F0E0039AB21C4B1A801B4B1B8823F00C
:1015600010039AB2184B1A800FE0174B1B8843F0F8
:1015700070039AB2144B1A80134B1B8823F080031C
:101580009AB2114B1A8000E000BF104B1B68013368
:101590005A4203F0030302F0030258BF53420B4ABE
:1015A0001360002240210B4802F05AF80123022266
:1015B0000549094803F073FE01224021054802F065
:1015C0004FF800BF80BD00BF040000209C00002039
:1015D0000000002000180240F401002080B584B013
:1015E00004AF01F067FC00F047FAFFF7CFF901F014
:1015F000ADFA01F07FF9FFF7F9F8FFF7BFFA01F054
:1016000077FB00F0A3FA0020FFF7ACFB00F0ECFA48
:1016100000BFA94B1B88002BFBD0A74B00221A80D0
:1016200000F02EFBFEF7ACFF00F0BAFA00F0FCFA77
:10163000A24B1B88012B15D10020FFF793FBA04B79
:101640001B780133DAB29E4B1A709D4B1B78032B2B
:1016500002D99B4B00221A709A4B00221A609A4BB7
:1016600000221A60954B1B8B012B0CD1974B1B78DA
:101670000133DAB2954B1A70944B1B78062B02D9C2
:10168000924B00221A708E4B1B78002B24D1FFF74F
:1016900049F800F035FC8E4B1A788E4B1B789A4235
:1016A000B6D18D4B1A788D4B1B789A42B0D18C4BAA
:1016B0001A788C4B1B789A42AAD1002302931823E4
:1016C00001934FF4784300934FF6FF73864A00214D
:1016D0001420FFF787FE9BE7794B1B78012B40F026
:1016E000A380764BDB88012B4DD1784B1B787F4A4A
:1016F000D25C0132D1B27D4AD1547C4B1B78184662
:1017000001F070FB034619460020FEF7E9FF774B16
:101710005B78184601F066FB034619460120FEF788
:10172000DFFF724B9B78184601F05CFB03461946BD
:101730000220FEF7D5FF6D4BDB78184601F052FB17
:10174000034619460320FEF7CBFF684B1B7918466A
:1017500001F048FB034619460420FEF7C1FF634B26
:101760005B79184601F03EFB034619460520FEF75B
:10177000B7FF5E4B9B79184601F034FB03461946D0
:101780000620FEF7ADFF594B1B78184601F02AFBE7
:1017900003461A464E4B1A70544B5B78184601F0BC
:1017A00021FB03461A464C4B1A70504B9B78184647
:1017B00001F018FB03461A46494B1A704B4BDB7875
:1017C000184601F00FFB03461A46494B1A70474B67
:1017D0001B79184601F006FB03461A46454B1A7062
:1017E000424B5B79184601F0FDFA03461A46424B1C
:1017F0001A703E4B9B79184601F0F4FA03461A46DC
:101800003E4B1A7000F03EFC2D4B1B789AB2182309
:101810000293002301934FF47843009301231E2188
:101820001E20FFF7DDFBF3E6254B1B78022B40F073
:101830009280224B1B8B012B0CD1314B1B78013337
:10184000DAB22F4B1A702E4B1B78022B02D92C4B7D
:1018500000221A70194BDB88012B6AD1284B1B78A8
:10186000002B12D11B4B1B785A1C264B83FB0213F7
:1018700013445911D317C91A0B461B015B1A9B005D
:10188000D11ACAB2134B1A7053E01D4B1B78012BAF
:101890003AD1124B1B785A1C1A4B83FB0213134488
:1018A0005911D317C91A0B461B015B1A9B00D11A99
:1018B000CAB20A4B1A703CE0B8000020E4000020D5
:1018C000A1000020B0000020B4000020A2000020F1
:1018D00004010020A600002006010020A80000202E
:1018E00009010020A7000020708000080C010020E2
:1018F00008010020070100200A0100200501002046
:10190000A400002089888888504B1B78022B10D1B6
:101910004F4B1B785A1C4F4B83FB02139910D31764
:10192000C91A0B465B000B44DB00D11ACAB2484B04
:101930001A7000F073FD484B1B789AB2182302937B
:10194000002301934FF47843009301231E211E20AE
:10195000FFF746FB5CE6404B1B78032B7FF458AE49
:101960003E4B1B68022B24D0022B31D8002B02D017
:10197000012B0FD02CE000230293182301934FF486
:10198000784300934FF6FF73354A28212820FFF74C
:1019900029FD1EE000230293182301934FF478439E
:1019A00000934FF6FF732F4A28212820FFF71AFDD6
:1019B0000FE000230293182301934FF47843009320
:1019C0004FF6FF73284A28212820FFF70BFD00E07F
:1019D00000BF264B1B789AB2182302930023019371
:1019E0004FF4FC630093022364214620FFF7F8FACA
:1019F0001F4B1B789AB218230293002301934FF4D4
:101A0000FC630093022364216E20FFF7E9FA194B6F
:101A10001B789AB218230293002301934FF4FC63BE
:101A20000093022364219620FFF7DAFA0A4B1B7811
:101A30009AB218230293002301934FF47843009342
:101A400001231E211E20FFF7CBFAE1E5A4000020B0
:101A5000A7000020ABAAAA2AA1000020AC00002009
:101A60007C8000088880000894800008090100201C
:101A7000060100200401002080B594B000AF07F1FA
:101A8000200330220021184605F0B0FE07F10C03B8
:101A900000221A605A609A60DA601A610023BB6003
:101AA000284B1B6C274A43F080531364254B1B6C57
:101AB00003F08053BB60BB6800237B60224B1B6834
:101AC000214A43F4804313601F4B1B6803F4804397
:101AD0007B607B6802233B620123FB6210233B6334
:101AE0000223BB630023FB6308233B64A8237B64BE
:101AF0000223BB640423FB6407F12003184602F0B1
:101B0000D1FE0346002B01D000F030FE0F23FB6016
:101B100002233B6100237B614FF4A053BB614FF470
:101B2000A053FB6107F10C030521184603F032F9BD
:101B30000346002B01D000F019FE00BF5037BD4610
:101B400080BD00BF003802400070004080B500AF8B
:101B500000222021114801F083FD002240210F487E
:101B600001F07EFD002210210C4801F079FD00F00B
:101B700003FEFFF79BFCFEF7F7FCFFF7D3FAFEF737
:101B80006BFD01F055F8322000F000FEFA2000F065
:101B900019FEFA2000F032FE00BF80BD00100240A6
:101BA00080B500AF0D4B1B785A1C0D4B83FB021305
:101BB000D910D317C91A0B469B000B449B00D11AAE
:101BC000CAB2064B1A70054B1B78002B03D11021AB
:101BD000044801F05EFD00BF80BD00BFA0000020F2
:101BE000676666660010024080B500AF19210620C6
:101BF000FEF776FD0B210520FEF772FD052104207E
:101C0000FEF76EFD04210320FEF76AFD0921022084
:101C1000FEF766FD0A210120FEF762FD0B21002080
:101C2000FEF75EFD00BF80BD80B500AF0F4B1B8B84
:101C3000012B18D10E4801F009F80E4B1B68012B3F
:101C400011D10C4B00221A6072B600BF0A4800F096
:101C5000FDFF62B600BF64220021074805F0C6FD03
:101C6000064B00221A6000BF80BD00BFE4000020C8
:101C7000A0800008D800002094020020D40000209A
:101C800080B58AB004AF904B1B88002B07D08E4BD9
:101C900000221A808D4B1B6801338C4A13608C4BD9
:101CA0001B68012B40F0C7808A4B1B78032B40F048
:101CB000C280874B00221A6000237B6100233B61B6
:101CC0000FE03A6913469B0013445B001946824AB1
:101CD0007B6913441B78303B0B443B617B690133C8
:101CE0007B617B69642B05D07B4A7B6913441B783D
:101CF000002BE6D164220021774805F077FD774B71
:101D000000221A6000237B613B1D3A697449184622
:101D100005F074FD734B1B68022B57D0022B00F2A9
:101D20008380002B02D0012B28D07DE03B69002B63
:101D30007CDB3B69172B79DC3B1D184600F086FFE6
:101D4000694B00221A603B69DAB2684B1A705F4B2C
:101D500000221A603B69DBB219460220FEF7C0FC84
:101D6000604B1B68591C624BA3FB01235A081346A6
:101D70005B001344CA1A5B4B1A6057E03B69002BA7
:101D800056DB3B693B2B53DC3B1D184600F05EFFE6
:101D9000554B00221A603B69DAB2564B1A704B4B16
:101DA00000221A603B69DBB219460120FEF798FC5D
:101DB0004C4B1B68591C4E4BA3FB01235A0813467E
:101DC0005B001344CA1A474B1A6031E03B69002B91
:101DD00030DB3B693B2B2DDC3B1D184600F036FF0A
:101DE0003B69DAB2444B1A703A4B00221A703E4BF0
:101DF00000221A600020FEF7B5FF344B00221A6063
:101E00003B69DBB219460020FEF76AFC354B1B68C4
:101E1000591C374BA3FB01235A0813465B0013449C
:101E2000CA1A304B1A6005E000BF04E000BF02E0B0
:101E300000BF00E000BF274B1B78032B1FD1234BB3
:101E40001B68272B1BDD214B00221A60264B1B68C9
:101E5000012B0FDD234B00221A601E4B00221A704B
:101E6000214B00221A60194B00221A600020FEF755
:101E700079FF04E01C4B1B6801331B4A1360154BB0
:101E80001B78032B1CD1184B1B689AB218230293A2
:101E9000002301934FF4784300930123E6213C2073
:101EA000FFF79EF800230293182301934FF4784321
:101EB00000934FF6FF73114AC8213C20FFF792FAB6
:101EC00000BF1837BD4680BDC4000020B000002010
:101ED000D8000020A100002094020020D40000209F
:101EE000A4800008AC000020B400002009010020FC
:101EF000ABAAAAAA0601002004010020A8800008BD
:101F000080B584B004AF544B1B789AB21823029367
:101F1000002301934FF4FC630093022364214620C5
:101F2000FFF75EF84D4B1B789AB2182302930023FB
:101F300001934FF4FC630093022364216E20FFF7AA
:101F40004FF8474B1B789AB2182302930023019352
:101F50004FF4FC630093022364219620FFF740F8BE
:101F6000404B1B789AB218230293002301934FF63B
:101F7000E0730093022382211420FFF731F83A4BDB
:101F80001B789AB218230293002301934FF6E07353
:101F90000093022382214620FFF722F8334B1B785F
:101FA0009AB218230293002301934FF6E073009333
:101FB000022382216E20FFF713F82D4B1B789AB273
:101FC00018230293002301934FF6E073009302233A
:101FD00082219620FFF704F8264B1B789AB218232B
:101FE0000293002301934FF6E07300930223A02194
:101FF0004620FEF7F5FF204B1B789AB21823029378
:10200000002301934FF6E07300930223A0216E207A
:10201000FEF7E6FF194B1B789AB2182302930023B0
:1020200001934FF6E07300930223A0219620FEF760
:10203000D7FF134B1B789AB2182302930023019306
:102040004FF47843009301231E211E20FEF7C8FFA2
:1020500000BFBD4680BD00BF090100200601002071
:102060000401002008010020070100200A010020CF
:1020700005010020A7000020A8000020A6000020E5
:10208000A100002080B584B004AFA74B1B88002BB3
:1020900000F0B981A44B00221A80A44B1B78002BBE
:1020A00028D1A34B1B78002B12D1A14B01221A700F
:1020B000A04B1B789AB218230293002301934FF48C
:1020C000FC630093022364219620FEF789FF20E041
:1020D000974B00221A70974B1B789AB218230293E1
:1020E0000023019300230093022364219620FEF72E
:1020F00077FF0EE08F4B1B789AB2182302930023D0
:1021000001934FF4FC630093022364219620FEF7B1
:1021100067FF864B1B78012B28D1854B1B78002B42
:1021200012D1834B01221A70834B1B789AB2182369
:102130000293002301934FF4FC6300930223642174
:102140006E20FEF74DFF20E0794B00221A707A4B8B
:102150001B789AB218230293002301930023009363
:10216000022364216E20FEF73BFF0EE0724B1B78CA
:102170009AB218230293002301934FF4FC63009357
:10218000022364216E20FEF72BFF684B1B78022B85
:1021900028D1674B1B78002B12D1654B01221A7096
:1021A000664B1B789AB218230293002301934FF4D5
:1021B000FC630093022364214620FEF711FF20E018
:1021C0005B4B00221A705D4B1B789AB21823029366
:1021D0000023019300230093022364214620FEF78D
:1021E000FFFE0EE0554B1B789AB218230293002392
:1021F00001934FF4FC630093022364214620FEF711
:10220000EFFE4A4B1B78032B28D1494B1B78002B40
:1022100012D1474B01221A70494B1B789AB21823EE
:102220000293002301934FF6E0730093022382216F
:102230001420FEF7D5FE20E03D4B00221A70404BE3
:102240001B789AB218230293002301930023009372
:10225000022382211420FEF7C3FE0EE0384B1B78C8
:102260009AB218230293002301934FF6E073009370
:10227000022382211420FEF7B3FE2C4B1B78042B83
:1022800028D12B4B1B78002B12D1294B01221A701D
:102290002C4B1B789AB218230293002301934FF61C
:1022A000E0730093022382214620FEF799FE20E08E
:1022B0001F4B00221A70234B1B789AB218230293EB
:1022C0000023019300230093022382214620FEF77E
:1022D00087FE0EE01B4B1B789AB218230293002353
:1022E00001934FF6E0730093022382214620FEF70C
:1022F00077FE0E4B1B78052B3AD10D4B1B78002B2C
:1023000024D10B4B01221A700F4B1B789AB2182361
:102310000293002301934FF6E0730093022382217E
:102320006E20FEF75DFE32E0BE000020A20000201D
:10233000A300002004010020060100200901002064
:1023400008010020070100200A0100202F4B002275
:102350001A702F4B1B789AB2182302930023019313
:1023600000230093022382216E20FEF739FE0EE047
:10237000274B1B789AB218230293002301934FF640
:10238000E0730093022382216E20FEF729FE214B89
:102390001B78062B28D11D4B1B78002B12D11B4B11
:1023A00001221A701C4B1B789AB218230293002347
:1023B00001934FF6E0730093022382219620FEF7EB
:1023C0000FFE20E0114B00221A70134B1B789AB2BB
:1023D00018230293002301930023009302238221F8
:1023E0009620FEF7FDFD0EE00B4B1B789AB21823EA
:1023F0000293002301934FF6E0730093022382219E
:102400009620FEF7EDFD00BFBD4680BDA300002075
:102410000A010020A20000200501002080B584B040
:1024200004AFA94B1B88002B00F09681A64B00221D
:102430001A80A64B1B789AB21823029300230193AB
:102440004FF4FC630093022364214620FEF7C8FD8D
:102450009F4B1B789AB218230293002301934FF4E9
:10246000FC630093022364216E20FEF7B9FD994BB3
:102470001B789AB218230293002301934FF4FC6354
:102480000093022364219620FEF7AAFD924B1B784D
:102490009AB218230293002301934FF6E07300933E
:1024A000022382211420FEF79BFD8C4B1B789AB2ED
:1024B00018230293002301934FF6E0730093022345
:1024C00082214620FEF78CFD854B1B789AB218239B
:1024D0000293002301934FF6E073009302238221BD
:1024E0006E20FEF77DFD7F4B1B789AB21823029376
:1024F000002301934FF6E07300930223822196207C
:10250000FEF76EFD784B1B78022B00F09680022BB5
:1025100000F3F480002B02D0012B47D0EEE0734B88
:102520001B78002B12D1714B01221A70704B1B7853
:102530009AB218230293002301934FF6E07300939D
:102540000223A0219620FEF74BFD10E0674B0022EE
:102550001A70674B1B789AB21823029300230193D9
:10256000002300930223A0219620FEF739FD614B42
:102570001B789AB218230293002301934FF6E0735D
:1025800000930223A0214620FEF72AFD5A4B1B7818
:102590009AB218230293002301934FF6E07300933D
:1025A0000223A0216E20FEF71BFDD6E04F4B1B78C7
:1025B000002B12D14D4B01221A704F4B1B789AB24F
:1025C00018230293002301934FF6E0730093022334
:1025D000A0216E20FEF704FD10E0444B00221A708B
:1025E000454B1B789AB218230293002301930023D2
:1025F00000930223A0216E20FEF7F2FC3D4B1B78D6
:102600009AB218230293002301934FF6E0730093CC
:102610000223A0214620FEF7E3FC354B1B789AB23B
:1026200018230293002301934FF6E07300930223D3
:10263000A0219620FEF7D4FC8FE02C4B1B78002BBA
:1026400012D12A4B01221A702A4B1B789AB21823F6
:102650000293002301934FF6E07300930223A0211D
:102660004620FEF7BDFC10E0204B00221A70214BE3
:102670001B789AB21823029300230193002300933E
:102680000223A0214620FEF7ABFC1B4B1B789AB21D
:1026900018230293002301934FF6E0730093022363
:1026A000A0216E20FEF79CFC114B1B789AB21823D8
:1026B0000293002301934FF6E07300930223A021BD
:1026C0009620FEF78DFC48E0BE00002009010020A6
:1026D000060100200401002008010020070100205D
:1026E0000A01002005010020A4000020A500002010
:1026F000A6000020A7000020A8000020184B1B788F
:102700009AB218230293002301934FF6E0730093CB
:102710000223A0214620FEF763FC124B1B789AB2DD
:1027200018230293002301934FF6E07300930223D2
:10273000A0216E20FEF754FC0B4B1B789AB2182395
:102740000293002301934FF6E07300930223A0212C
:102750009620FEF745FC00E000BF00BFBD4680BDEF
:10276000A7000020A8000020A600002080B400AF31
:1027700072B600BFFEE7000080B500AF024803F06C
:1027800041FB00BF80BD00BF4C02002080B483B07D
:1027900000AF0346FB80084AFB881380064B1A886B
:1027A000064B1A80064B00221A8000BF0C37BD462C
:1027B0005DF8047B704700BFBC000020BA00002019
:1027C000B800002080B483B000AF0346FB80084A05
:1027D000FB881380064B1A88064B1A80064B002292
:1027E0001A8000BF0C37BD465DF8047B704700BF00
:1027F000C2000020C0000020BE00002080B483B0D2
:1028000000AF0346FB80084AFB881380064B1A88FA
:10281000064B1A80064B00221A8000BF0C37BD46BB
:102820005DF8047B704700BFC8000020C600002090
:10283000C400002080B582B000AF78607B681B6860
:10284000B3F1804F40D1224B1B88002B10D0204B7E
:102850001B88013B9AB21E4B1A801D4B1B88002B14
:1028600006D11C4B01221A801B4B1A88184B1A8068
:102870001A4B1B88002B10D0184B1B88013B9AB2B7
:10288000164B1A80154B1B88002B06D1144B0122C6
:102890001A80144B1A88114B1A80134B1B88002B7B
:1028A00010D0114B1B88013B9AB20F4B1A800E4B74
:1028B0001B88002B06D10D4B01221A800C4B1A8865
:1028C000094B1A80FEF7FEFD00BF0837BD4680BDEC
:1028D000BA000020B8000020BC000020C00000208A
:1028E000BE000020C2000020C6000020C40000205E
:1028F000C800002080B500AF174B184A1A60164B6D
:102900004FF482725A60144B00229A60124B0022DC
:10291000DA60114B00221A610F4B00225A610E4BF4
:102920004FF400729A610C4B0022DA610A4B0022CC
:102930001A62094B00225A62074B00229A62064B28
:102940000A22DA62044802F021FC0346002B01D07F
:10295000FFF70CFF00BF80BDF401002000300140F4
:1029600080B58AB000AF786007F1140300221A60C6
:102970005A609A60DA601A617B681B68194A934250
:102980002BD100233B61184B5B6C174A43F48053F7
:102990005364154B5B6C03F480533B613B6900232C
:1029A000FB60114B1B6B104A43F0020313630E4B89
:1029B0001B6B03F00203FB60FB6838237B6102237F
:1029C000BB610023FB6103233B6205237B6207F1AC
:1029D00014031946054800F0A7FC00BF2837BD4680
:1029E00080BD00BF003001400038024000040240BA
:1029F00080B483B000AF00237B60104B5B6C0F4A48
:102A000043F4804353640D4B5B6C03F480437B6061
:102A10007B6800233B60094B1B6C084A43F08053E2
:102A20001364064B1B6C03F080533B603B6800BF94
:102A30000C37BD465DF8047B704700BF003802408C
:102A400080B400AFFEE780B400AFFEE780B400AF13
:102A5000FEE780B400AFFEE780B400AFFEE780B4CD
:102A600000AF00BFBD465DF8047B704780B400AF87
:102A700000BFBD465DF8047B704780B400AF00BF67
:102A8000BD465DF8047B704780B500AF00F064FA86
:102A900000BF80BD80B500AF024803F023FA00BF3D
:102AA00080BD00BF4C02002080B500AF024803F09B
:102AB000EBFE00BF80BD00BF5C03002080B586B088
:102AC00000AF7860144A154BD31A7B617B693B6178
:102AD000134B1B68002B02D1114B124A1A60104B8A
:102AE0001A687B6813443A699A4207D204F054FE8C
:102AF00003460C221A604FF0FF3309E0084B1B68B5
:102B0000FB60074B1A687B681344054A1360FB6837
:102B100018461837BD4680BD0000022000040000A2
:102B2000CC000020B803002080B400AF064BD3F8DF
:102B30008830054A43F47003C2F8883000BFBD46B0
:102B40005DF8047B704700BF00ED00E080B586B003
:102B500000AF07F1080300221A605A609A60DA6039
:102B60003B4600221A605A601D4B4FF080421A60AB
:102B70001B4B40F247325A60194B00229A60184BA7
:102B80006322DA60164B00221A61154B00229A610B
:102B9000134803F0E7F80346002B01D0FFF7E6FDEA
:102BA0004FF48053BB6007F1080319460C4803F04B
:102BB000A1FA0346002B01D0FFF7D8FD00233B60AC
:102BC00000237B603B461946054803F0BDFC0346E5
:102BD000002B01D0FFF7CAFD00BF1837BD4680BDEE
:102BE0004C02002080B584B000AF78607B681B6821
:102BF000B3F1804F15D10023FB600C4B1B6C0B4ACB
:102C000043F001031364094B1B6C03F00103FB60E9
:102C1000FB68002200211C2000F0BDFA1C2000F0FF
:102C2000D6FA00BF1037BD4680BD00BF0038024055
:102C300080B500AF01220349034803F0F4FD00BF53
:102C400080BD00BFD00000205C03002080B582B0B2
:102C500000AF78607A680749074804F0CFFD034663
:102C60009AB20A230449054803F04BFD00BF083718
:102C7000BD4680BDB0800008F80200205C03002043
:102C800080B582B000AF78607B681B68124A9342BF
:102C90001DD1124B1B68622B0ED8104B1B685A1C9F
:102CA0000E490A600E4A11780E4AD1540B4B1B682C
:102CB0000C4A0021D15402E0084B00221A600A4B52
:102CC00001221A6001220649084803F0ACFD00BF4A
:102CD0000837BD4680BD00BF00100140D400002071
:102CE000D000002094020020D80000205C030020C7
:102CF00080B500AF114B124A1A60104B4FF4E1320D
:102D00005A600E4B00229A600C4B0022DA600B4B8B
:102D100000221A61094B0C225A61084B00229A6169
:102D2000064B0022DA61054803F09EFC0346002BA7
:102D300001D0FFF71BFD00BF80BD00BF5C0300207A
:102D40000010014080B58AB000AF786007F114032D
:102D500000221A605A609A60DA601A617B681B6808
:102D60001D4A934234D100233B611C4B5B6C1B4AD0
:102D700043F010035364194B5B6C03F010033B6189
:102D80003B690023FB60154B1B6B144A43F00103A6
:102D90001363124B1B6B03F00103FB60FB684FF4E2
:102DA000C0637B610223BB610023FB6103233B62A1
:102DB00007237B6207F114031946094800F0B4FAAF
:102DC00000220021252000F0E6F9252000F0FFF97F
:102DD00000BF2837BD4680BD0010014000380240CA
:102DE0000000024080B483B000AF0346FB71FB7962
:102DF0001B09DBB21A46920013445B00DAB2FB797E
:102E000003F00F03DBB21344DBB218460C37BD46A8
:102E10005DF8047B7047000080B483B000AF0346C8
:102E2000FB71FB790D4AA2FB0323DB08DBB21B011C
:102E300058B2FA79094BA3FB0213D9080B469B0041
:102E40000B445B00D31ADBB25BB203435BB2DBB271
:102E500018460C37BD465DF8047B7047CDCCCCCC12
:102E6000DFF834D00D480E490E4A002302E0D45852
:102E7000C4500433C4188C42F9D30B4A0B4C0023C2
:102E800001E013600432A242FBD3FFF74DFE04F0D1
:102E900089FCFEF7A3FB7047000002200000002021
:102EA00078000020A0B0000878000020B4030020C3
:102EB000FEE7000080B500AF0E4B1B680D4A43F4DF
:102EC000007313600B4B1B680A4A43F48063136062
:102ED000084B1B68074A43F480731360032000F01B
:102EE0004FF90F2000F008F8FFF782FD0023184685
:102EF00080BD00BF003C024080B582B000AF78606A
:102F0000124B1A68124B1B7819464FF47A73B3FBB5
:102F1000F1F3B2FBF3F3184600F067F90346002B18
:102F200001D001230EE07B680F2B0AD800227968BC
:102F30004FF0FF3000F02FF9064A7B681360002342
:102F400000E0012318460837BD4680BD0800002078
:102F5000100000200C00002080B400AF064B1B784E
:102F60001A46064B1B681344044A136000BFBD4653
:102F70005DF8047B704700BF10000020A003002014
:102F800080B400AF034B1B681846BD465DF8047B58
:102F9000704700BFA003002080B584B000AF786008
:102FA000FFF7EEFFB8607B68FB60FB68B3F1FF3FA3
:102FB00005D00A4B1B781A46FB681344FB6000BF20
:102FC000FFF7DEFF0246BB68D31AFA689A42F7D8C9
:102FD00000BF00BF1037BD4680BD00BF10000020FD
:102FE00080B485B000AF78607B6803F00703FB60B6
:102FF0000C4BDB68BB60BA684FF6FF031340BB6045
:10300000FB681A02BB68134343F0BF6343F4003309
:10301000BB60044ABB68D36000BF1437BD465DF88F
:10302000047B704700ED00E080B400AF044BDB6828
:103030001B0A03F007031846BD465DF8047B704782
:1030400000ED00E080B483B000AF0346FB7197F958
:103050000730002B0BDBFB7903F01F02074997F9C0
:1030600007305B09012000FA02F241F8232000BF7B
:103070000C37BD465DF8047B704700BF00E100E0FF
:1030800080B483B000AF03463960FB7197F9073015
:10309000002B0ADB3B68DAB20C4997F907301201C2
:1030A000D2B20B4483F800230AE03B68DAB2084945
:1030B000FB7903F00F03043B1201D2B20B441A76E2
:1030C00000BF0C37BD465DF8047B704700E100E0AF
:1030D00000ED00E080B489B000AFF860B9607A60BC
:1030E000FB6803F00703FB61FB69C3F10703042BD3
:1030F00028BF0423BB61FB690433062B02D9FB699B
:10310000033B00E000237B614FF0FF32BB6902FA12
:1031100003F3DA43BB681A407B699A404FF0FF31F2
:103120007B6901FA03F3D9437B680B4013431846CC
:103130002437BD465DF8047B7047000080B582B03F
:1031400000AF78607B68013BB3F1807F01D301233E
:103150000FE00A4A7B68013B53600F214FF0FF30BC
:10316000FFF78EFF054B00229A60044B07221A607E
:10317000002318460837BD4680BD00BF10E000E0C0
:1031800080B582B000AF78607868FFF729FF00BF94
:103190000837BD4680BD80B586B000AF0346B96034
:1031A0007A60FB7300237B61FFF73EFF78617A68EA
:1031B000B9687869FFF78EFF024697F90F3011461C
:1031C0001846FFF75DFF00BF1837BD4680BD80B5CC
:1031D00082B000AF0346FB7197F907301846FFF73E
:1031E00031FF00BF0837BD4680BD80B582B000AF5B
:1031F00078607868FFF7A2FF034618460837BD4697
:1032000080BD80B584B000AF78607B689B6DFB604B
:10321000FFF7B6FEB8607B6893F83530DBB2022B5F
:1032200008D07B6880225A657B68002283F83420AE
:10323000012352E07B681B681A687B681B6822F0D8
:1032400016021A607B681B685A697B681B6822F04B
:1032500080025A617B681B6C002B03D17B689B6CDE
:10326000002B07D07B681B681A687B681B6822F0FC
:1032700008021A607B681B681A687B681B6822F06A
:1032800001021A6013E0FFF77BFE0246BB68D31A07
:10329000052B0CD97B6820225A657B68032283F8B2
:1032A00035207B68002283F83420032315E07B68F7
:1032B0001B681B6803F00103002BE4D17B68DB6D06
:1032C0003F229A40FB689A607B68012283F8352090
:1032D0007B68002283F83420002318461037BD464F
:1032E00080BD80B483B000AF78607B6893F83530E0
:1032F000DBB2022B04D07B6880225A6501230CE0EC
:103300007B68052283F835207B681B681A687B6818
:103310001B6822F001021A60002318460C37BD46D4
:103320005DF8047B7047000080B489B000AF78601E
:10333000396000237B6100233B610023BB610023D4
:10334000FB616BE10122FB6902FA03F37B613B68DD
:103350001B687A6913403B613A697B699A4240F085
:103360005A813B685B6803F00303012B05D03B687F
:103370005B6803F00303022B30D17B689B68BB6161
:10338000FB695B00032202FA03F3DB43BA691340D3
:10339000BB613B68DA68FB695B0002FA03F3BA6958
:1033A0001343BB617B68BA699A607B685B68BB61E9
:1033B0000122FB6902FA03F3DB43BA691340BB61E4
:1033C0003B685B681B0903F00102FB6902FA03F327
:1033D000BA691343BB617B68BA695A603B685B6832
:1033E00003F00303032B17D07B68DB68BB61FB6929
:1033F0005B00032202FA03F3DB43BA691340BB61AB
:103400003B689A68FB695B0002FA03F3BA691343ED
:10341000BB617B68BA69DA603B685B6803F00303F1
:10342000022B23D1FB69DA087B68083253F822307B
:10343000BB61FB6903F007039B000F2202FA03F351
:10344000DB43BA691340BB613B681A69FB6903F04F
:1034500007039B0002FA03F3BA691343BB61FB69DC
:10346000DA087B680832B96943F822107B681B6868
:10347000BB61FB695B00032202FA03F3DB43BA6919
:103480001340BB613B685B6803F00302FB695B00B0
:1034900002FA03F3BA691343BB617B68BA691A6025
:1034A0003B685B6803F44033002B00F0B4800023DA
:1034B000FB60604B5B6C5F4A43F4804353645D4B3D
:1034C0005B6C03F48043FB60FB685B4AFB699B0811
:1034D000023352F82330BB61FB6903F003039B0006
:1034E0000F2202FA03F3DB43BA691340BB617B6826
:1034F000524A93422BD07B68514A934225D07B6835
:10350000504A93421FD07B684F4A934219D07B6840
:103510004E4A934213D07B684D4A93420DD07B684C
:103520004C4A934207D07B684B4A934201D1072310
:103530000EE008230CE006230AE0052308E004233C
:1035400006E0032304E0022302E0012300E000235D
:10355000FA6902F0030292009340BA691343BB6117
:103560003549FB699B080233BA6941F823203B4B7C
:103570001B68BB613B69DB43BA691340BB613B68B5
:103580005B6803F48033002B03D0BA693B691343B3
:10359000BB61324ABB691360304B5B68BB613B69FE
:1035A000DB43BA691340BB613B685B6803F40033DB
:1035B000002B03D0BA693B691343BB61274ABB693F
:1035C0005360264B9B68BB613B69DB43BA69134080
:1035D000BB613B685B6803F48013002B03D0BA69BE
:1035E0003B691343BB611D4ABB6993601B4BDB689E
:1035F000BB613B69DB43BA691340BB613B685B68F5
:1036000003F40013002B03D0BA693B691343BB6179
:10361000124ABB69D360FB690133FB61FB690F2B65
:103620007FF690AE00BF00BF2437BD465DF8047B37
:10363000704700BF003802400038014000000240DF
:103640000004024000080240000C0240001002404A
:103650000014024000180240001C0240003C0140DF
:1036600080B483B000AF78600B467B8013467B70DC
:103670007B78002B03D07A887B689A6103E07B8893
:103680001A047B689A6100BF0C37BD465DF8047B65
:10369000704780B485B000AF78600B467B807B6854
:1036A0005B69FB607A88FB6813401A04FB68D943A6
:1036B0007B880B401A437B689A6100BF1437BD4674
:1036C0005DF8047B7047000080B584B000AF78607F
:1036D0007B68002B01D101232BE17B6893F83D30FF
:1036E000DBB2002B06D17B68002283F83C2078688F
:1036F000FDF772FA7B68242283F83D207B681B6803
:103700001A687B681B6822F001021A607B681B68DC
:103710001A687B681B6842F400421A607B681B6869
:103720001A687B681B6822F400421A6001F006FDEB
:10373000F8607B685B68814A934207D8FB68804ADF
:10374000934294BF01230023DBB206E0FB687D4A6D
:10375000934294BF01230023DBB2002B01D001234D
:10376000E7E0FB68784AA2FB03239B0CBB607B6805
:103770001B685B6823F03F017B681B68BA680A43DB
:103780005A607B681B681B6A23F03F017B685B689B
:103790006A4A934202D8BB68013309E0BB684FF420
:1037A000967202FB03F3694AA2FB03239B090133D0
:1037B0007A6812680B4313627B681B68DB6923F429
:1037C0004F4222F0FF027B685B685C498B4219D84C
:1037D000FB68591E7B685B685B00B1FBF3F3591C07
:1037E00040F6FC730B40002B0AD0FB68591E7B6827
:1037F0005B685B00B1FBF3F30133C3F30B0351E0F0
:1038000004234FE07B689B68002B11D1FB68581E96
:103810007B6859680B465B000B44B0FBF3F3013344
:10382000C3F30B03002B0CBF01230023DBB212E018
:10383000FB68581E7B6859680B469B000B44990037
:103840000B44B0FBF3F30133C3F30B03002B0CBFAA
:1038500001230023DBB2002B01D0012322E07B688F
:103860009B68002B0ED1FB68581E7B6859680B467D
:103870005B000B44B0FBF3F30133C3F30B0343F4DE
:1038800000430FE0FB68581E7B6859680B469B009D
:103890000B4499000B44B0FBF3F30133C3F30B0368
:1038A00043F44043796809681343CB617B681B6824
:1038B0001B6823F0C0017B68DA697B681B6A1A43C6
:1038C0007B681B680A431A607B681B689B6823F44B
:1038D000034323F0FF037A6811697A68D2681143C1
:1038E0007A6812680B4393607B681B68DB6823F07F
:1038F000FF017B685A697B689B691A437B681B6878
:103900000A43DA607B681B681A687B681B6842F0B0
:1039100001021A607B6800221A647B68202283F807
:103920003D207B6800221A637B68002283F83E20DA
:10393000002318461037BD4680BD00BFA086010099
:103940007F841E00FF083D0083DE1B43D34D6210C1
:1039500080B588B002AFF860084611461A460346A3
:103960007B810B463B811346FB80FFF709FB7861A7
:10397000FB6893F83D30DBB2202B40F0D9807B69A7
:103980000093192301226D49F86800F0ADFD03464C
:10399000002B01D00223CCE0FB6893F83C30012BD4
:1039A00001D10223C5E0FB68012283F83C20FB68BB
:1039B0001B681B6803F00103012B07D0FB681B6821
:1039C0001A68FB681B6842F001021A60FB681B68FA
:1039D0001A68FB681B6822F400621A60FB682122E7
:1039E00083F83D20FB68402283F83E20FB680022DC
:1039F0001A64FB683A6A5A62FB68BA8C5A85FB689B
:103A00005B8D9AB2FB681A85FB684D4ADA62F888CA
:103A10003A8979897B690193BB6A00930346F86808
:103A200000F0E4FB0346002B52D0012381E07A69C9
:103A3000B96AF86800F02EFE0346002B0DD0FB6833
:103A40001B6C042B07D1FB681B681A68FB681B689A
:103A500042F400721A6001236BE0FB685B6A1A781B
:103A6000FB681B681A61FB685B6A5A1CFB685A6238
:103A7000FB681B8D013B9AB2FB681A85FB685B8D66
:103A80009BB2013B9AB2FB685A85FB681B685B6975
:103A900003F00403042B1BD1FB681B8D002B17D0F4
:103AA000FB685B6A1A78FB681B681A61FB685B6AD3
:103AB0005A1CFB685A62FB681B8D013B9AB2FB687B
:103AC0001A85FB685B8D9BB2013B9AB2FB685A85F5
:103AD000FB681B8D002BAAD17A69B96AF86800F0DF
:103AE0001AFE0346002B0DD0FB681B6C042B07D17C
:103AF000FB681B681A68FB681B6842F400721A6056
:103B0000012316E0FB681B681A68FB681B6842F417
:103B100000721A60FB68202283F83D20FB680022B7
:103B200083F83E20FB68002283F83C20002300E05D
:103B3000022318461837BD4680BD00BF02001000A2
:103B40000000FFFF80B58CB002AFF8600846114658
:103B50001A4603467B810B463B811346FB80FFF7E9
:103B60000FFA7862FB6893F83D30DBB2202B40F00F
:103B700008827B6A0093192301227B49F86800F0D0
:103B8000B3FC0346002B01D00223FBE1FB6893F852
:103B90003C30012B01D10223F4E1FB68012283F8C0
:103BA0003C20FB681B681B6803F00103012B07D056
:103BB000FB681B681A68FB681B6842F001021A6008
:103BC000FB681B681A68FB681B6822F400621A60B5
:103BD000FB68222283F83D20FB68402283F83E20C8
:103BE000FB6800221A64FB683A6B5A62FB68BA8E63
:103BF0005A85FB685B8D9AB2FB681A85FB685B4A45
:103C0000DA62F8883A8979897B6A0193BB6B009301
:103C10000346F86800F080FB0346002B01D0012327
:103C2000B0E1FB681B8D002B13D100233B62FB68C6
:103C30001B685B693B62FB681B689B693B623B6A74
:103C4000FB681B681A68FB681B6842F400721A6004
:103C500084E1FB681B8D012B1BD1FB681B681A6874
:103C6000FB681B6822F480621A600023FB61FB681A
:103C70001B685B69FB61FB681B689B69FB61FB69F7
:103C8000FB681B681A68FB681B6842F400721A60C4
:103C900064E1FB681B8D022B1BD1FB681B681A6853
:103CA000FB681B6822F480621A60FB681B681A6854
:103CB000FB681B6842F400621A600023BB61FB686A
:103CC0001B685B69BB61FB681B689B69BB61BB6967
:103CD00044E100237B61FB681B685B697B61FB68D7
:103CE0001B689B697B617B6938E1FB681B8D032B3B
:103CF00000F2F180FB681B8D012B23D17A6AB96B2E
:103D0000F86800F049FD0346002B01D0012339E19A
:103D1000FB681B681A69FB685B6AD2B21A70FB68A1
:103D20005B6A5A1CFB685A62FB681B8D013B9AB2A6
:103D3000FB681A85FB685B8D9BB2013B9AB2FB68FE
:103D40005A850BE1FB681B8D022B4ED17B6A0093D9
:103D5000BB6B00220649F86800F0C6FB0346002B47
:103D600008D001230EE100BF020010000000FFFF99
:103D700004000100FB681B681A68FB681B6842F4BA
:103D800000721A60FB681B681A69FB685B6AD2B232
:103D90001A70FB685B6A5A1CFB685A62FB681B8DD1
:103DA000013B9AB2FB681A85FB685B8D9BB2013BB5
:103DB0009AB2FB685A85FB681B681A69FB685B6AE4
:103DC000D2B21A70FB685B6A5A1CFB685A62FB68C5
:103DD0001B8D013B9AB2FB681A85FB685B8D9BB219
:103DE000013B9AB2FB685A85B8E07B6A0093BB6BD3
:103DF00000226649F86800F077FB0346002B01D0EB
:103E00000123BFE0FB681B681A68FB681B6822F48B
:103E100080621A60FB681B681A69FB685B6AD2B231
:103E20001A70FB685B6A5A1CFB685A62FB681B8D40
:103E3000013B9AB2FB681A85FB685B8D9BB2013B24
:103E40009AB2FB685A857B6A0093BB6B00224F498C
:103E5000F86800F049FB0346002B01D0012391E0F4
:103E6000FB681B681A68FB681B6842F400721A60E2
:103E7000FB681B681A69FB685B6AD2B21A70FB6840
:103E80005B6A5A1CFB685A62FB681B8D013B9AB245
:103E9000FB681A85FB685B8D9BB2013B9AB2FB689D
:103EA0005A85FB681B681A69FB685B6AD2B21A7094
:103EB000FB685B6A5A1CFB685A62FB681B8D013BFE
:103EC0009AB2FB681A85FB685B8D9BB2013B9AB284
:103ED000FB685A8542E07A6AB96BF86800F05CFCCE
:103EE0000346002B01D001234CE0FB681B681A69D4
:103EF000FB685B6AD2B21A70FB685B6A5A1CFB688B
:103F00005A62FB681B8D013B9AB2FB681A85FB68FD
:103F10005B8D9BB2013B9AB2FB685A85FB681B68BC
:103F20005B6903F00403042B18D1FB681B681A6952
:103F3000FB685B6AD2B21A70FB685B6A5A1CFB684A
:103F40005A62FB681B8D013B9AB2FB681A85FB68BD
:103F50005B8D9BB2013B9AB2FB685A85FB681B8D57
:103F6000002B7FF4C2AEFB68202283F83D20FB6863
:103F7000002283F83E20FB68002283F83C200023C7
:103F800000E0022318462837BD4680BD040001002A
:103F900080B58AB002AFF8607A603B600B467B81E7
:103FA000FEF7EEFFF8610123BB61FB6893F83D303B
:103FB000DBB2202B40F01181FB6900931923012211
:103FC0008849F86800F090FA0346002B01D00223DC
:103FD00004E1FB6893F83C30012B01D10223FDE0A2
:103FE000FB68012283F83C20FB681B681B6803F018
:103FF0000103012B07D0FB681B681A68FB681B686C
:1040000042F001021A60FB681B681A68FB681B68B3
:1040100022F400621A60FB68242283F83D20FB68CA
:1040200000221A64FB68704ADA62FB681B681A682F
:10403000FB681B6842F480721A60FB6900933B685E
:1040400000224FF00111F86800F04EFA0346002BF1
:104050000DD0FB681B681B6803F48073B3F5807F89
:1040600003D1FB684FF400721A640323B6E07B8926
:10407000DBB21A46FB681B6802F0FE021A61FEF70B
:104080007FFFF861FB681B685B6903F00203022B8A
:104090000CBF01230023DBB2FB75FB681B685B6967
:1040A00003F48063B3F5806F0CBF01230023DBB200
:1040B000BB7525E0FEF764FF0246FB69D31A3A6838
:1040C0009A4202D33B68002B03D1FB68A02283F8FD
:1040D0003D20FB681B685B6903F00203022B0CBFE9
:1040E00001230023DBB2FB75FB681B685B6903F4EB
:1040F0008063B3F5806F0CBF01230023DBB2BB7577
:10410000FB6893F83D30DBB2A02B05D0FB7D002B84
:1041100002D1BB7D002BCDD0FB68202283F83D204F
:10412000FB681B685B6903F00203022B29D1FB6863
:104130001B681A68FB681B6842F400721A6000234F
:104140003B61FB681B685B693B61FB681B689B69A3
:104150003B613B69FB690093192301222149F868FF
:1041600000F0C2F90346002B01D0012336E0FB68C2
:10417000202283F83D20FB68002283F83C200023A6
:104180002CE0FB681B681A68FB681B6842F400722D
:104190001A60FB681B686FF480625A61FB690093C8
:1041A000192301220F49F86800F09EF90346002BFD
:1041B00001D0012312E0BB690133BB61BA697B689E
:1041C0009A42FFF432AFFB68202283F83D20FB685F
:1041D000002283F83C20012300E002231846203708
:1041E000BD4680BD020010000000FFFF80B588B012
:1041F00002AFF860084611461A4603467B810B461B
:104200003B811346FB80FB681B681A68FB681B68D0
:1042100042F480721A607B6A00933B6A00224FF07E
:104220000111F86800F060F90346002B0DD0FB681F
:104230001B681B6803F48073B3F5807F03D1FB68B0
:104240004FF400721A6403235FE07B89DBB21A46E5
:10425000FB681B6802F0FE021A617B6A3A6A2D490C
:10426000F86800F098F90346002B01D001234CE0D8
:1042700000237B61FB681B685B697B61FB681B68D3
:104280009B697B617B697A6A396AF86800F002FA97
:104290000346002B0DD0FB681B6C042B07D1FB6879
:1042A0001B681A68FB681B6842F400721A600123DD
:1042B0002BE0FB88012B05D13B89DAB2FB681B6838
:1042C0001A6121E03B891B0A9BB2DAB2FB681B68CA
:1042D0001A617A6A396AF86800F0DCF90346002B43
:1042E0000DD0FB681B6C042B07D1FB681B681A6898
:1042F000FB681B6842F400721A60012305E03B89E9
:10430000DAB2FB681B681A61002318461837BD46ED
:1043100080BD00BF0200010080B588B002AFF86028
:10432000084611461A4603467B810B463B811346DD
:10433000FB80FB681B681A68FB681B6842F480629C
:104340001A60FB681B681A68FB681B6842F480727D
:104350001A607B6A00933B6A00224FF00111F868F3
:1043600000F0C2F80346002B0DD0FB681B681B68E9
:1043700003F48073B3F5807F03D1FB684FF40072C0
:104380001A640323AAE07B89DBB21A46FB681B6828
:1043900002F0FE021A617B6A3A6A5249F86800F03C
:1043A000FAF80346002B01D0012397E000237B613C
:1043B000FB681B685B697B61FB681B689B697B61B1
:1043C0007B697A6A396AF86800F064F90346002B61
:1043D0000DD0FB681B6C042B07D1FB681B681A68A7
:1043E000FB681B6842F400721A60012376E0FB88C8
:1043F000012B05D13B89DAB2FB681B681A6121E009
:104400003B891B0A9BB2DAB2FB681B681A617A6AA5
:10441000396AF86800F03EF90346002B0DD0FB68BE
:104420001B6C042B07D1FB681B681A68FB681B68B0
:1044300042F400721A60012350E03B89DAB2FB6853
:104440001B681A617A6A396AF86800F023F9034632
:10445000002B0DD0FB681B6C042B07D1FB681B687D
:104460001A68FB681B6842F400721A60012335E089
:10447000FB681B681A68FB681B6842F480721A604C
:104480007B6A00933B6A00224FF00111F86800F04C
:104490002BF80346002B0DD0FB681B681B6803F448
:1044A0008073B3F5807F03D1FB684FF400721A6408
:1044B000032313E07B89DBB243F00103DAB2FB682C
:1044C0001B681A617B6A3A6A0649F86800F063F86B
:1044D0000346002B01D0012300E0002318461837C3
:1044E000BD4680BD0200010080B584B000AFF86019
:1044F000B9603B601346FB7125E03B68B3F1FF3FB9
:1045000021D0FEF73DFD0246BB69D31A3A689A42B4
:1045100002D33B68002B16D1FB6800221A63FB68AC
:10452000202283F83D20FB68002283F83E20FB68B0
:104530001B6C43F02002FB681A64FB68002283F8BE
:104540003C20012323E0BB681B0CDBB2012B0DD107
:10455000FB681B685B69DA43BB6813409BB2002BA6
:104560000CBF01230023DBB21A460CE0FB681B687A
:104570009B69DA43BB6813409BB2002B0CBF01233D
:104580000023DBB21A46FB799A42B6D000231846C4
:104590001037BD4680BD80B584B000AFF860B9600B
:1045A0007A603B6051E0FB681B685B6903F48063E1
:1045B000B3F5806F23D1FB681B681A68FB681B6822
:1045C00042F400721A60FB681B686FF480625A61E3
:1045D000FB6800221A63FB68202283F83D20FB68F9
:1045E000002283F83E20FB681B6C43F00402FB684A
:1045F0001A64FB68002283F83C20012346E07B68B4
:10460000B3F1FF3F21D0FEF7BBFC02463B68D31A53
:104610007A689A4202D37B68002B16D1FB6800228D
:104620001A63FB68202283F83D20FB68002283F890
:104630003E20FB681B6C43F02002FB681A64FB6899
:10464000002283F83C20012320E0BB681B0CDBB276
:10465000012B0CD1FB681B685B69DA43BB68134014
:104660009BB2002B14BF01230023DBB20BE0FB68DD
:104670001B689B69DA43BB6813409BB2002B14BFD5
:1046800001230023DBB2002B8DD100231846103705
:10469000BD4680BD80B584B000AFF860B9607A6077
:1046A0002DE0F86800F0CEF80346002B01D001237E
:1046B0002DE0BB68B3F1FF3F21D0FEF761FC02465D
:1046C0007B68D31ABA689A4202D3BB68002B16D112
:1046D000FB6800221A63FB68202283F83D20FB68F8
:1046E000002283F83E20FB681B6C43F02002FB682D
:1046F0001A64FB68002283F83C20012307E0FB6872
:104700001B685B6903F08003802BCAD10023184625
:104710001037BD4680BD80B584B000AFF860B96089
:104720007A602DE0F86800F08DF80346002B01D088
:1047300001232DE0BB68B3F1FF3F21D0FEF720FC41
:1047400002467B68D31ABA689A4202D3BB68002B30
:1047500016D1FB6800221A63FB68202283F83D20F3
:10476000FB68002283F83E20FB681B6C43F02002AC
:10477000FB681A64FB68002283F83C20012307E0F1
:10478000FB681B685B6903F00403042BCAD1002398
:1047900018461037BD4680BD80B584B000AFF860C4
:1047A000B9607A6042E0FB681B685B6903F0100344
:1047B000102B19D1FB681B686FF010025A61FB685F
:1047C00000221A63FB68202283F83D20FB68002248
:1047D00083F83E20FB681A6CFB681A64FB680022B1
:1047E00083F83C20012329E0FEF7CAFB02467B68E0
:1047F000D31ABA689A4202D3BB68002B16D1FB6861
:1048000000221A63FB68202283F83D20FB68002207
:1048100083F83E20FB681B6C43F02002FB681A649F
:10482000FB68002283F83C20012307E0FB681B683B
:104830005B6903F04003402BB5D1002318461037C5
:10484000BD4680BD80B483B000AF78607B681B68D4
:104850005B6903F48063B3F5806F1BD17B681B68D1
:104860006FF480625A617B6800221A637B682022A1
:1048700083F83D207B68002283F83E207B681B6C18
:1048800043F004027B681A647B68002283F83C20B2
:10489000012300E0002318460C37BD465DF8047B79
:1048A0007047000080B586B000AF78607B68002B51
:1048B00001D1012364E27B681B6803F00103002B34
:1048C00075D0A34B9B6803F00C03042B0CD0A04BBA
:1048D0009B6803F00C03082B12D19D4B5B6803F41B
:1048E0008003B3F5800F0BD1994B1B6803F40033A1
:1048F000002B5BD07B685B68002B57D101233FE224
:104900007B685B68B3F5803F06D1914B1B68904A8A
:1049100043F4803313601DE07B685B68B3F5A02F20
:104920000CD18B4B1B688A4A43F480231360884B5D
:104930001B68874A43F4803313600BE0844B1B6889
:10494000834A23F480331360814B1B68804A23F42D
:10495000802313607B685B68002B13D0FEF710FB8D
:10496000386108E0FEF70CFB02463B69D31A642B62
:1049700001D9032304E2764B1B6803F40033002BB8
:10498000F0D014E0FEF7FCFA386108E0FEF7F8FA20
:1049900002463B69D31A642B01D90323F0E16C4B27
:1049A0001B6803F40033002BF0D100E000BF7B68EC
:1049B0001B6803F00203002B63D0654B9B6803F078
:1049C0000C03002B0BD0624B9B6803F00C03082BED
:1049D0001CD15F4B5B6803F48003002B16D15C4B4A
:1049E0001B6803F00203002B05D07B68DB68012BFA
:1049F00001D00123C4E1564B1B6823F0F8027B6809
:104A00001B69DB00524913430B603AE07B68DB68AB
:104A1000002B20D04F4B01221A60FEF7B1FA38610B
:104A200008E0FEF7ADFA02463B69D31A022B01D922
:104A30000323A5E1464B1B6803F00203002BF0D0D3
:104A4000434B1B6823F0F8027B681B69DB0040497D
:104A500013430B6015E03F4B00221A60FEF790FAFB
:104A6000386108E0FEF78CFA02463B69D31A022B44
:104A700001D9032384E1364B1B6803F00203002BAA
:104A8000F0D17B681B6803F00803002B30D07B68F3
:104A90005B69002B16D0304B01221A60FEF770FACA
:104AA000386108E0FEF76CFA02463B69D31A022B24
:104AB00001D9032364E1264B5B6F03F00203002B53
:104AC000F0D015E0244B00221A60FEF759FA386145
:104AD00008E0FEF755FA02463B69D31A022B01D9CA
:104AE00003234DE11A4B5B6F03F00203002BF0D15F
:104AF0007B681B6803F00403002B00F0A0800023F8
:104B0000FB75134B1B6C03F08053002B0FD100235C
:104B1000BB600F4B1B6C0E4A43F0805313640C4B6D
:104B20001B6C03F08053BB60BB680123FB750B4B10
:104B30001B6803F48073002B21D1084B1B68074AC4
:104B400043F480731360FEF71BFA386111E000BF75
:104B50000038024000004742800E4742007000408B
:104B6000FEF70EFA02463B69D31A022B01D9032342
:104B700006E1854B1B6803F48073002BF0D07B6843
:104B80009B68012B06D1814B1B6F804A43F00103C8
:104B900013671CE07B689B68052B0CD17B4B1B6F5C
:104BA0007A4A43F004031367784B1B6F774A43F04C
:104BB000010313670BE0754B1B6F744A23F001036D
:104BC0001367724B1B6F714A23F0040313677B68F2
:104BD0009B68002B15D0FEF7D3F938610AE0FEF789
:104BE000CFF902463B69D31A41F28832934201D988
:104BF0000323C5E0654B1B6F03F00203002BEED0CF
:104C000014E0FEF7BDF938610AE0FEF7B9F9024693
:104C10003B69D31A41F28832934201D90323AFE0B2
:104C20005A4B1B6F03F00203002BEED1FB7D012BCF
:104C300005D1564B1B6C554A23F0805313647B6897
:104C40009B69002B00F09B80504B9B6803F00C038A
:104C5000082B5CD07B689B69022B41D14C4B002216
:104C60001A60FEF78DF9386108E0FEF789F902460F
:104C70003B69D31A022B01D9032381E0434B1B6804
:104C800003F00073002BF0D17B68DA697B681B6A44
:104C90001A437B685B6A9B011A437B689B6A5B08CB
:104CA000013B1B041A437B68DB6A1B06374913432D
:104CB0004B60374B01221A60FEF762F9386108E059
:104CC000FEF75EF902463B69D31A022B01D9032392
:104CD00056E02E4B1B6803F00073002BF0D04EE023
:104CE0002B4B00221A60FEF74BF9386108E0FEF703
:104CF00047F902463B69D31A022B01D903233FE04F
:104D0000224B1B6803F00073002BF0D137E07B6867
:104D10009B69012B01D1012332E01C4B5B68FB60D6
:104D20007B689B69012B28D0FB6803F480027B68B9
:104D3000DB699A4221D1FB6803F03F027B681B6A62
:104D40009A421AD1FA6847F6C07313407A68526AD9
:104D50009201934211D1FB6803F440327B689B6A55
:104D60005B08013B1B049A4207D1FB6803F07062A9
:104D70007B68DB6A1B069A4201D0012300E0002316
:104D800018461837BD4680BD00700040003802400C
:104D90006000474280B584B000AF786039607B68BE
:104DA000002B01D10123CCE0684B1B6803F0070303
:104DB0003A689A420CD9654B3A68D2B21A70634B82
:104DC0001B6803F007033A689A4201D00123B8E058
:104DD0007B681B6803F00203002B20D07B681B68F4
:104DE00003F00403002B05D0594B9B68584A43F449
:104DF000E05393607B681B6803F00803002B05D029
:104E0000534B9B68524A43F460439360504B9B68FA
:104E100023F0F0027B689B684D4913438B607B68ED
:104E20001B6803F00103002B44D07B685B68012BF7
:104E300007D1474B1B6803F40033002B19D1012322
:104E40007FE07B685B68022B03D07B685B68032B89
:104E500007D13F4B1B6803F00073002B09D10123DE
:104E60006FE03B4B1B6803F00203002B01D10123D1
:104E700067E0374B9B6823F003027B685B6834492B
:104E800013438B60FEF77CF8F8600AE0FEF778F8D1
:104E90000246FB68D31A41F28832934201D90323B8
:104EA0004FE02B4B9B6803F00C027B685B689B0018
:104EB0009A42EBD1254B1B6803F007033A689A42EC
:104EC0000CD2224B3A68D2B21A70204B1B6803F006
:104ED00007033A689A4201D0012332E07B681B68DD
:104EE00003F00403002B08D0194B9B6823F4E05215
:104EF0007B68DB68164913438B607B681B6803F093
:104F00000803002B09D0124B9B6823F460427B6896
:104F10001B69DB000E4913438B6000F021F8024649
:104F20000B4B9B681B0903F00F030A49CB5C22FA69
:104F300003F3094A1360094B1B681846FDF7DCFFB1
:104F4000002318461037BD4680BD00BF003C02401C
:104F50000038024044B00008080000200C00002087
:104F60002DE9B04384B000AF00237B600023FB60D9
:104F700000233B600023BB60674B9B6803F00C037E
:104F8000082B0DD0082B00F2BD80002B02D0042B83
:104F900003D0B7E0614BBB60B7E0614BBB60B4E0EE
:104FA0005D4B5B6803F03F037B605B4B5B6803F426
:104FB0008003002B4DD0584B5B689B091A464FF07D
:104FC000000340F2FF104FF0000102EA000803EA7C
:104FD0000109404649464FF000024FF000034B01E3
:104FE00043EAD063420110461946B0EB080061EB7A
:104FF00009014FF000024FF000038B0143EA906378
:105000008201121A63EB01034FF000004FF0000120
:10501000D90041EA5271D00002460B4612EB080259
:1050200043EB09034FF000004FF00001590241EA41
:10503000D251500202460B46104619467B681A466A
:105040004FF00003FBF714F902460B461346FB60D2
:105050004AE0314B5B689B091A464FF0000340F26F
:10506000FF104FF0000102EA000403EA01052046A8
:1050700029464FF000024FF000034B0143EAD06392
:10508000420110461946001B61EB05014FF000027A
:105090004FF000038B0143EA90638201121A63EB25
:1050A00001034FF000004FF00001D90041EA5271B6
:1050B000D00002460B46121945EB03034FF00000E7
:1050C0004FF00001990241EA9251900202460B46CC
:1050D000104619467B681A464FF00003FBF7C8F8E4
:1050E00002460B461346FB600B4B5B681B0C03F040
:1050F000030301335B003B60FA683B68B2FBF3F3E8
:10510000BB6002E0054BBB6000BFBB6818461037B0
:10511000BD46BDE8B08300BF003802400024F40063
:1051200000127A0080B400AF034B1B681846BD46DE
:105130005DF8047B704700BF0800002080B500AF19
:10514000FFF7F0FF0246054B9B689B0A03F007033D
:105150000349CB5C22FA03F3184680BD00380240B5
:1051600054B0000880B500AFFFF7DCFF0246054BE6
:105170009B685B0B03F007030349CB5C22FA03F344
:10518000184680BD0038024054B0000880B582B097
:1051900000AF78607B68002B01D101237BE07B6846
:1051A0005B6A002B08D17B685B68B3F5827F09D00E
:1051B0007B680022DA6105E07B6800221A617B6867
:1051C00000225A617B6800229A627B6893F8513012
:1051D000DBB2002B06D17B68002283F85020786870
:1051E000FDF7BEFB7B68022283F851207B681B68B9
:1051F0001A687B681B6822F040021A607B685B6853
:1052000003F482727B689B6803F404431A437B684F
:10521000DB6803F400631A437B681B6903F0020335
:105220001A437B685B6903F001031A437B689B693F
:1052300003F400731A437B68DB6903F038031A43F5
:105240007B681B6A03F0800342EA03017B689B6A68
:1052500003F400527B681B680A431A607B689B69F1
:105260001B0C03F004017B685B6A03F010027B688F
:105270001B680A435A607B681B68DA697B681B6895
:1052800022F40062DA617B6800225A657B680122A1
:1052900083F85120002318460837BD4680BD80B5ED
:1052A00088B000AFF860B9603B601346FB80002314
:1052B000FB77FB6893F85030012B01D1022326E1E4
:1052C000FB68012283F85020FDF75AFEB861FB8885
:1052D000FB82FB6893F85130DBB2012B02D0022332
:1052E000FB770BE1BB68002B02D0FB88002B02D1BF
:1052F0000123FB7702E1FB68032283F85120FB685E
:1053000000225A65FB68BA681A63FB68FA889A86B5
:10531000FB68FA88DA86FB6800229A63FB68002241
:105320009A87FB680022DA87FB6800225A64FB68D0
:1053300000221A64FB689B68B3F5004F0FD1FB682D
:105340001B681A68FB681B6822F040021A60FB6841
:105350001B681A68FB681B6842F480421A60FB688D
:105360001B681B6803F04003402B07D0FB681B68D9
:105370001A68FB681B6842F040021A60FB68DB6831
:10538000B3F5006F4BD1FB685B68002B02D0FB8A42
:10539000012B3ED1FB681B6B1A88FB681B68DA6027
:1053A000FB681B6B9A1CFB681A63FB68DB8E9BB265
:1053B000013B9AB2FB68DA862BE0FB681B689B68AE
:1053C00003F00203022B12D1FB681B6B1A88FB68E7
:1053D0001B68DA60FB681B6B9A1CFB681A63FB682E
:1053E000DB8E9BB2013B9AB2FB68DA8611E0FDF7D7
:1053F000C7FD0246BB69D31A3A689A4203D83B6894
:10540000B3F1FF3F02D13B68002B02D10323FB77AE
:1054100074E0FB68DB8E9BB2002BCED14CE0FB68C6
:105420005B68002B02D0FB8A012B40D1FB681A6B12
:10543000FB681B680C3312781A70FB681B6B5A1CD4
:10544000FB681A63FB68DB8E9BB2013B9AB2FB6878
:10545000DA862CE0FB681B689B6803F00203022BD2
:1054600013D1FB681A6BFB681B680C3312781A7037
:10547000FB681B6B5A1CFB681A63FB68DB8E9BB2D4
:10548000013B9AB2FB68DA8611E0FDF779FD02462E
:10549000BB69D31A3A689A4203D83B68B3F1FF3F1D
:1054A00002D13B68002B02D10323FB7726E0FB6887
:1054B000DB8E9BB2002BCDD1BA693968F86800F059
:1054C000CBFB0346002B02D0FB6820225A65FB6809
:1054D0009B68002B0AD100233B61FB681B68DB68DB
:1054E0003B61FB681B689B683B613B69FB685B6DCC
:1054F000002B02D00123FB7700E000BFFB680122F4
:1055000083F85120FB68002283F85020FB7F184667
:105510002037BD4680BD80B588B002AFF860B96065
:105520003B601346FB800023FB75FB685B68B3F5AB
:10553000827F12D1FB689B68002B0ED1FB6804228E
:1055400083F85120FA883B6800931346BA68B9681B
:10555000F86800F0F1F80346EAE0FB6893F8503091
:10556000012B01D10223E3E0FB68012283F85020E4
:10557000FDF706FD3861FB6893F85130DBB2012B73
:1055800002D00223FB75CAE0BB68002B02D0FB8867
:10559000002B02D10123FB75C1E0FB68042283F8D4
:1055A0005120FB6800225A65FB68BA689A63FB6861
:1055B000FA889A87FB68FA88DA87FB6800221A6300
:1055C000FB6800229A86FB680022DA86FB680022CC
:1055D0001A64FB6800225A64FB689B68B3F5004FAD
:1055E0000FD1FB681B681A68FB681B6822F0400239
:1055F0001A60FB681B681A68FB681B6822F480420B
:105600001A60FB681B681B6803F04003402B07D03F
:10561000FB681B681A68FB681B6842F040021A604E
:10562000FB68DB68002B62D12EE0FB681B689B687F
:1056300003F00103012B15D1FB681B6803F10C0279
:10564000FB689B6B1278D2B21A70FB689B6B5A1C7A
:10565000FB689A63FB68DB8F9BB2013B9AB2FB68E5
:10566000DA8711E0FDF78CFC02463B69D31A3A68F1
:105670009A4203D83B68B3F1FF3F02D13B68002B4D
:1056800002D10323FB754AE0FB68DB8F9BB2002B42
:10569000CBD131E0FB681B689B6803F00103012B51
:1056A00013D1FB681B68DA68FB689B6B92B21A80A7
:1056B000FB689B6B9A1CFB689A63FB68DB8F9BB251
:1056C000013B9AB2FB68DA8711E0FDF759FC02460C
:1056D0003B69D31A3A689A4203D83B68B3F1FF3F5B
:1056E00002D13B68002B02D10323FB7517E0FB6856
:1056F000DB8F9BB2002BCDD13A693968F86800F096
:1057000045FA0346002B02D0FB6820225A65FB684D
:105710005B6D002B02D00123FB7500E000BFFB682E
:10572000012283F85120FB68002283F85020FB7D82
:1057300018461837BD4680BD80B58CB000AFF86004
:10574000B9607A607B800123FB62002387F82B30ED
:10575000FB6893F85030012B01D102238AE1FB68EA
:10576000012283F85020FDF70BFC7862FB6893F868
:10577000513087F82330FB685B68FB617B887B8353
:1057800097F82330012B0FD0FB69B3F5827F07D147
:10579000FB689B68002B03D197F82330042B03D0C0
:1057A000022387F82B305BE1BB68002B05D07B68B8
:1057B000002B02D07B88002B03D1012387F82B30EC
:1057C0004EE1FB6893F85130DBB2042B03D0FB6849
:1057D000052283F85120FB6800225A65FB687A682D
:1057E0009A63FB687A88DA87FB687A889A87FB680D
:1057F000BA681A63FB687A88DA86FB687A889A86C0
:10580000FB6800221A64FB6800225A64FB681B686C
:105810001B6803F04003402B07D0FB681B681A6825
:10582000FB681B6842F040021A60FB68DB68B3F556
:10583000006F78D1FB685B68002B02D07B8B012B5B
:1058400066D1FB681B6B1A88FB681B68DA60FB6813
:105850001B6B9A1CFB681A63FB68DB8E9BB2013BD7
:105860009AB2FB68DA8653E0FB681B689B6803F01A
:105870000203022B1BD1FB68DB8E9BB2002B16D0E0
:10588000FB6A012B13D1FB681B6B1A88FB681B6832
:10589000DA60FB681B6B9A1CFB681A63FB68DB8E83
:1058A0009BB2013B9AB2FB68DA860023FB62FB687D
:1058B0001B689B6803F00103012B19D1FB68DB8F88
:1058C0009BB2002B14D0FB681B68DA68FB689B6BEB
:1058D00092B21A80FB689B6B9A1CFB689A63FB6808
:1058E000DB8F9BB2013B9AB2FB68DA870123FB6234
:1058F000FDF746FB02467B6AD31ABA6B9A4207D879
:10590000BB6BB3F1FF3F03D0032387F82B30A7E035
:10591000FB68DB8E9BB2002BA6D1FB68DB8F9BB2B2
:10592000002BA1D17CE0FB685B68002B02D07B8B55
:10593000012B6BD1FB681A6BFB681B680C33127868
:105940001A70FB681B6B5A1CFB681A63FB68DB8EC2
:105950009BB2013B9AB2FB68DA8657E0FB681B6892
:105960009B6803F00203022B1CD1FB68DB8E9BB209
:10597000002B17D0FB6A012B14D1FB681A6BFB6854
:105980001B680C3312781A70FB681B6B5A1CFB687F
:105990001A63FB68DB8E9BB2013B9AB2FB68DA8626
:1059A0000023FB62FB681B689B6803F00103012B6B
:1059B00019D1FB68DB8F9BB2002B14D0FB681B68EE
:1059C000DA68FB689B6BD2B21A70FB689B6B5A1C3F
:1059D000FB689A63FB68DB8F9BB2013B9AB2FB6862
:1059E000DA870123FB62FDF7CBFA02467B6AD31A02
:1059F000BA6B9A4203D8BB6BB3F1FF3F02D1BB6BCA
:105A0000002B03D1032387F82B3029E0FB68DB8EC2
:105A10009BB2002BA2D1FB68DB8F9BB2002B9DD1E8
:105A20007A6AB96BF86800F017F90346002B06D0C4
:105A3000012387F82B30FB6820225A6510E0FB68B1
:105A40009B68002B0BD100237B61FB681B68DB6824
:105A50007B61FB681B689B687B617B6900E000BF22
:105A6000FB68012283F85120FB68002283F8502054
:105A700097F82B3018463037BD4680BD80B588B0CA
:105A800000AFF860B9603B601346FB71FDF778FA30
:105A90000246BB6A9B1A3A681344FB61FDF770FA31
:105AA000B861394B1B685B011B0DFA6902FB03F3FC
:105AB0007B6154E03B68B3F1FF3F50D0FDF760FAE3
:105AC0000246BB69D31AFA699A4202D9FB69002BD4
:105AD0003DD1FB681B685A68FB681B6822F0E00236
