:020000040800F2
:1000000000000220FD2000088D1F0008931F00083B
:10001000991F00089F1F0008A51F0008000000008E
:10002000000000000000000000000000AB1F0008FE
:10003000B91F000800000000C71F0008D51F0008F6
:100040004D2100084D2100084D2100084D210008D8
:100050004D2100084D2100084D2100084D210008C8
:100060004D2100084D2100084D2100084D210008B8
:100070004D2100084D2100084D2100084D210008A8
:100080004D2100084D2100084D2100084D21000898
:100090004D2100084D2100084D2100084D21000888
:1000A0004D2100084D2100084D2100084D21000878
:1000B000E11F00084D2100084D2100084D210008D6
:1000C0004D2100084D2100084D2100084D21000858
:1000D0004D2100084D2100084D2100084D21000848
:1000E0004D2100084D2100084D2100084D21000838
:1000F0004D2100084D2100084D2100084D21000828
:100100004D2100084D2100084D2100084D21000817
:100110004D2100084D2100084D2100084D21000807
:100120004D2100084D2100084D2100084D210008F7
:100130004D2100084D2100084D2100084D210008E7
:100140004D2100084D2100084D2100084D210008D7
:100150004D2100084D2100084D2100084D210008C7
:100160004D2100084D2100084D2100084D210008B7
:100170004D2100084D2100084D210008000000001D
:080180004D2100084D2100088B
:1001880010B5054C237833B9044B13B10448AFF3C9
:1001980000800123237010BD14000020000000001F
:1001A8006047000808B5034B1BB103490348AFF388
:1001B800008008BD0000000018000020604700080B
:1001C800034613F8012B002AFBD1181A013870478F
:1001D80053B94AB9002908BF00281CBF4FF0FF31A6
:1001E8004FF0FF3000F06EB9ADF1080C6DE904CEA8
:1001F80000F006F8DDF804E0DDE9022304B07047FA
:100208002DE9F047089D04468C46002B40F083807A
:100218008A42174647D9B2FA82F242B1C2F12000A7
:1002280024FA00F09140974040EA010C94404FEACC
:100238001748230CBCFBF8F61FFA87FE08FB16C10B
:1002480043EA014306FB0EF1994209D9FB1806F16E
:10025800FF3080F01981994240F21681023E3B44FA
:100268005B1AA4B2B3FBF8F008FB103344EA03446A
:1002780000FB0EFEA64509D93C1900F1FF3380F0BA
:100288000581A64540F2028102383C4440EA064016
:10029800A4EB0E0400261DB1D4400023C5E9004399
:1002A8003146BDE8F08702B9FFDEB2FA82F2002AD1
:1002B80050D1CB1B4FEA174E1FFA87F80126B3FB24
:1002C800FEFC210C0EFB1C3341EA034108FB0CF336
:1002D8008B4207D979180CF1FF3002D28B4200F219
:1002E800E9808446C91AA3B2B1FBFEF00EFB1011D7
:1002F80043EA014408FB00F8A04507D93C1900F17E
:10030800FF3302D2A04500F2D9801846A4EB0804B6
:1003180040EA0C40BFE78B4209D9002D00F0B180BC
:100328000026C5E9000130463146BDE8F087B3FA3A
:1003380083F6002E4AD18B4202D3824200F2B88063
:10034800841A61EB030101208C46002DA8D0C5E971
:10035800004CA5E7C2F1200320FA03F6974001FA02
:1003680002F04FEA174ED9403043030CB1FBFEF6BA
:100378001FFA87F80EFB161143EA014306FB08F142
:10038800994204FA02F409D9FB1806F1FF3C80F0FF
:100398008D80994240F28A80023E3B445B1A81B2CA
:1003A800B3FBFEF00EFB103341EA034100FB08F3F8
:1003B8008B4207D9791800F1FF3C73D28B4271D96F
:1003C80002383944CB1A40EA064678E7C6F1200CD1
:1003D80003FA06F422FA0CF31C4320FA0CF701FA8C
:1003E80006F34FEA144E21FA0CF11F433B0CB1FB04
:1003F800FEF91FFA84F80EFB191143EA014109FBC3
:1004080008FA8A4502FA06F200FA06F308D96118D2
:1004180009F1FF3048D28A4546D9A9F10209214499
:10042800A1EB0A01BFB2B1FBFEF00EFB101147EAC7
:10043800014700FB08F8B84507D9E71900F1FF3173
:100448002ED2B8452CD90238274440EA0940A7EBF8
:100458000807A0FB02894F45C64649461AD317D05C
:100468005DB1B3EB0E0267EB010707FA0CFCF24033
:100478004CEA0202F740C5E9002700263146BDE8EC
:10048800F0872E4628460BE70646E9E61846FDE6BD
:100498004345E5D2B8EB020E69EB04010138DFE70A
:1004A8000846D2E760468DE78146B9E7664675E7B4
:1004B80030464AE7ACF1020C394413E702383C44B1
:1004C80024E700BF704700BF80B500AF01220821B4
:1004D800024802F07DF900BF80BD00BF000C024059
:1004E80080B584B000AF002208212F4802F070F9CF
:1004F800012208212C4802F06BF90A2302222B4919
:100508002B4802F084FF0023FB604FF400437B81FB
:1005180000237B603FE07B68002B06DB7B68032BB6
:1005280003DC7B680433FB6018E07B68032B07DD82
:100538007B68072B04DC7B68C3F10703FB600DE0D5
:100548007B68072B06DD7B680B2B03DC7B68043399
:10055800FB6003E07B68C3F11703FB60134B1A8849
:100568007B8913409BB2002B05D0124AFB680021FF
:1005780022F8131009E00F4AFB6832F813300133F0
:1005880099B20C4AFB6822F813107B895B087B81BF
:100598007B6801337B607B680F2BBCDD00BF00BF2D
:1005A8001037BD4680BD00BF000C0240300000205F
:1005B800EC0000204000002080B58EB000AF07F1AD
:1005C8001C0300221A605A609A60DA601A615A6144
:1005D8009A613B4600221A605A609A60DA601A6192
:1005E8005A619A612F4B4FF020421A602D4B2E4AC8
:1005F8005A602C4B00229A602A4B0022DA60294B61
:1006080000221A61274B10225A61264B00229A6158
:10061800244B0022DA61234B00221A62214B00226C
:100628005A62204B4FF480529A621E4B0022DA62C3
:100638001C4B4FF480421A631A4B00225A63194B21
:1006480000229A63174B00225A640F23FB610F2381
:100658003B623C237B620023BB621023FB621123B5
:100668003B6300237B6308233B600F237B600923E4
:10067800BB600023FB6010233B6111237B610023D7
:10068800BB613A4607F11C031946064803F0A2FA73
:100698000346002B01D001F079FB00BF3837BD4677
:1006A80080BD00BF60000020040100A080B586B0B6
:1006B80000AF3B1D00221A605A609A60DA601A6126
:1006C8001C4B1B68002B31D11A4B01221A600023E6
:1006D8003B60194B9B6B184A43F001039363164B1D
:1006E8009B6B03F001033B603B684FF688737B60AC
:1006F8000223BB600023FB6003233B610C237B6167
:100708003B1D19460D4801F0C7FE4CF2B3737B60E0
:100718000223BB600023FB6003233B610C237B6146
:100728003B1D1946064801F0B7FE00E000BF183728
:10073800BD4680BD34000020003802400010024051
:10074800000C024080B582B000AF7860FFF7AEFFC2
:1007580000BF0837BD4680BD80B58CB000AF07F13B
:100768001C0300221A605A609A60DA601A6100233A
:10077800BB616F4B1B6B6E4A43F0100313636C4BEA
:100788001B6B03F01003BB61BB6900237B61684BE3
:100798001B6B674A43F004031363654B1B6B03F041
:1007A80004037B617B6900233B61614B1B6B604ADF
:1007B80043F0800313635E4B1B6B03F080033B61C4
:1007C8003B690023FB605A4B1B6B594A43F00103FA
:1007D8001363574B1B6B03F00103FB60FB6800239B
:1007E800BB60534B1B6B524A43F008031363504BD7
:1007F8001B6B03F00803BB60BB6800237B604C4B9A
:100808001B6B4B4A43F040031363494B1B6B03F0CC
:1008180040037B607B6800233B60454B1B6B444A6D
:1008280043F002031363424B1B6B03F002033B606C
:100838003B68002270213F4801F0CAFF00224FF4B4
:1008480000513D4801F0C4FF002240213B4801F01F
:10085800BFFF00224FF48071394801F0B9FF002230
:100868000821384801F0B4FF7023FB6101233B6283
:1008780000237B620023BB6207F11C0319462D4845
:1008880001F00AFE4FF40053FB6101233B62002391
:100898007B620023BB6207F11C031946264801F05E
:1008A800FBFDC023FB6100233B6200237B6207F151
:1008B8001C031946224801F0EFFD3023FB61002399
:1008C8003B6200237B6207F11C0319461A4801F0BA
:1008D800E3FD4023FB6101233B6200237B6200238D
:1008E800BB6207F11C031946144801F0D5FD4FF40B
:1008F8008073FB6101233B6200237B620023BB62A0
:1009080007F11C0319460E4801F0C6FD0823FB61D8
:1009180001233B6200237B620023BB6207F11C03B7
:100928001946084801F0B8FD00BF3037BD4680BD04
:10093800003802400010024000080240001802403F
:1009480000000240000C024080B483B000AF0346B0
:10095800FB80044AFB88138000BF0C37BD465DF856
:10096800047B7047FEFF0F6080B483B000AF03467E
:10097800FB80044AFB88538000BF0C37BD465DF8F6
:10098800047B7047FEFF0F6080B483B000AF064B56
:100998005B889BB2FB80FB889BB218460C37BD4630
:1009A8005DF8047B704700BFFEFF0F6090B583B011
:1009B80000AF0446084611461A462346FB80034604
:1009C800BB800B467B8013463B802A20FFF7BCFF89
:1009D800FB881B0A9BB21846FFF7C6FFFB88DBB2F1
:1009E8009BB21846FFF7C0FF7B881B0A9BB21846CC
:1009F800FFF7BAFF7B88DBB29BB21846FFF7B4FF5C
:100A08002B20FFF7A1FFBB881B0A9BB21846FFF7F4
:100A1800ABFFBB88DBB29BB21846FFF7A5FF3B884C
:100A28001B0A9BB21846FFF79FFF3B88DBB29BB2BD
:100A38001846FFF799FF2C20FFF786FF00BF0C37F9
:100A4800BD4690BD80B584B000AF0346FB80154B12
:100A58001B88013B9AB2134B5B88013B9BB2002178
:100A68000020FFF7A3FF0023FB8111E00023BB81D7
:100A780006E0FB881846FFF777FFBB890133BB8187
:100A8800084B5B88BA899A42F3D3FB890133FB810F
:100A9800044B1B88FA899A42E8D300BF00BF10377D
:100AA800BD4680BDB000002090B585B000AF0446BB
:100AB800084611461A462346FB800346BB800B4670
:100AC8007B8013463B807B88013B9AB23B88013B85
:100AD8009BB2B988F888FFF769FFBB88FB8110E0F3
:100AE800FB88BB8106E03B8C1846FFF73DFFBB89BE
:100AF8000133BB81BA897B889A42F4D3FB890133DD
:100B0800FB81FA893B889A42EAD300BF00BF1437B9
:100B1800BD4690BD80B582B000AF0346FB800B4652
:100B2800BB8013467B80BB88FA88B988F888FFF7B2
:100B38003DFF7B881846FFF717FF00BF0837BD4603
:100B480080BD000090B587B000AF04460846114646
:100B58001A462346FB800346BB800B46FB701346B0
:100B68003B8000237B75FB883B8297F82C305B0821
:100B7800FB73FB7BDB08DBB21A46FB7B03F0070346
:100B8800DBB2002B14BF01230023DBB213449AB25B
:100B980097F82C309BB212FB03F3BB81FB78203B08
:100BA800FB70FB7B9AB2FB8813449BB2013B9CB25F
:100BB80097F82C309AB2BB8813449BB2013B9BB286
:100BC800B988F8882246FFF7F1FE00237B827AE095
:100BD80097F82C300C2B28D097F82C30102B08D1F4
:100BE800FA787B8A3C4912010A4413441B78FB7546
:100BF8001BE097F82C30182B0BD1FA78798A3748F4
:100C080013465B0013441B0103440B441B78FB751C
:100C18000BE097F82C30202B5AD1FA787B8A304990
:100C280092010A4413441B78FB750023BB7544E00A
:100C380097F83030002B20D1FA7DBB7D42FA03F3C0
:100C480003F00103002B04D03B881846FFF78CFE05
:100C580003E03B8D1846FFF787FE7B7D01337B75EC
:100C68007B7DFA7BB3FBF2F102FB01F29B1ADBB24C
:100C7800002B1FD100237B7522E0FA7DBB7D42FA51
:100C880003F303F00103002B05D03A88B988FB88E9
:100C98001846FFF73FFFFB880133FB80FA883B8A41
:100CA800D21AFB7B9A4205D13B8AFB80BB88013371
:100CB800BB8005E0BB7D0133BB75BB7D072BB7D976
:100CC8007B8A01337B827A8ABB899A4280D300E08F
:100CD80000BF1C37BD4690BD98470008884D0008E6
:100CE800585F000880B485B000AF03460A46FB7120
:100CF8001346BB710123FB6004E0FA79FB6802FB31
:100D080003F3FB60BB795A1EBA71002BF5D1FB685F
:100D180018461437BD465DF8047B704790B589B016
:100D280004AF0446084611461A462346FB8003468C
:100D3800BB800B467B8013467B700023BB7397F800
:100D480028305B087B730023FB7359E07C887A7832
:100D5800FB7BD31ADBB2013BDBB219460A20FFF753
:100D6800C1FF0346B4FBF3F12A4BA3FB0123DA08C6
:100D780013469B0013445B00CA1A13463B73BB7BA4
:100D8800002B21D1FA7B7B78013B9A421CDA3B7B12
:100D9800002B17D1FB7B9AB27B7B9BB212FB03F330
:100DA8009AB2FB88134498B23A8CB988002302930C
:100DB80097F828300193BB8C009313462022FFF745
:100DC800C1FE1AE00123BB73FB7B9AB27B7B9BB20B
:100DD80012FB03F39AB2FB88134498B23B7B30337F
:100DE800DAB23C8CB9880023029397F82830019333
:100DF800BB8C00932346FFF7A5FEFB7B0133FB73F7
:100E0800FA7B7B789A42A1D300BF00BF1437BD4656
:100E180090BD00BFCDCCCCCC90B587B000AF044618
:100E2800084611461A462346FB800346BB800B46FC
:100E38007B8013463B8000233B61FA887B88134400
:100E48009BB2013B9CB2BA883B8813449BB2013BDE
:100E58009BB2B988F8882246FFF7A8FD0023FB82D9
:100E680027E00023BB821DE03B695B00BA6A13449C
:100E78001B78FB733B695B000133BA6A13441B7828
:100E8800BB73FB7B1B021AB2BB7B1BB213431BB2A7
:100E98009BB21846FFF768FD3B6901333B61BB8A8B
:100EA8000133BB82BA8A3B889A42DDD3FB8A01337D
:100EB800FB82FA8A7B889A42D3D300BF00BF1C37D3
:100EC800BD4690BD80B483B000AF0346FB71FB798B
:100ED8001B09DBB203F00303DBB2002B07D00A4B7C
:100EE8004FF4A0721A80084BF0225A8006E0064B95
:100EF800F0221A80044B4FF4A0725A8000BF0C37BE
:100F0800BD465DF8047B7047B000002080B500AF97
:100F180000224FF40051AA4801F05AFC4FF4FA702D
:100F280001F084F901224FF40051A54801F050FC6A
:100F38004FF4FA7001F07AF90020FFF7C3FFD320CD
:100F4800FFF702FDFFF720FD03461A469D4B9A80E6
:100F5800FFF71AFD03461A469A4B9A80FFF714FDCD
:100F680003461A46974B9A80964B9B881B029AB267
:100F7800944B9A80FFF708FD03461A46914B9B88CD
:100F880013439AB28F4B9A80CF20FFF7DDFC0020E5
:100F9800FFF7EAFCC120FFF7E7FC3020FFF7E4FC8D
:100FA800ED20FFF7D1FC6420FFF7DEFC0320FFF7FC
:100FB800DBFC1220FFF7D8FC8120FFF7D5FCE820E6
:100FC800FFF7C2FC8520FFF7CFFC1020FFF7CCFC11
:100FD8007A20FFF7C9FCCB20FFF7B6FC3920FFF7D2
:100FE800C3FC2C20FFF7C0FC0020FFF7BDFC342019
:100FF800FFF7BAFC0220FFF7B7FCF720FFF7A4FCC5
:101008002020FFF7B1FCEA20FFF79EFC0020FFF745
:10101800ABFC0020FFF7A8FCC020FFF795FC1B20C5
:10102800FFF7A2FCC120FFF78FFC0120FFF79CFC13
:10103800C520FFF789FC3020FFF796FC3020FFF72A
:1010480093FCC720FFF780FCB720FFF78DFC362004
:10105800FFF77AFC0820FFF787FC3A20FFF774FCBB
:101068005520FFF781FCB120FFF76EFC0020FFF749
:101078007BFC1A20FFF778FCB620FFF765FC0A20F6
:10108800FFF772FCA220FFF76FFCF220FFF75CFC71
:101098000020FFF769FC2620FFF756FC0120FFF728
:1010A80063FCE020FFF750FC0F20FFF75DFC2A20CF
:1010B800FFF75AFC2820FFF757FC0820FFF754FCDD
:1010C8000E20FFF751FC0820FFF74EFC5420FFF7D5
:1010D8004BFCA920FFF748FC4320FFF745FC0A20FA
:1010E800FFF742FC0F20FFF73FFC0020FFF73CFC16
:1010F8000020FFF739FC0020FFF736FC0020FFF73F
:1011080033FCE120FFF720FC0020FFF72DFC152021
:10111800FFF72AFC1720FFF727FC0720FFF724FC1E
:101128001120FFF721FC0620FFF71EFC2B20FFF7FC
:101138001BFC5620FFF718FC3C20FFF715FC052088
:10114800FFF712FC1020FFF70FFC0F20FFF70CFC35
:101158003F20FFF709FC3F20FFF706FC0F20FFF7B1
:1011680003FC2B20FFF7F0FB0020FFF7FDFB00201E
:10117800FFF7FAFB0120FFF7F7FB3F20FFF7F4FB2F
:101188002A20FFF7E1FB0020FFF7EEFB0020FFF726
:10119800EBFB0020FFF7E8FBEF20FFF7E5FB112052
:1011A800FFF7D2FB782001F041F82920FFF7CCFBAC
:1011B80001224FF48071044801F00AFB00BF80BD92
:1011C80000080240B00000200000024080B584B052
:1011D80000AFF860B9607A603B60FB689AB27B68E0
:1011E8009BB2134498B2BB689AB23B689BB2134453
:1011F8009BB23A8B1946FFF78DFCFB689AB27B6865
:101208009BB2D31A98B2BB689AB23B689BB213449C
:101218009BB23A8B1946FFF77DFCFB689AB27B6854
:101228009BB2134498B2BB689AB23B689BB2D31A7C
:101238009BB23A8B1946FFF76DFCFB689AB27B6844
:101248009BB2D31A98B2BB689AB23B689BB2D31AC6
:101258009BB23A8B1946FFF75DFCFB689AB23B6874
:101268009BB2134498B2BB689AB27B689BB2134492
:101278009BB23A8B1946FFF74DFCFB689AB23B6864
:101288009BB2D31A98B2BB689AB27B689BB21344DC
:101298009BB23A8B1946FFF73DFCFB689AB23B6854
:1012A8009BB2134498B2BB689AB27B689BB2D31ABC
:1012B8009BB23A8B1946FFF72DFCFB689AB23B6844
:1012C8009BB2D31A98B2BB689AB27B689BB2D31A06
:1012D8009BB23A8B1946FFF71DFC00BF1037BD467D
:1012E80080BD80B58AB002AFF860B9603B60134634
:1012F800FB800023FB613B68BB613B685B00C3F17B
:1013080003033B61BB6A002B4FD029E0FB697B617B
:101318000AE0FB8800937B69FA69B968F868FFF707
:1013280055FF7B6901337B617A69BB699A42F0DDBD
:101338003B69002B06DAFB699A003B6913440633C4
:101348003B610AE0FA69BB69D31A9A003B69134406
:101358000A333B61BB69013BBB61FB690133FB613C
:10136800FA69BB699A42D1DD23E0FB880093BB6927
:10137800FA69B968F868FFF729FF3B69002B06DAB4
:10138800FB699A003B69134406333B610AE0FA693A
:10139800BB69D31A9A003B6913440A333B61BB69A2
:1013A800013BBB61FB690133FB61FA69BB699A4286
:1013B800DBDD00BF2037BD4680BD000090B58BB097
:1013C80004AFBA601A460346FB810B46BB8113463D
:1013D800FB80FB89BB820023FB7548E0FB7D002B6B
:1013E80045D1FA89264B1B88194697F82C305B089B
:1013F800DBB2CB1A9A423FDCBA89214B5B8819468B
:1014080097F82C30CB1A9A4236DCBB681B78802BB5
:1014180002D90123FB752AE0BB681B780D2B0BD181
:1014280097F82C309AB2BB891344BB81BB8AFB81E5
:10143800BB680133BB6017E0BB681A78FC88B989C0
:10144800F88997F83030029397F82C3001933B8D48
:1014580000932346FFF776FB97F82C305B08DBB246
:101468009AB2FB891344FB81BB680133BB60BB683C
:101478001B78002BB2D100E000BF1C37BD4690BDE1
:10148800B000002080B58AB004AFBA601A4603469F
:10149800FB810B46BB811346FB80B868FEF790FEC4
:1014A8000346FB820F4B1B881A46FB8ADB00D31AC4
:1014B800DA0F13445B10BB82FA89BB8A134498B2D3
:1014C800FA88B98997F82830029397F8243001935D
:1014D8003B8C00931346BA68FFF770FF00BF1837BC
:1014E800BD4680BDB000002080B500AF012240217C
:1014F800024801F06DF900BF80BD00BF001802402E
:1015080080B500AF3F4B1B88DBB29AB23D4B1A80C7
:101518003D4B1B881A463D4B9B5C1B021AB2394B4C
:101528001B881BB213431BB29AB2364B1A80364B38
:101538001B88032B46D801A252F823F05515000842
:101548007315000891150008AF1500082D4B1B886E
:1015580043F0B0039AB22B4B1A802A4B1B8823F016
:1015680040039AB2274B1A802DE0264B1B8843F084
:10157800D0039AB2234B1A80224B1B8823F02003F6
:101588009AB2204B1A801EE01E4B1B8843F0E003E2
:101598009AB21C4B1A801B4B1B8823F010039AB27B
:1015A800184B1A800FE0174B1B8843F070039AB250
:1015B800144B1A80134B1B8823F080039AB2114BEB
:1015C8001A8000E000BF104B1B8801335A4203F019
:1015D800030302F0030258BF53429AB20A4B1A801F
:1015E800002240210A4801F0F3F8012302220549AC
:1015F800084801F0D0FD01224021054801F0E8F833
:1016080000BF80BD0400002038000020000000203A
:1016180000180240EC00002090B587B002AF644685
:10162800C7F804C0A36A013BA362A36A002B40F079
:10163800FD800123009314234FF6FF724B213C20B9
:10164800FFF74FFE0123009314234FF6FF724B213F
:10165800A020FFF746FE0123009314234FF6FF72E4
:10166800AF213C20FFF73DFE0123009314234FF6E2
:10167800FF72AF21A020FFF734FE0123009314234B
:101688004FF6FF7240F213113C20FFF72AFE0123A8
:10169800009314234FF6FF7240F21311A020FFF7B6
:1016A80020FE0023009314234FF4FC624B213C20BE
:1016B800FFF717FE0023009314234FF4FC624B211D
:1016C800A020FFF70EFE0023009314234FF4784266
:1016D800AF213C20FFF705FE0023009314234FF4AD
:1016E8007842AF21A020FFF7FCFD002300931423CC
:1016F8004FF6E07240F213113C20FFF7F2FD002391
:10170800009314234FF6E07240F21311A020FFF764
:10171800E8FD0023FB6007E0FB680433002244F87F
:101728002320FB680133FB60FB68052BF4DDE368CD
:10173800032B37D801A252F823F000BF5517000831
:101748006B17000881170008971700080123A36189
:1017580001236362A26813469B0013449B00A362A3
:1017680021E0012323610123E361626813469B00A2
:1017780013449B00A36216E0012323620123E36163
:10178800A26813469B0013449B00A3620BE001234D
:10179800A36101236361626813469B0013449B00A5
:1017A800A36200E000BF2369009314234FF4FC6296
:1017B8004B213C20FFF795FD6369009314234FF4F8
:1017C800FC624B21A020FFF78CFDA3690093142332
:1017D8004FF47842AF213C20FFF783FDE369009383
:1017E80014234FF47842AF21A020FFF77AFD236A33
:1017F800009314234FF6E07240F213113C20FFF7D8
:1018080070FD636A009314234FF6E07240F21311DF
:10181800A020FFF766FDE36801335A4203F0030393
:1018280002F0030258BF5342E36000BF00BF143701
:10183800BD4690BD80B592B004AF07F140033B634D
:1018480000F082FC00F0CAF9FEF786FF00F0E0FB2A
:1018580000F0F2FAFEF7B0FE00F02AFA4FF6FF7039
:10186800FFF7F0F800F044FA00233B6107F1140396
:1018780000221A605A609A60DA601A615A610A2373
:10188800BB600523FB60BA6813469B0013449B00AA
:10189800FB6200237B6300237B6000BFB94B1B887E
:1018A800002BFBD0B74B00221A80FEF719FEB64B6F
:1018B8001B88012B40F03D817B6B01335A4203F0BA
:1018C800030302F0030258BF53427B637B6B032B75
:1018D80000F2318101A252F823F000BFF518000888
:1018E800A7190008331A0008B71A0008BA6813467F
:1018F8009B0013449B00FB6200233B614FF6FF7380
:1019080000934FF4FA73F02200210020FFF7CCF87F
:1019180000230293182301934FF4784300934FF662
:10192800FF739A4A00211420FFF748FD0023009313
:1019380014234FF4FC624B213C20FFF7D2FC012317
:10194800009314234FF4FC624B21A020FFF7C9FC3D
:101958000123009314234FF47842AF213C20FFF772
:10196800C0FC0023009314234FF47842AF21A02039
:10197800FFF7B7FC0023009314234FF4784240F29A
:1019880013113C20FFF7ADFC0023009314234FF400
:10199800784240F21311A020FFF7A3FCCCE0BA680C
:1019A800FB6813447B601423FB624FF6FF730093BC
:1019B8004FF4FA73F02200210020FFF775F8012395
:1019C8000293102301931F2300934FF47843704A26
:1019D80002210020FFF756FD0023029318230193EC
:1019E8004FF4784300934FF6FF73684A1E21142082
:1019F800FFF7E4FC0123009328234FF47842782171
:101A08003C20FFF76EFC0023009328234FF61F02AB
:101A18007821A020FFF765FC5E4B00935A235A22D9
:101A2800C8215020FFF7F8F986E0BB687B604FF6C5
:101A3800FF7300934FF4FA73F02200210020FFF7A0
:101A480033F801230293102301931F2300934FF4CB
:101A580078434F4A02210020FFF714FD0023029328
:101A6800182301934FF4784300934FF6FF73474AC6
:101A78001E211420FFF7A2FC0123009328234FF412
:101A8800FC6278213C20FFF72CFC002300932823DC
:101A98004FF61F027821A020FFF723FC3D4B00934F
:101AA8005A235A22C8215020FFF7B6F944E0FB68B0
:101AB8007B604FF6FF7300934FF4FA73F022002116
:101AC8000020FEF7F1FF01230293102301931F2347
:101AD80000934FF478432E4A02210020FFF7D2FCEE
:101AE80000230293182301934FF4784300934FF691
:101AF800FF73264A1E211420FFF760FC0123009380
:101B080028234FF6E07278213C20FFF7EAFB0023F8
:101B1800009328234FF61F027821A020FFF7E1FB4E
:101B28001C4B00935A235A22C8215020FFF774F9FE
:101B380002E000BF00E000BF134B5B88012B03D11C
:101B48007B6801337B601CE00F4B9B88012B0AD11B
:101B58007B6B022B01D17B68BB607B6B032B0FD1A6
:101B68007B68FB600CE07B6B002B04D03B1D9C4624
:101B780000F012F891E63B1D9C46FFF74DFD8CE600
:101B880000BF8AE63A00002040000020784700089D
:101B9800884700081877000890B587B004AF6446F6
:101BA800C7F804C0A36A013BA362A36A002B11D142
:101BB80023689AB2202302934FF6FF7301934FF6DE
:101BC8001F030093022369218C20FFF7A7F8142331
:101BD800A36200BF00BF0C37BD4690BD80B594B06E
:101BE80000AF07F1200330220021184602F0ACFDB7
:101BF80007F10C0300221A605A609A60DA601A61D1
:101C08000023BB60284B1B6C274A43F080531364A6
:101C1800254B1B6C03F08053BB60BB6800237B60C3
:101C2800224B1B68214A43F4804313601F4B1B68F7
:101C380003F480437B607B6802233B620123FB62E1
:101C480010233B630223BB630023FB6308233B642D
:101C5800A8237B640223BB640423FB6407F12003ED
:101C6800184600F0CFFD0346002B01D000F08EF897
:101C78000F23FB6002233B6100237B614FF4A053D9
:101C8800BB614FF4A053FB6107F10C030521184613
:101C980001F030F80346002B01D000F077F800BFC0
:101CA8005037BD4680BD00BF00380240007000407C
:101CB80080B500AF002220210C4800F089FD0022E9
:101CC80040210A4800F084FD00221021074800F056
:101CD8007FFD00F061F8FFF707FCFEF7F5FBFFF763
:101CE80015F9322000F062F800BF80BD00100240F4
:101CF80080B584B004AF00230293182301934FF4F6
:101D0800784300934FF6FF731F4A00211420FFF712
:101D180055FB0023009314234FF4FC624B213C2015
:101D2800FFF7DFFA0123009314234FF4FC624B21E1
:101D3800A020FFF7D6FA0123009314234FF478422A
:101D4800AF213C20FFF7CDFA0023009314234FF472
:101D58007842AF21A020FFF7C4FA00230093142390
:101D68004FF4784240F213113C20FFF7BAFA0023EF
:101D7800009314234FF4784240F21311A020FFF788
:101D8800B0FA00BFBD4680BD7847000880B400AFF8
:101D980072B600BFFEE7000080B500AF024801F050
:101DA800ADFF00BF80BD00BF4401002080B483B0F8
:101DB80000AF0346FB80084AFB881380064B1A884D
:101DC800064B1A80064B00221A8000BF0C37BD460E
:101DD8005DF8047B704700BF3E0000203C000020F7
:101DE8003A00002080B582B000AF78607B681B683D
:101DF800B3F1804F16D10D4B1B88002B10D00B4B25
:101E08001B88013B9AB2094B1A80084B1B88002B90
:101E180006D1074B01221A80064B1A88034B1A80F9
:101E2800FFF76EFB00BF0837BD4680BD3C000020B1
:101E38003A0000203E00002080B500AF174B184A3A
:101E48001A60164B4FF482725A60144B00229A6043
:101E5800124B0022DA60114B00221A610F4B00224C
:101E68005A610E4B4FF400729A610C4B0022DA61F2
:101E78000A4B00221A62094B00225A62074B0022C1
:101E88009A62064B0A22DA62044801F0FBF803461C
:101E9800002B01D0FFF77AFF00BF80BDEC000020C7
:101EA8000030014080B58AB000AF786007F11403B4
:101EB80000221A605A609A60DA601A617B681B68AF
:101EC800194A93422BD100233B61184B5B6C174A8C
:101ED80043F480535364154B5B6C03F480533B61AC
:101EE8003B690023FB60114B1B6B104A43F0020354
:101EF80013630E4B1B6B03F00203FB60FB68382374
:101F08007B610223BB610023FB6103233B62052342
:101F18007B6207F114031946054800F0BDFA00BFBB
:101F28002837BD4680BD00BF003001400038024060
:101F38000004024080B483B000AF00237B60104BE4
:101F48005B6C0F4A43F4804353640D4B5B6C03F4A2
:101F580080437B607B6800233B60094B1B6C084A0D
:101F680043F080531364064B1B6C03F080533B60B3
:101F78003B6800BF0C37BD465DF8047B704700BF67
:101F88000038024080B400AFFEE780B400AFFEE73F
:101F980080B400AFFEE780B400AFFEE780B400AFC6
:101FA800FEE780B400AF00BFBD465DF8047B704714
:101FB80080B400AF00BFBD465DF8047B704780B4B5
:101FC80000AF00BFBD465DF8047B704780B500AF29
:101FD80000F00CF900BF80BD80B500AF024801F0E9
:101FE800FDFE00BF80BD00BF4401002080B400AFEB
:101FF800064BD3F88830054A43F47003C2F888309A
:1020080000BFBD465DF8047B704700BF00ED00E0EF
:1020180080B586B000AF07F1080300221A605A6045
:102028009A60DA603B4600221A605A601D4B4FF0F6
:1020380080421A601B4B40F247325A60194B00220B
:102048009A60184B6322DA60164B00221A61154B0E
:1020580000229A61134801F001FE0346002B01D0CB
:10206800FFF794FE4FF48053BB6007F1080319464D
:102078000C4801F0BBFF0346002B01D0FFF786FE9A
:1020880000233B6000237B603B461946054802F06D
:10209800D7F90346002B01D0FFF778FE00BF1837A9
:1020A800BD4680BD4401002080B584B000AF786093
:1020B8007B681B68B3F1804F15D10023FB600C4B84
:1020C8001B6C0B4A43F001031364094B1B6C03F0B0
:1020D8000103FB60FB68002200211C2000F0A5F929
:1020E8001C2000F0BEF900BF1037BD4680BD00BF00
:1020F80000380240DFF834D00D480E490E4A00235C
:1021080002E0D458C4500433C4188C42F9D30B4AA3
:102118000B4C002301E013600432A242FBD3FFF70B
:1021280065FF02F0EDFAFFF785FB7047000002201B
:10213800000000201400002080B6000814000020D1
:1021480090010020FEE7000080B500AF0E4B1B6831
:102158000D4A43F4007313600B4B1B680A4A43F49F
:1021680080631360084B1B68074A43F4807313604D
:10217800032000F04FF90F2000F008F8FFF7DAFE0F
:102188000023184680BD00BF003C024080B582B0E5
:1021980000AF7860124B1A68124B1B7819464FF43F
:1021A8007A73B3FBF1F3B2FBF3F3184600F067F967
:1021B8000346002B01D001230EE07B680F2B0AD8C1
:1021C800002279684FF0FF3000F02FF9064A7B684B
:1021D8001360002300E0012318460837BD4680BD80
:1021E80008000020100000200C00002080B400AF80
:1021F800064B1B781A46064B1B681344044A1360A7
:1022080000BFBD465DF8047B704700BF100000208A
:102218008C01002080B400AF034B1B681846BD46F4
:102228005DF8047B704700BF8C01002080B584B046
:1022380000AF7860FFF7EEFFB8607B68FB60FB6873
:10224800B3F1FF3F05D00A4B1B781A46FB681344CD
:10225800FB6000BFFFF7DEFF0246BB68D31AFA68CF
:102268009A42F7D800BF00BF1037BD4680BD00BFF7
:102278001000002080B485B000AF78607B6803F060
:102288000703FB600C4BDB68BB60BA684FF6FF03C3
:102298001340BB60FB681A02BB68134343F0BF637B
:1022A80043F40033BB60044ABB68D36000BF1437F3
:1022B800BD465DF8047B704700ED00E080B400AFD8
:1022C800044BDB681B0A03F007031846BD465DF89C
:1022D800047B704700ED00E080B483B000AF034694
:1022E800FB7197F90730002B0BDBFB7903F01F021A
:1022F800074997F907305B09012000FA02F241F813
:10230800232000BF0C37BD465DF8047B704700BF33
:1023180000E100E080B483B000AF03463960FB7190
:1023280097F90730002B0ADB3B68DAB20C4997F9BA
:1023380007301201D2B20B4483F800230AE03B684D
:10234800DAB20849FB7903F00F03043B1201D2B259
:102358000B441A7600BF0C37BD465DF8047B704706
:1023680000E100E000ED00E080B489B000AFF86063
:10237800B9607A60FB6803F00703FB61FB69C3F18E
:102388000703042B28BF0423BB61FB690433062B16
:1023980002D9FB69033B00E000237B614FF0FF3269
:1023A800BB6902FA03F3DA43BB681A407B699A40B7
:1023B8004FF0FF317B6901FA03F3D9437B680B4087
:1023C800134318462437BD465DF8047B7047000068
:1023D80080B582B000AF78607B68013BB3F1807F45
:1023E80001D301230FE00A4A7B68013B53600F21A8
:1023F8004FF0FF30FFF78EFF054B00229A60044B29
:1024080007221A60002318460837BD4680BD00BF62
:1024180010E000E080B582B000AF78607868FFF720
:1024280029FF00BF0837BD4680BD80B586B000AF24
:102438000346B9607A60FB7300237B61FFF73EFFB8
:1024480078617A68B9687869FFF78EFF024697F96C
:102458000F3011461846FFF75DFF00BF1837BD461D
:1024680080BD80B582B000AF0346FB7197F9073095
:102478001846FFF731FF00BF0837BD4680BD80B55D
:1024880082B000AF78607868FFF7A2FF034618466D
:102498000837BD4680BD000080B489B000AF7860C1
:1024A800396000237B6100233B610023BB6100236B
:1024B800FB616BE10122FB6902FA03F37B613B6874
:1024C8001B687A6913403B613A697B699A4240F01C
:1024D8005A813B685B6803F00303012B05D03B6816
:1024E8005B6803F00303022B30D17B689B68BB61F8
:1024F800FB695B00032202FA03F3DB43BA6913406A
:10250800BB613B68DA68FB695B0002FA03F3BA69EE
:102518001343BB617B68BA699A607B685B68BB617F
:102528000122FB6902FA03F3DB43BA691340BB617A
:102538003B685B681B0903F00102FB6902FA03F3BD
:10254800BA691343BB617B68BA695A603B685B68C8
:1025580003F00303032B17D07B68DB68BB61FB69BF
:102568005B00032202FA03F3DB43BA691340BB6141
:102578003B689A68FB695B0002FA03F3BA69134384
:10258800BB617B68BA69DA603B685B6803F0030388
:10259800022B23D1FB69DA087B68083253F8223012
:1025A800BB61FB6903F007039B000F2202FA03F3E8
:1025B800DB43BA691340BB613B681A69FB6903F0E6
:1025C80007039B0002FA03F3BA691343BB61FB6973
:1025D800DA087B680832B96943F822107B681B68FF
:1025E800BB61FB695B00032202FA03F3DB43BA69B0
:1025F8001340BB613B685B6803F00302FB695B0047
:1026080002FA03F3BA691343BB617B68BA691A60BB
:102618003B685B6803F44033002B00F0B480002370
:10262800FB60604B5B6C5F4A43F4804353645D4BD3
:102638005B6C03F48043FB60FB685B4AFB699B08A7
:10264800023352F82330BB61FB6903F003039B009C
:102658000F2202FA03F3DB43BA691340BB617B68BC
:10266800524A93422BD07B68514A934225D07B68CB
:10267800504A93421FD07B684F4A934219D07B68D7
:102688004E4A934213D07B684D4A93420DD07B68E3
:102698004C4A934207D07B684B4A934201D10723A7
:1026A8000EE008230CE006230AE0052308E00423D3
:1026B80006E0032304E0022302E0012300E00023F4
:1026C800FA6902F0030292009340BA691343BB61AE
:1026D8003549FB699B080233BA6941F823203B4B13
:1026E8001B68BB613B69DB43BA691340BB613B684C
:1026F8005B6803F48033002B03D0BA693B6913434A
:10270800BB61324ABB691360304B5B68BB613B6994
:10271800DB43BA691340BB613B685B6803F4003371
:10272800002B03D0BA693B691343BB61274ABB69D5
:102738005360264B9B68BB613B69DB43BA69134016
:10274800BB613B685B6803F48013002B03D0BA6954
:102758003B691343BB611D4ABB6993601B4BDB6834
:10276800BB613B69DB43BA691340BB613B685B688B
:1027780003F40013002B03D0BA693B691343BB6110
:10278800124ABB69D360FB690133FB61FB690F2BFC
:102798007FF690AE00BF00BF2437BD465DF8047BCE
:1027A800704700BF00380240003801400000024076
:1027B8000004024000080240000C024000100240E1
:1027C8000014024000180240001C0240003C014076
:1027D80080B483B000AF78600B467B8013467B7073
:1027E8007B78002B03D07A887B689A6103E07B882A
:1027F8001A047B689A6100BF0C37BD465DF8047BFC
:102808007047000080B586B000AF78607B68002B09
:1028180001D1012364E27B681B6803F00103002BEC
:1028280075D0A34B9B6803F00C03042B0CD0A04B72
:102838009B6803F00C03082B12D19D4B5B6803F4D3
:102848008003B3F5800F0BD1994B1B6803F4003359
:10285800002B5BD07B685B68002B57D101233FE2DC
:102868007B685B68B3F5803F06D1914B1B68904A43
:1028780043F4803313601DE07B685B68B3F5A02FD9
:102888000CD18B4B1B688A4A43F480231360884B16
:102898001B68874A43F4803313600BE0844B1B6842
:1028A800834A23F480331360814B1B68804A23F4E6
:1028B800802313607B685B68002B13D0FFF7AAFCAA
:1028C800386108E0FFF7A6FC02463B69D31A642B7F
:1028D80001D9032304E2764B1B6803F40033002B71
:1028E800F0D014E0FFF796FC386108E0FFF792FC9F
:1028F80002463B69D31A642B01D90323F0E16C4BE0
:102908001B6803F40033002BF0D100E000BF7B68A4
:102918001B6803F00203002B63D0654B9B6803F030
:102928000C03002B0BD0624B9B6803F00C03082BA5
:102938001CD15F4B5B6803F48003002B16D15C4B02
:102948001B6803F00203002B05D07B68DB68012BB2
:1029580001D00123C4E1564B1B6823F0F8027B68C1
:102968001B69DB00524913430B603AE07B68DB6864
:10297800002B20D04F4B01221A60FFF74BFC386127
:1029880008E0FFF747FC02463B69D31A022B01D93E
:102998000323A5E1464B1B6803F00203002BF0D08C
:1029A800434B1B6823F0F8027B681B69DB00404936
:1029B80013430B6015E03F4B00221A60FFF72AFC17
:1029C800386108E0FFF726FC02463B69D31A022B60
:1029D80001D9032384E1364B1B6803F00203002B63
:1029E800F0D17B681B6803F00803002B30D07B68AC
:1029F8005B69002B16D0304B01221A60FFF70AFCE6
:102A0800386108E0FFF706FC02463B69D31A022B3F
:102A180001D9032364E1264B5B6F03F00203002B0B
:102A2800F0D015E0244B00221A60FFF7F3FB386161
:102A380008E0FFF7EFFB02463B69D31A022B01D9E6
:102A480003234DE11A4B5B6F03F00203002BF0D117
:102A58007B681B6803F00403002B00F0A0800023B0
:102A6800FB75134B1B6C03F08053002B0FD1002315
:102A7800BB600F4B1B6C0E4A43F0805313640C4B26
:102A88001B6C03F08053BB60BB680123FB750B4BC9
:102A98001B6803F48073002B21D1084B1B68074A7D
:102AA80043F480731360FFF7B5FB386111E000BF92
:102AB8000038024000004742800E47420070004044
:102AC800FFF7A8FB02463B69D31A022B01D903235F
:102AD80006E1854B1B6803F48073002BF0D07B68FC
:102AE8009B68012B06D1814B1B6F804A43F0010381
:102AF80013671CE07B689B68052B0CD17B4B1B6F15
:102B08007A4A43F004031367784B1B6F774A43F004
:102B1800010313670BE0754B1B6F744A23F0010325
:102B28001367724B1B6F714A23F0040313677B68AA
:102B38009B68002B15D0FFF76DFB38610AE0FFF7A3
:102B480069FB02463B69D31A41F28832934201D9A4
:102B58000323C5E0654B1B6F03F00203002BEED087
:102B680014E0FFF757FB38610AE0FFF753FB024612
:102B78003B69D31A41F28832934201D90323AFE06B
:102B88005A4B1B6F03F00203002BEED1FB7D012B88
:102B980005D1564B1B6C554A23F0805313647B6850
:102BA8009B69002B00F09B80504B9B6803F00C0343
:102BB800082B5CD07B689B69022B41D14C4B0022CF
:102BC8001A60FFF727FB386108E0FFF723FB02468E
:102BD8003B69D31A022B01D9032381E0434B1B68BD
:102BE80003F00073002BF0D17B68DA697B681B6AFD
:102BF8001A437B685B6A9B011A437B689B6A5B0884
:102C0800013B1B041A437B68DB6A1B0637491343E5
:102C18004B60374B01221A60FFF7FCFA386108E075
:102C2800FFF7F8FA02463B69D31A022B01D90323AE
:102C380056E02E4B1B6803F00073002BF0D04EE0DB
:102C48002B4B00221A60FFF7E5FA386108E0FFF71E
:102C5800E1FA02463B69D31A022B01D903233FE06C
:102C6800224B1B6803F00073002BF0D137E07B6820
:102C78009B69012B01D1012332E01C4B5B68FB608F
:102C88007B689B69012B28D0FB6803F480027B6872
:102C9800DB699A4221D1FB6803F03F027B681B6A1B
:102CA8009A421AD1FA6847F6C07313407A68526A92
:102CB8009201934211D1FB6803F440327B689B6A0E
:102CC8005B08013B1B049A4207D1FB6803F0706262
:102CD8007B68DB6A1B069A4201D0012300E00023CF
:102CE80018461837BD4680BD0070004000380240C5
:102CF8006000474280B584B000AF786039607B6877
:102D0800002B01D10123CCE0684B1B6803F00703BB
:102D18003A689A420CD9654B3A68D2B21A70634B3A
:102D28001B6803F007033A689A4201D00123B8E010
:102D38007B681B6803F00203002B20D07B681B68AC
:102D480003F00403002B05D0594B9B68584A43F401
:102D5800E05393607B681B6803F00803002B05D0E1
:102D6800534B9B68524A43F460439360504B9B68B3
:102D780023F0F0027B689B684D4913438B607B68A6
:102D88001B6803F00103002B44D07B685B68012BB0
:102D980007D1474B1B6803F40033002B19D10123DB
:102DA8007FE07B685B68022B03D07B685B68032B42
:102DB80007D13F4B1B6803F00073002B09D1012397
:102DC8006FE03B4B1B6803F00203002B01D101238A
:102DD80067E0374B9B6823F003027B685B683449E4
:102DE80013438B60FFF716FAF8600AE0FFF712FA50
:102DF8000246FB68D31A41F28832934201D9032371
:102E08004FE02B4B9B6803F00C027B685B689B00D0
:102E18009A42EBD1254B1B6803F007033A689A42A4
:102E28000CD2224B3A68D2B21A70204B1B6803F0BE
:102E380007033A689A4201D0012332E07B681B6895
:102E480003F00403002B08D0194B9B6823F4E052CD
:102E58007B68DB68164913438B607B681B6803F04B
:102E68000803002B09D0124B9B6823F460427B684F
:102E78001B69DB000E4913438B6000F021F8024602
:102E88000B4B9B681B0903F00F030A49CB5C22FA22
:102E980003F3094A1360094B1B681846FFF776F9D4
:102EA800002318461037BD4680BD00BF003C0240D5
:102EB8000038024060B60008080000200C0000201E
:102EC8002DE9B04384B000AF00237B600023FB6092
:102ED80000233B600023BB60674B9B6803F00C0337
:102EE800082B0DD0082B00F2BD80002B02D0042B3C
:102EF80003D0B7E0614BBB60B7E0614BBB60B4E0A7
:102F08005D4B5B6803F03F037B605B4B5B6803F4DE
:102F18008003002B4DD0584B5B689B091A464FF035
:102F2800000340F2FF104FF0000102EA000803EA34
:102F38000109404649464FF000024FF000034B019B
:102F480043EAD063420110461946B0EB080061EB32
:102F580009014FF000024FF000038B0143EA906330
:102F68008201121A63EB01034FF000004FF00001D9
:102F7800D90041EA5271D00002460B4612EB080212
:102F880043EB09034FF000004FF00001590241EAFA
:102F9800D251500202460B46104619467B681A4623
:102FA8004FF00003FDF714F902460B461346FB6089
:102FB8004AE0314B5B689B091A464FF0000340F228
:102FC800FF104FF0000102EA000403EA0105204661
:102FD80029464FF000024FF000034B0143EAD0634B
:102FE800420110461946001B61EB05014FF0000233
:102FF8004FF000038B0143EA90638201121A63EBDE
:1030080001034FF000004FF00001D90041EA52716E
:10301800D00002460B46121945EB03034FF000009F
:103028004FF00001990241EA9251900202460B4684
:10303800104619467B681A464FF00003FDF7C8F89A
:1030480002460B461346FB600B4B5B681B0C03F0F8
:10305800030301335B003B60FA683B68B2FBF3F3A0
:10306800BB6002E0054BBB6000BFBB681846103769
:10307800BD46BDE8B08300BF003802400024F4001C
:1030880000127A0080B582B000AF78607B68002BB0
:1030980001D101237BE07B685B6A002B08D17B6848
:1030A8005B68B3F5827F09D07B680022DA6105E0AE
:1030B8007B6800221A617B6800225A617B680022C3
:1030C8009A627B6893F85130DBB2002B06D17B689B
:1030D800002283F850207868FEF7E4FE7B6802221D
:1030E80083F851207B681B681A687B681B6822F08C
:1030F80040021A607B685B6803F482727B689B6895
:1031080003F404431A437B68DB6803F400631A433F
:103118007B681B6903F002031A437B685B6903F051
:1031280001031A437B689B6903F400731A437B68A5
:10313800DB6903F038031A437B681B6A03F08003DA
:1031480042EA03017B689B6A03F400527B681B68B0
:103158000A431A607B689B691B0C03F004017B68B7
:103168005B6A03F010027B681B680A435A607B683D
:103178001B68DA697B681B6822F40062DA617B6885
:1031880000225A657B68012283F8512000231846E3
:103198000837BD4680BD80B588B000AFF860B9601B
:1031A8003B601346FB800023FB77FB6893F85030A5
:1031B800012B01D1022326E1FB68012283F850206C
:1031C800FFF728F8B861FB88FB82FB6893F8513059
:1031D800DBB2012B02D00223FB770BE1BB68002B8B
:1031E80002D0FB88002B02D10123FB7702E1FB68A8
:1031F800032283F85120FB6800225A65FB68BA68ED
:103208001A63FB68FA889A86FB68FA88DA86FB688C
:1032180000229A63FB6800229A87FB680022DA87FB
:10322800FB6800225A64FB6800221A64FB689B68EA
:10323800B3F5004F0FD1FB681B681A68FB681B6861
:1032480022F040021A60FB681B681A68FB681B685A
:1032580042F480421A60FB681B681B6803F0400355
:10326800402B07D0FB681B681A68FB681B6842F094
:1032780040021A60FB68DB68B3F5006F4BD1FB684E
:103288005B68002B02D0FB8A012B3ED1FB681B6BCD
:103298001A88FB681B68DA60FB681B6B9A1CFB6862
:1032A8001A63FB68DB8E9BB2013B9AB2FB68DA8635
:1032B8002BE0FB681B689B6803F00203022B12D10A
:1032C800FB681B6B1A88FB681B68DA60FB681B6B62
:1032D8009A1CFB681A63FB68DB8E9BB2013B9AB2AF
:1032E800FB68DA8611E0FEF795FF0246BB69D31A40
:1032F8003A689A4203D83B68B3F1FF3F02D13B6872
:10330800002B02D10323FB7774E0FB68DB8E9BB2B2
:10331800002BCED14CE0FB685B68002B02D0FB8A07
:10332800012B40D1FB681A6BFB681B680C331278C1
:103338001A70FB681B6B5A1CFB681A63FB68DB8EF0
:103348009BB2013B9AB2FB68DA862CE0FB681B68EB
:103358009B6803F00203022B13D1FB681A6BFB680E
:103368001B680C3312781A70FB681B6B5A1CFB68BD
:103378001A63FB68DB8E9BB2013B9AB2FB68DA8664
:1033880011E0FEF747FF0246BB69D31A3A689A4232
:1033980003D83B68B3F1FF3F02D13B68002B02D151
:1033A8000323FB7726E0FB68DB8E9BB2002BCDD195
:1033B800BA693968F86800F0CBFB0346002B02D0E5
:1033C800FB6820225A65FB689B68002B0AD1002302
:1033D8003B61FB681B68DB683B61FB681B689B689B
:1033E8003B613B69FB685B6D002B02D00123FB77D7
:1033F80000E000BFFB68012283F85120FB6800222F
:1034080083F85020FB7F18462037BD4680BD80B525
:1034180088B002AFF860B9603B601346FB800023B8
:10342800FB75FB685B68B3F5827F12D1FB689B680C
:10343800002B0ED1FB68042283F85120FA883B68E0
:1034480000931346BA68B968F86800F0F1F80346C3
:10345800EAE0FB6893F85030012B01D10223E3E046
:10346800FB68012283F85020FEF7D4FE3861FB6820
:1034780093F85130DBB2012B02D00223FB75CAE06E
:10348800BB68002B02D0FB88002B02D10123FB75FF
:10349800C1E0FB68042283F85120FB6800225A65CA
:1034A800FB68BA689A63FB68FA889A87FB68FA88A7
:1034B800DA87FB6800221A63FB6800229A86FB6899
:1034C8000022DA86FB6800221A64FB6800225A642C
:1034D800FB689B68B3F5004F0FD1FB681B681A683F
:1034E800FB681B6822F040021A60FB681B681A68B8
:1034F800FB681B6822F480421A60FB681B681B6823
:1035080003F04003402B07D0FB681B681A68FB6870
:103518001B6842F040021A60FB68DB68002B62D12E
:103528002EE0FB681B689B6803F00103012B15D193
:10353800FB681B6803F10C02FB689B6B1278D2B224
:103548001A70FB689B6B5A1CFB689A63FB68DB8FDD
:103558009BB2013B9AB2FB68DA8711E0FEF75AFE8C
:1035680002463B69D31A3A689A4203D83B68B3F1DA
:10357800FF3F02D13B68002B02D10323FB754AE0D1
:10358800FB68DB8F9BB2002BCBD131E0FB681B685B
:103598009B6803F00103012B13D1FB681B68DA68F1
:1035A800FB689B6B92B21A80FB689B6B9A1CFB684A
:1035B8009A63FB68DB8F9BB2013B9AB2FB68DA87A0
:1035C80011E0FEF727FE02463B69D31A3A689A4291
:1035D80003D83B68B3F1FF3F02D13B68002B02D10F
:1035E8000323FB7517E0FB68DB8F9BB2002BCDD163
:1035F8003A693968F86800F045FA0346002B02D0AA
:10360800FB6820225A65FB685B6D002B02D0012302
:10361800FB7500E000BFFB68012283F85120FB68BE
:10362800002283F85020FB7D18461837BD4680BD20
:1036380080B58CB000AFF860B9607A607B800123F8
:10364800FB62002387F82B30FB6893F85030012B7E
:1036580001D102238AE1FB68012283F85020FEF79A
:10366800D9FD7862FB6893F8513087F82330FB68FE
:103678005B68FB617B887B8397F82330012B0FD035
:10368800FB69B3F5827F07D1FB689B68002B03D1E8
:1036980097F82330042B03D0022387F82B305BE103
:1036A800BB68002B05D07B68002B02D07B88002BE1
:1036B80003D1012387F82B304EE1FB6893F8513092
:1036C800DBB2042B03D0FB68052283F85120FB688A
:1036D80000225A65FB687A689A63FB687A88DA87F9
:1036E800FB687A889A87FB68BA681A63FB687A88E5
:1036F800DA86FB687A889A86FB6800221A64FB6877
:1037080000225A64FB681B681B6803F04003402BC7
:1037180007D0FB681B681A68FB681B6842F0400208
:103728001A60FB68DB68B3F5006F78D1FB685B68EB
:10373800002B02D07B8B012B66D1FB681B6B1A8890
:10374800FB681B68DA60FB681B6B9A1CFB681A63D2
:10375800FB68DB8E9BB2013B9AB2FB68DA8653E0CA
:10376800FB681B689B6803F00203022B1BD1FB68F4
:10377800DB8E9BB2002B16D0FB6A012B13D1FB68A2
:103788001B6B1A88FB681B68DA60FB681B6B9A1C4A
:10379800FB681A63FB68DB8E9BB2013B9AB2FB683D
:1037A800DA860023FB62FB681B689B6803F0010351
:1037B800012B19D1FB68DB8F9BB2002B14D0FB685F
:1037C8001B68DA68FB689B6B92B21A80FB689B6B7C
:1037D8009A1CFB689A63FB68DB8F9BB2013B9AB229
:1037E800FB68DA870123FB62FEF714FD02467B6A59
:1037F800D31ABA6B9A4207D8BB6BB3F1FF3F03D019
:10380800032387F82B30A7E0FB68DB8E9BB2002BE5
:10381800A6D1FB68DB8F9BB2002BA1D17CE0FB68B3
:103828005B68002B02D07B8B012B6BD1FB681A6B7A
:10383800FB681B680C3312781A70FB681B6B5A1CE8
:10384800FB681A63FB68DB8E9BB2013B9AB2FB688C
:10385800DA8657E0FB681B689B6803F00203022BBB
:103868001CD1FB68DB8E9BB2002B17D0FB6A012BA7
:1038780014D1FB681A6BFB681B680C3312781A703A
:10388800FB681B6B5A1CFB681A63FB68DB8E9BB2D8
:10389800013B9AB2FB68DA860023FB62FB681B686F
:1038A8009B6803F00103012B19D1FB68DB8F9BB2E6
:1038B800002B14D0FB681B68DA68FB689B6BD2B2DC
:1038C8001A70FB689B6B5A1CFB689A63FB68DB8F5A
:1038D8009BB2013B9AB2FB68DA870123FB62FEF7D1
:1038E80099FC02467B6AD31ABA6B9A4203D8BB6B1F
:1038F800B3F1FF3F02D1BB6B002B03D1032387F841
:103908002B3029E0FB68DB8E9BB2002BA2D1FB6831
:10391800DB8F9BB2002B9DD17A6AB96BF86800F0F7
:1039280017F90346002B06D0012387F82B30FB68D4
:1039380020225A6510E0FB689B68002B0BD10023FE
:103948007B61FB681B68DB687B61FB681B689B68A5
:103958007B617B6900E000BFFB68012283F851208E
:10396800FB68002283F8502097F82B301846303730
:10397800BD4680BD80B588B000AFF860B9603B60D7
:103988001346FB71FEF746FC0246BB6A9B1A3A686F
:103998001344FB61FEF73EFCB861394B1B685B01C1
:1039A8001B0DFA6902FB03F37B6154E03B68B3F13A
:1039B800FF3F50D0FEF72EFC0246BB69D31AFA69C6
:1039C8009A4202D9FB69002B3DD1FB681B685A68F3
:1039D800FB681B6822F0E0025A60FB685B68B3F57D
:1039E800827F11D1FB689B68B3F5004F04D0FB6858
:1039F8009B68B3F5806F07D1FB681B681A68FB6882
:103A08001B6822F040021A60FB689B6AB3F5005FEE
:103A18000FD1FB681B681A68FB681B6822F4005208
:103A28001A60FB681B681A68FB681B6842F400523E
:103A38001A60FB68012283F85120FB68002283F892
:103A48005020032317E07B69002B01D10023FB6181
:103A58007B69013B7B61FB681B689A68BB68134004
:103A6800BA689A420CBF01230023DBB21A46FB79DD
:103A78009A429BD1002318462037BD4680BD00BF1F
:103A88000800002080B586B002AFF860B9607A609F
:103A9800FB685B68B3F5827F11D1FB689B68B3F55F
:103AA800004F04D0FB689B68B3F5806F07D1FB68B3
:103AB8001B681A68FB681B6822F040021A60FB68E2
:103AC8005B68B3F5827F2AD1FB689B68B3F5806F8A
:103AD80012D07B680093BB6800228021F868FFF74A
:103AE80049FF0346002B2DD0FB685B6D43F0200295
:103AF800FB685A65032326E07B680093BB680022B5
:103B08000121F868FFF736FF0346002B1AD0FB683F
:103B18005B6D43F02002FB685A65032313E07B6862
:103B28000093BB6800220121F868FFF723FF0346D2
:103B3800002B07D0FB685B6D43F02002FB685A65D9
:103B4800032300E0002318461037BD4680BD00005F
:103B580080B588B002AFF860B9607A601B4B1B680B
:103B68001B4AA2FB03235B0D4FF47A7202FB03F39B
:103B78007B61FB685B68B3F5827F12D17B68009339
:103B8800BB6800228021F868FFF7F4FE0346002B8B
:103B980016D0FB685B6D43F02002FB685A6503236F
:103BA8000FE07B69002B0AD07B69013B7B61FB68D6
:103BB8001B689B6803F08003802BF2D000E000BFF5
:103BC800002318461837BD4680BD00BF08000020F6
:103BD800819F5E1680B584B000AFF860B9607A60E6
:103BE800FB68002B01D1012334E0FB6893F84930CE
:103BF800DBB2002B06D1FB68002283F84820F86866
:103C0800FCF7A0FDFB681A68FB68083319461046E4
:103C180000F0A6FCFB681868FB689B681A46B96840
:103C280000F0F0FCFB685868FB689A68FB681B6B3F
:103C3800796800F025FDFB681B68FA68926853F8FC
:103C48002210FB681B68FA68926841F0010143F88A
:103C58002210002318461037BD4680BD80B582B0BB
:103C680000AF78607B68002B01D1012341E07B68BD
:103C780093F83D30DBB2002B06D17B68002283F835
:103C88003C207868FEF710FA7B68022283F83D2012
:103C98007B681A687B6804331946104600F096FA68
:103CA8007B68012283F846207B68012283F83E2046
:103CB8007B68012283F83F207B68012283F840203B
:103CC8007B68012283F841207B68012283F8422027
:103CD8007B68012283F843207B68012283F8442013
:103CE8007B68012283F845207B68012283F83D2008
:103CF800002318460837BD4680BD000080B485B053
:103D080000AF78607B6893F83D30DBB2012B01D0BF
:103D180001234EE07B68022283F83D207B681B6804
:103D2800DA687B681B6842F00102DA607B681B680E
:103D3800234A934222D07B681B68B3F1804F1DD081
:103D48007B681B681F4A934218D07B681B681E4A11
:103D5800934213D07B681B681C4A93420ED07B6841
:103D68001B681B4A934209D07B681B68194A934217
:103D780004D07B681B68184A934211D17B681B6882
:103D88009B6803F00703FB60FB68062B10D07B6879
:103D98001B681A687B681B6842F001021A6007E01A
:103DA8007B681B681A687B681B6842F001021A600E
:103DB800002318461437BD465DF8047B704700BFE2
:103DC800000001400004004000080040000C0040D2
:103DD80000040140004001400018004080B582B056
:103DE80000AF78607B681B681B6903F00203022B35
:103DF80022D17B681B68DB6803F00203022B1BD10E
:103E08007B681B686FF002021A617B6801221A77CF
:103E18007B681B689B6903F00303002B03D0786859
:103E280000F0B5F905E0786800F0A7F9786800F0C7
:103E3800B8F97B6800221A777B681B681B6903F056
:103E48000403042B22D17B681B68DB6803F004039E
:103E5800042B1BD17B681B686FF004021A617B6816
:103E680002221A777B681B689B6903F44073002B56
:103E780003D0786800F08BF905E0786800F07DF9E8
:103E8800786800F08EF97B6800221A777B681B68D7
:103E98001B6903F00803082B22D17B681B68DB68C9
:103EA80003F00803082B1BD17B681B686FF008021E
:103EB8001A617B6804221A777B681B68DB6903F048
:103EC8000303002B03D0786800F061F905E07868F7
:103ED80000F053F9786800F064F97B6800221A77DB
:103EE8007B681B681B6903F01003102B22D17B68C9
:103EF8001B68DB6803F01003102B1BD17B681B6861
:103F08006FF010021A617B6808221A777B681B68B9
:103F1800DB6903F44073002B03D0786800F037F9AD
:103F280005E0786800F029F9786800F03AF97B68CC
:103F380000221A777B681B681B6903F00103012BB9
:103F48000ED17B681B68DB6803F00103012B07D1E6
:103F58007B681B686FF001021A617868FDF742FF01
:103F68007B681B681B6903F08003802B0ED17B687C
:103F78001B68DB6803F08003802B07D17B681B6814
:103F88006FF080021A61786800F0E0FA7B681B68BD
:103F98001B6903F04003402B0ED17B681B68DB686C
:103FA80003F04003402B07D17B681B686FF0400289
:103FB8001A61786800F0FFF87B681B681B6903F0DA
:103FC8002003202B0ED17B681B68DB6803F02003DD
:103FD800202B07D17B681B686FF020021A61786874
:103FE80000F0AAFA00BF0837BD4680BD80B584B08E
:103FF80000AF786039600023FB737B6893F83C302E
:10400800012B01D10223B4E07B68012283F83C2014
:104018007B68022283F83D207B681B689B68BB6035
:10402800BB6823F07703BB60BB6823F47F43BB60A6
:104038007B681B68BA689A603B681B68B3F5005FC9
:104048003ED0B3F5005F00F28780B3F5805F00F0E3
:104058008680B3F5805F7FD8702B1AD0702B7BD801
:10406800602B50D0602B77D8502B3CD0502B73D876
:10407800402B58D0402B6FD8302B64D0302B6BD8C6
:10408800202B60D0202B67D8002B5CD0102B5AD067
:1040980062E07B6818683B6899683B685A683B68C7
:1040A800DB6800F0ADF97B681B689B68BB60BB6888
:1040B80043F07703BB607B681B68BA689A604FE07F
:1040C8007B6818683B6899683B685A683B68DB6896
:1040D80000F096F97B681B689A687B681B6842F455
:1040E80080429A603CE07B6818683B6859683B6886
:1040F800DB681A4600F00AF97B681B6850211846ED
:1041080000F063F92CE07B6818683B6859683B68E5
:10411800DB681A4600F029F97B681B68602118469D
:1041280000F053F91CE07B6818683B6859683B68E5
:10413800DB681A4600F0EAF87B681B6840211846DD
:1041480000F043F90CE07B681A683B681B68194665
:10415800104600F03AF903E00123FB7300E000BFCA
:104168007B68012283F83D207B68002283F83C208D
:10417800FB7B18461037BD4680BD80B483B000AFC6
:10418800786000BF0C37BD465DF8047B704780B48B
:1041980083B000AF786000BF0C37BD465DF8047B84
:1041A800704780B483B000AF786000BF0C37BD465D
:1041B8005DF8047B704780B483B000AF786000BFBF
:1041C8000C37BD465DF8047B7047000080B485B0AD
:1041D80000AF786039607B681B68FB607B68404A89
:1041E800934213D07B68B3F1804F0FD07B683D4A70
:1041F80093420BD07B683C4A934207D07B683B4A8A
:10420800934203D07B683A4A934208D1FB6823F073
:104218007003FB603B685B68FA681343FB607B686C
:104228002F4A93422BD07B68B3F1804F27D07B680D
:104238002C4A934223D07B682B4A93421FD07B6839
:104248002A4A93421BD07B68294A934217D07B683D
:10425800284A934213D07B68274A93420FD07B6841
:10426800264A93420BD07B68254A934207D07B6845
:10427800244A934203D07B68234A934208D1FB68BF
:1042880023F44073FB603B68DB68FA681343FB6008
:10429800FB6823F080023B685B691343FB607B6823
:1042A800FA681A603B689A687B68DA623B681A6841
:1042B8007B689A627B680A4A934203D07B680C4AFF
:1042C800934203D13B681A697B681A637B680122B1
:1042D8005A6100BF1437BD465DF8047B704700BFC4
:1042E800000001400004004000080040000C0040AD
:1042F80000040140004001400044014000480140E2
:1043080000180040001C00400020004080B487B026
:1043180000AFF860B9607A60FB681B6A7B61FB6874
:104328001B6A23F00102FB681A62FB689B693B6108
:104338003B6923F0F0033B617B681B013A69134337
:104348003B617B6923F00A037B617A69BB6813438D
:104358007B61FB683A699A61FB687A691A6200BFF7
:104368001C37BD465DF8047B704780B487B000AF4A
:10437800F860B9607A60FB681B6A23F01002FB687A
:104388001A62FB689B697B61FB681B6A3B617B69FE
:1043980023F470437B617B681B037A6913437B6159
:1043A8003B6923F0A0033B61BB681B013A691343D7
:1043B8003B61FB687A699A61FB683A691A6200BFD7
:1043C8001C37BD465DF8047B704780B485B000AFEC
:1043D800786039607B689B68FB60FB6823F070033A
:1043E800FB603A68FB68134343F00703FB607B6894
:1043F800FA689A6000BF1437BD465DF8047B7047C1
:1044080080B487B000AFF860B9607A603B60FB6841
:104418009B687B617B6923F47F437B613B681A025D
:104428007B681A43BB6813437A6913437B61FB6853
:104438007A699A6000BF1C37BD465DF8047B7047F7
:1044480080B485B000AF786039607B6893F83C3001
:10445800012B01D102235AE07B68012283F83C201A
:104468007B68022283F83D207B681B685B68FB60E1
:104478007B681B689B68BB60FB6823F07003FB606C
:104488003B681B68FA681343FB607B681B68FA6823
:104498005A607B681B68214A934222D07B681B685C
:1044A800B3F1804F1DD07B681B681D4A934218D01A
:1044B8007B681B681B4A934213D07B681B681A4AA7
:1044C80093420ED07B681B68184A934209D07B68D8
:1044D8001B68174A934204D07B681B68154A9342AD
:1044E8000CD1BB6823F08003BB603B685B68BA688B
:1044F8001343BB607B681B68BA689A607B680122BB
:1045080083F83D207B68002283F83C20002318466E
:104518001437BD465DF8047B704700BF00000140BA
:104528000004004000080040000C00400004014066
:10453800004001400018004080B483B000AF7860AC
:1045480000BF0C37BD465DF8047B704780B483B06C
:1045580000AF786000BF0C37BD465DF8047B70473C
:1045680080B485B000AF786039600023FB603B6899
:104578001A687B6853F82230FB60FA68204B1340B6
:10458800FB603B685A683B689B681A433B68DB687A
:104598001A433B681B691A433B685B691A433B68CB
:1045A8009B691A433B68DB691A433B681B6A1A43D9
:1045B8003B685B6A1A433B689B6A1A433B68DB6A41
:1045C8001A433B68DB6B1A433B681B6B1343FA685F
:1045D8001343FB603B689B68082B03D1FB6843F0DF
:1045E8004003FB603B681A687B68F96843F822104F
:1045F800002318461437BD465DF8047B704700BF9A
:104608008000F0FF80B487B000AFF860B9607A60CE
:1046180000237B617B685A1CFB6853F822307B615E
:104628007B6903F040437B61BB681A68BB685B68C1
:104638001B011A43BB689B681B021A43BB68DB68F3
:104648001B041A43BB681B69013B1B051A43BB6863
:104658005B69023B1B061A43BB689B6913437A6973
:1046680013437B617B685A1CFB68796943F8221005
:10467800002318461C37BD465DF8047B70470000D0
:1046880080B487B000AFF860B9607A603B600023FF
:104698007B613B68B3F5804F22D1FB687A6853F899
:1046A80022307B617A69154B13407B61BB681A68BD
:1046B800BB685B681B011A43BB689B681B021A43F3
:1046C800BB68DB681B041A43BB689B6913437A69A0
:1046D80013437B61FB687A68796943F8221005E027
:1046E800FB687A686FF0704143F82210002318467F
:1046F8001C37BD465DF8047B704700BF0000F0CF53
:1047080070B50D4D0D4C641BA4100026A64209D1AE
:104718000B4D0C4C00F020F8641BA4100026A64298
:1047280005D170BD55F8043B98470136EEE755F8BA
:10473800043B98470136F2E778B6000878B60008D7
:1047480078B600087CB6000802440346934200D1BC
:10475800704703F8011BF9E7F8B500BFF8BC08BCBF
:104768009E467047F8B500BFF8BC08BC9E46704727
:1047780054657374206C63642073637265656E009E
:1047880048656C6C6F20576F726C64202121210082
:104798000000000000000000000000000000000011
:1047A8000000000808080808080800001818000099
:1047B80000486C2412000000000000000000000007
:1047C8000000002424247F1212127F12121200000B
:1047D8000000081C2A2A0A0C1828282A2A1C08085B
:1047E80000000022251515152A585454542200009B
:1047F8000000000C1212120A76252911916E000091
:10480800000606040300000000000000000000008D
:104818000040201010080808080808101020400060
:1048280000020408081010101010100808040200F4
:104838000000000008086B1C1C6B08080000000042
:1048480000000000080808087F08080808000000A1
:10485800000000000000000000000000060604033D
:104868000000000000000000FE0000000000000042
:104878000000000000000000000000000606000024
:1048880000008040402020101008080404020200A4
:1048980000000018244242424242424224180000CA
:1048A800000000080E08080808080808083E00006C
:1048B8000000003C4242422020100804427E0000D2
:1048C8000000003C4242201820404042221C0000C8
:1048D800000000203028242422227E202078000096
:1048E8000000007E0202021A26404042221C0000FC
:1048F800000000382402021A26424242241800000E
:104908000000007E2222101008080808080800008D
:104918000000003C4242422418244242423C00002B
:10492800000000182442424264584040241C000001
:10493800000000000000181800000000181800000F
:104948000000000000000008000000000008080443
:104958000000004020100804020408102040000055
:104968000000000000007F0000007F000000000041
:104978000000000204081020402010080402000073
:104988000000003C42424640201010001818000069
:104998000000001C225A555555552D42221C000076
:1049A8000000000808181414243C224242E70000C2
:1049B8000000001F2222221E22424242221F000023
:1049C8000000007C4242010101010142221C00005A
:1049D8000000001F2242424242424242221F00007F
:1049E8000000003F4212121E12120242423F000013
:1049F8000000003F4212121E1212020202070000BB
:104A08000000003C2222010101712122221C000029
:104A1800000000E7424242427E42424242E7000032
:104A28000000003E0808080808080808083E0000BA
:104A38000000007C10101010101010101010110F32
:104A48000000007722120A0E0A12122222770000B2
:104A5800000000070202020202020202427F000076
:104A680000000077363636362A2A2A2A2A6B0000B2
:104A7800000000E346464A4A52525262624700002A
:104A88000000001C2241414141414141221C0000DB
:104A98000000003F424242423E020202020700007A
:104AA8000000001C2241414141414D53321C60002D
:104AB8000000003F4242423E1212222242C700003A
:104AC8000000007C4242020418204042423E00009E
:104AD8000000007F4908080808080808081C0000AA
:104AE800000000E74242424242424242423C000049
:104AF800000000E742422224241414180808000089
:104B08000000006B494949495555362222220000C8
:104B1800000000E7422424181818242442E7000063
:104B2800000000772222141408080808081C000056
:104B38000000007E2120101008040442423F0000BB
:104B4800007808080808080808080808080878000D
:104B58000000020204040808081010202020404029
:104B6800001E1010101010101010101010101E0041
:104B780000384400000000000000000000000000B1
:104B8800000000000000000000000000000000FF1E
:104B980000060800000000000000000000000000FF
:104BA800000000000000003C4278444242FC000043
:104BB800000000030202021A26424242261A00009E
:104BC80000000000000000384402020244380000DF
:104BD80000000060404040784442424264D80000EF
:104BE800000000000000003C427E0202423C00003F
:104BF800000000F08808087E08080808083E000041
:104C0800000000000000007C22221C023C42423CC2
:104C1800000000030202023A4642424242E7000014
:104C28000000000C0C00000E08080808083E0000F0
:104C38000000003030000038202020202020221ED4
:104C48000000000302020272120A16122277000004
:104C58000000000E0808080808080808083E0000B8
:104C6800000000000000007F9292929292B700002C
:104C7800000000000000003B4642424242E70000BC
:104C8800000000000000003C42424242423C00005A
:104C9800000000000000001B26424242221E0207BC
:104CA800000000000000007844424242447840E09E
:104CB80000000000000000774C040404041F0000FA
:104CC800000000000000007C42023C40423E000020
:104CD800000000000008083E080808080830000026
:104CE80000000000000000634242424262DC000013
:104CF80000000000000000E7422424140808000017
:104D080000000000000000EB494955552222000030
:104D1800000000000000007624181818246E000017
:104D280000000000000000E74224241418080807C7
:104D3800000000000000007E22100808447E0000E9
:104D480000C0202020202010202020202020C0006B
:104D5800101010101010101010101010101010104B
:104D680000060808080808100808080808080600C7
:104D78000C32C2000000000000000000000000002B
:104D8800000000000000000000000000000000001B
:104D9800000000000000000000000000000000000B
:104DA80000000000000000000000000000000000FB
:104DB8000000000000000000E000E000E000E0006B
:104DC800E00040004000400040004000400000007B
:104DD80000000000E000E000E0000000000000002B
:104DE8000000000060066006300398018800440057
:104DF80000000000000000000000000000000000AB
:104E0800000000000000000000000000000000009A
:104E1800000000000000000000000802080208026C
:104E28000802FE07FE070802080204010401FE0743
:104E3800FE07040104010401040100000000000051
:104E480000000000000040004000F00158034C033F
:104E58004C034C0058007000E000C001C001400342
:104E68004C034C034C034801F00040004000000094
:104E7800000000000000000000000E030A011101FC
:104E880091009100D1005100FA03AE026004500471
:104E980050045804480488028403000000000000FD
:104EA80000000000000000000000380064006400FA
:104EB80064006400A4031C010C011A019200B300F1
:104EC800E3006300C300A6041C0300000000000008
:104ED800000000000C001C00100010000800060074
:104EE80000000000000000000000000000000000BA
:104EF80000000000000000000000000000000000AA
:104F08000000000000040002000180018000C000D1
:104F1800C000600060006000600060006000600029
:104F2800C000C000800080010001000200040000F1
:104F38000000000002000400080018001000300003
:104F48003000600060006000600060006000600089
:104F580030003000100018000800040002000000B3
:104F680000000000000000000000000040004000B9
:104F780040004E0E5C07F001F0015C074E0E400049
:104F88004000400000000000000000000000000099
:104F980000000000000000000000000000004000C9
:104FA8004000400040004000FE0F4000400040002C
:104FB8004000400000000000000000000000000069
:104FC80000000000000000000000000000000000D9
:104FD80000000000000000000000000000000000C9
:104FE800000000000C001C00100010000800060063
:104FF80000000000000000000000000000000000A9
:105008000000000000000000FE0700000000000093
:105018000000000000000000000000000000000088
:105028000000000000000000000000000000000078
:105038000000000000000000000000000000000068
:10504800000000001C001C001C0000000000000004
:105058000000000000040006000200030001000137
:105068008000800040004000600020002000100008
:105078001000080008000C000400060002000000F0
:1050880000000000000000000000F00098010C0380
:105098000C030606060606060606060606060606A5
:1050A80006060C030C039801F00000000000000045
:1050B80000000000000000000000400060007C00CC
:1050C80060006000600060006000600060006000D8
:1050D8006000600060006000FC0300000000000049
:1050E80000000000000000000000F8008401020336
:1050F80006030603000380018001C00020001000A1
:10510800080204020202FE03FE0300000000000081
:10511800000000000000000000007800C4008601C4
:10512800860186018001C000700080010001000333
:105138000603060306038401F800000000000000CF
:10514800000000000000000000018001C001C00153
:10515800A001900190018801840184018201FE0769
:105168008001800180018001E0070000000000004C
:1051780000000000000000000000FC03FC03040025
:10518800040004000400F4008C010403000300037D
:105198000603060382018401F800000000000000F5
:1051A80000000000000000000000E00118030C03EC
:1051B8000C0004000600E60116030E0606060606A5
:1051C800060604060C021803F000000000000000A8
:1051D80000000000000000000000F807FC070C02B7
:1051E80004010401000180008000400040004000EC
:1051F80060006000600060006000000000000000C7
:1052080000000000000000000000F8010C03060682
:10521800060606060E023C03F000CC01040306064F
:105228000606060606060C03F00100000000000052
:1052380000000000000000000000F0000C010C035A
:10524800060206060606060606078C067806000607
:10525800000300030C018C0178000000000000002E
:105268000000000000000000000000000000000036
:105278000000E000E000E000000000000000000086
:1052880000000000E000E000E00000000000000076
:105298000000000000000000000000000000000006
:1052A8000000000060006000000000000000000036
:1052B80000000000000060006000400020000000C6
:1052C800000000000000000000040002000180004F
:1052D8004000200010000800040008001000200012
:1052E80040008000000100020004000000000000EF
:1052F80000000000000000000000000000000000A6
:1053080000000000FE070000000000000000FE078B
:105318000000000000000000000000000000000085
:105328000000000000000000040008001000200039
:10533800400080000001000200040002000180001B
:1053480040002000100008000400000000000000D9
:105358000000000000000000F0010C030206020635
:1053680006060606000380016000200020002000D9
:1053780000000000700070007000000000000000D5
:1053880000000000000000000000E00138060804EA
:10539800CC0A640B260926091609160996099605EA
:1053A80066030C080C041802E0010000000000006D
:1053B80000000000000000000000600060007000B5
:1053C800D000D000C800880188018801F8010403D2
:1053D80004030403040606060F0F00000000000083
:1053E80000000000000000000000FF008601060326
:1053F8000603060306038601FE00060306020606E8
:105408000606060606060603FF0100000000000067
:1054180000000000000000000000E00718060C046F
:105428000C0404000600060006000600060006003C
:1054380006040C040C021801F00000000000000033
:10544800000000000000000000007F008601060345
:1054580006030606060606060606060606060606E7
:10546800060606030603C6017F00000000000000D0
:1054780000000000000000000000FF030602060410
:105488000600060086008600FE00860086000600EC
:105498000600060406040602FF03000000000000E0
:1054A80000000000000000000000FF0306030604DF
:1054B8000604060086008600FE00860086000600B8
:1054C80006000600060006000F00000000000000AD
:1054D80000000000000000000000F00218030C02A9
:1054E8000C0204000600060006000600C60F0603AC
:1054F80006030C030C031803F00000000000000072
:10550800000000000000000000000F0F060606065D
:105518000606060606060606FE070606060606062A
:1055280006060606060606060F0F00000000000025
:1055380000000000000000000000FC0360006000A4
:105548006000600060006000600060006000600053
:105558006000600060006000FC03000000000000C4
:1055680000000000000000000000F00F8001800132
:10557800800180018001800180018001800180011B
:10558800800180018001800180018601C6007C00C5
:1055980000000000000000000000CF0706018600A0
:1055A80046004600260036003E006E00E600C600B3
:1055B800C6018601060306078F0F000000000000E1
:1055C800000000000000000000000F0006000600B8
:1055D8000600060006000600060006000600060093
:1055E8000600060406040602FF030000000000008F
:1055F800000000000000000000000F0F0E070E075B
:105608000E079A069A069A069A065A0672067206AD
:105618007206720622062206270F0000000000000C
:1056280000000000000000000000070E0E040E0439
:105638001A041A04320462046204C204C204820511
:105648000207020702060206070400000000000025
:1056580000000000000000000000F00098010C03AA
:105668000C020606060606060606060606060606D0
:1056780006060C020C039801F00000000000000070
:1056880000000000000000000000FF0106030606FD
:1056980006060606060606060603FE0106000600BE
:1056A80006000600060006000F00000000000000CB
:1056B80000000000000000000000F00098010C034A
:1056C8000C02060606060606060606060606060670
:1056D80076064C028C038801F00180070003000065
:1056E80000000000000000000000FF01060306069D
:1056F8000606060606060603FE006600C600C60085
:1057080086018601060306030F0E00000000000054
:1057180000000000000000000000F8040C07060468
:10572800060406000E003C00F000C003000300065B
:105738000206020606060E03F20100000000000041
:1057480000000000000000000000FE07620461087D
:105758006108600060006000600060006000600038
:105768006000600060006000F000000000000000C1
:10577800000000000000000000000F0E06040604F0
:1057880006040604060406040604060406040604C1
:105798000604060406040C02F801000000000000DC
:1057A800000000000000000000001F0F0E060C02A1
:1057B8000C020C020C011801180118011801B000A4
:1057C800B000B000F00060006000000000000000C1
:1057D80000000000000000000000EF0E66046604F0
:1057E80066026602E602EC02EC02DC01DC01DC0186
:1057F800DC019C018800880088000000000000008F
:10580800000000000000000000009E070C031801C3
:1058180018019800B000700060006000E000D0003F
:10582800D001980188010C039E07000000000000C9
:10583800000000000000000000001F0F0E060C0210
:105848000C0118011801B000B00070006000600081
:105858006000600060006000F801000000000000C7
:1058680000000000000000000000FC0704038203A1
:105878008001C001C000C00060006000300030003E
:10588800180018041C040C02FE03000000000000AD
:1058980000000000E0072000200020002000200079
:1058A80020002000200020002000200020002000F0
:1058B800200020002000200020002000E007000039
:1058C80000000000000000000400080008000800B4
:1058D8001000100020002000200040004000800040
:1058E80080008000000100010002000200020004A4
:1058F80000000000FC008000800080008000800024
:10590800800080008000800080008000800080008F
:10591800800080008000800080008000FC00000083
:1059280000000000E000B0010802000000000000D4
:10593800000000000000000000000000000000005F
:10594800000000000000000000000000000000004F
:10595800000000000000000000000000000000003F
:10596800000000000000000000000000000000002F
:105978000000000000000000000000000000FF0F11
:105988000000000018006000000000000000000097
:1059980000000000000000000000000000000000FF
:1059A80000000000000000000000000000000000EF
:1059B80000000000000000000000000000000000DF
:1059C80000000000F0010C030C03E00338030C0393
:1059D8000603060306038E0B7C0F00000000000080
:1059E800000000000000000008000E000C000C0081
:1059F8000C000C00CC013C031C060C060C060C0623
:105A08000C060C060C021C03F40100000000000048
:105A1800000000000000000000000000000000007E
:105A280000000000F0008C018C01860106000600D1
:105A3800060006020C020C01F00000000000000045
:105A480000000000000000000002800300030003C3
:105A58000003000378038C030C0306030603060304
:105A68000603060304038C07780100000000000009
:105A7800000000000000000000000000000000001E
:105A880000000000E001180308060C06FC070C00E3
:105A98000C000C0018043802E001000000000000AF
:105AA80000000000000000000000C003600630068F
:105AB80030003000FE03300030003000300030008D
:105AC8003000300030003000FC0100000000000011
